{
	"sol/Leasing.sol": {
		"LeaseMarketplace": {
			"abi": [
				{
					"inputs": [],
					"stateMutability": "payable",
					"type": "constructor"
				},
				{
					"anonymous": false,
					"inputs": [
						{
							"indexed": true,
							"internalType": "uint256",
							"name": "assetId",
							"type": "uint256"
						},
						{
							"indexed": true,
							"internalType": "address",
							"name": "buyer",
							"type": "address"
						},
						{
							"indexed": false,
							"internalType": "uint256",
							"name": "leaseStart",
							"type": "uint256"
						},
						{
							"indexed": false,
							"internalType": "uint256",
							"name": "leaseDuration",
							"type": "uint256"
						},
						{
							"indexed": false,
							"internalType": "uint256",
							"name": "price",
							"type": "uint256"
						}
					],
					"name": "AssetLeased",
					"type": "event"
				},
				{
					"anonymous": false,
					"inputs": [
						{
							"indexed": true,
							"internalType": "uint256",
							"name": "assetId",
							"type": "uint256"
						},
						{
							"indexed": true,
							"internalType": "address",
							"name": "owner",
							"type": "address"
						},
						{
							"indexed": false,
							"internalType": "uint256",
							"name": "hourlyRate",
							"type": "uint256"
						}
					],
					"name": "AssetRegistered",
					"type": "event"
				},
				{
					"anonymous": false,
					"inputs": [
						{
							"indexed": true,
							"internalType": "uint256",
							"name": "assetId",
							"type": "uint256"
						}
					],
					"name": "LeaseEnded",
					"type": "event"
				},
				{
					"stateMutability": "payable",
					"type": "fallback"
				},
				{
					"inputs": [],
					"name": "SECONDS_PER_HOUR",
					"outputs": [
						{
							"internalType": "uint256",
							"name": "",
							"type": "uint256"
						}
					],
					"stateMutability": "view",
					"type": "function"
				},
				{
					"inputs": [
						{
							"internalType": "uint256",
							"name": "",
							"type": "uint256"
						}
					],
					"name": "assets",
					"outputs": [
						{
							"internalType": "address",
							"name": "owner",
							"type": "address"
						},
						{
							"internalType": "uint256",
							"name": "hourlyRate",
							"type": "uint256"
						}
					],
					"stateMutability": "view",
					"type": "function"
				},
				{
					"inputs": [
						{
							"internalType": "uint256",
							"name": "assetId",
							"type": "uint256"
						}
					],
					"name": "endLease",
					"outputs": [],
					"stateMutability": "nonpayable",
					"type": "function"
				},
				{
					"inputs": [
						{
							"internalType": "uint256",
							"name": "assetId",
							"type": "uint256"
						},
						{
							"internalType": "uint256",
							"name": "duration",
							"type": "uint256"
						}
					],
					"name": "getLeasePrice",
					"outputs": [
						{
							"internalType": "uint256",
							"name": "",
							"type": "uint256"
						}
					],
					"stateMutability": "view",
					"type": "function"
				},
				{
					"inputs": [
						{
							"internalType": "uint256",
							"name": "assetId",
							"type": "uint256"
						},
						{
							"internalType": "uint256",
							"name": "duration",
							"type": "uint256"
						}
					],
					"name": "leaseAsset",
					"outputs": [],
					"stateMutability": "payable",
					"type": "function"
				},
				{
					"inputs": [
						{
							"internalType": "uint256",
							"name": "",
							"type": "uint256"
						}
					],
					"name": "leases",
					"outputs": [
						{
							"internalType": "address",
							"name": "buyer",
							"type": "address"
						},
						{
							"internalType": "uint256",
							"name": "leaseStart",
							"type": "uint256"
						},
						{
							"internalType": "uint256",
							"name": "leaseDuration",
							"type": "uint256"
						},
						{
							"internalType": "bool",
							"name": "active",
							"type": "bool"
						}
					],
					"stateMutability": "view",
					"type": "function"
				},
				{
					"inputs": [
						{
							"internalType": "address",
							"name": "",
							"type": "address"
						}
					],
					"name": "pendingWithdrawals",
					"outputs": [
						{
							"internalType": "uint256",
							"name": "",
							"type": "uint256"
						}
					],
					"stateMutability": "view",
					"type": "function"
				},
				{
					"inputs": [
						{
							"internalType": "uint256",
							"name": "assetId",
							"type": "uint256"
						},
						{
							"internalType": "uint256",
							"name": "hourlyRate",
							"type": "uint256"
						}
					],
					"name": "registerAsset",
					"outputs": [],
					"stateMutability": "nonpayable",
					"type": "function"
				},
				{
					"inputs": [],
					"name": "withdraw",
					"outputs": [],
					"stateMutability": "nonpayable",
					"type": "function"
				},
				{
					"stateMutability": "payable",
					"type": "receive"
				}
			],
			"devdoc": {
				"kind": "dev",
				"methods": {
					"endLease(uint256)": {
						"params": {
							"assetId": "The asset whose lease you wish to end."
						}
					},
					"getLeasePrice(uint256,uint256)": {
						"params": {
							"assetId": "The unique identifier of the asset.",
							"duration": "Lease duration in seconds."
						},
						"returns": {
							"_0": "The required payment in wei.  Calculation: requiredPayment = (hourlyRate * duration) / SECONDS_PER_HOUR."
						}
					},
					"leaseAsset(uint256,uint256)": {
						"params": {
							"assetId": "The unique identifier of the asset to lease.",
							"duration": "Lease duration in seconds. The caller must send at least the required Ether (using the value field)."
						}
					},
					"registerAsset(uint256,uint256)": {
						"params": {
							"assetId": "A unique identifier for the asset.",
							"hourlyRate": "The leasing rate in ether per hour (e.g., 0.01 ether)."
						}
					}
				},
				"version": 1
			},
			"evm": {
				"assembly": "    /* \"sol/Leasing.sol\":57:5015  contract LeaseMarketplace {... */\n  mstore(0x40, 0x80)\n  dataSize(sub_0)\n  dup1\n  dataOffset(sub_0)\n  0x00\n  codecopy\n  0x00\n  return\nstop\n\nsub_0: assembly {\n        /* \"sol/Leasing.sol\":57:5015  contract LeaseMarketplace {... */\n      mstore(0x40, 0x80)\n      jumpi(tag_1, lt(calldatasize, 0x04))\n      shr(0xe0, calldataload(0x00))\n      dup1\n      0x8927a106\n      gt\n      tag_12\n      jumpi\n      dup1\n      0x8927a106\n      eq\n      tag_7\n      jumpi\n      dup1\n      0x91ef935c\n      eq\n      tag_8\n      jumpi\n      dup1\n      0xcf35bdd0\n      eq\n      tag_9\n      jumpi\n      dup1\n      0xf3f43703\n      eq\n      tag_10\n      jumpi\n      dup1\n      0xf8a54c4a\n      eq\n      tag_11\n      jumpi\n      jump(tag_2)\n    tag_12:\n      dup1\n      0x20dd918b\n      eq\n      tag_3\n      jumpi\n      dup1\n      0x3ccfd60b\n      eq\n      tag_4\n      jumpi\n      dup1\n      0x4df86126\n      eq\n      tag_5\n      jumpi\n      dup1\n      0x87ae9ef9\n      eq\n      tag_6\n      jumpi\n      jump(tag_2)\n    tag_1:\n      jumpi(tag_2, calldatasize)\n      stop\n    tag_2:\n      stop\n        /* \"sol/Leasing.sol\":2862:4142  function leaseAsset(uint256 assetId, uint256 duration) external payable {... */\n    tag_3:\n      tag_17\n      0x04\n      dup1\n      calldatasize\n      sub\n      dup2\n      add\n      swap1\n      tag_18\n      swap2\n      swap1\n      tag_19\n      jump\t// in\n    tag_18:\n      tag_20\n      jump\t// in\n    tag_17:\n      stop\n        /* \"sol/Leasing.sol\":4662:4896  function withdraw() external {... */\n    tag_4:\n      callvalue\n      dup1\n      iszero\n      tag_21\n      jumpi\n      0x00\n      dup1\n      revert\n    tag_21:\n      pop\n      tag_22\n      tag_23\n      jump\t// in\n    tag_22:\n      stop\n        /* \"sol/Leasing.sol\":173:220  uint256 public constant SECONDS_PER_HOUR = 3600 */\n    tag_5:\n      callvalue\n      dup1\n      iszero\n      tag_24\n      jumpi\n      0x00\n      dup1\n      revert\n    tag_24:\n      pop\n      tag_25\n      tag_26\n      jump\t// in\n    tag_25:\n      mload(0x40)\n      tag_27\n      swap2\n      swap1\n      tag_28\n      jump\t// in\n    tag_27:\n      mload(0x40)\n      dup1\n      swap2\n      sub\n      swap1\n      return\n        /* \"sol/Leasing.sol\":2324:2598  function getLeasePrice(uint256 assetId, uint256 duration) public view returns (uint256) {... */\n    tag_6:\n      callvalue\n      dup1\n      iszero\n      tag_29\n      jumpi\n      0x00\n      dup1\n      revert\n    tag_29:\n      pop\n      tag_30\n      0x04\n      dup1\n      calldatasize\n      sub\n      dup2\n      add\n      swap1\n      tag_31\n      swap2\n      swap1\n      tag_19\n      jump\t// in\n    tag_31:\n      tag_32\n      jump\t// in\n    tag_30:\n      mload(0x40)\n      tag_33\n      swap2\n      swap1\n      tag_28\n      jump\t// in\n    tag_33:\n      mload(0x40)\n      dup1\n      swap2\n      sub\n      swap1\n      return\n        /* \"sol/Leasing.sol\":904:943  mapping(uint256 => Lease) public leases */\n    tag_7:\n      callvalue\n      dup1\n      iszero\n      tag_34\n      jumpi\n      0x00\n      dup1\n      revert\n    tag_34:\n      pop\n      tag_35\n      0x04\n      dup1\n      calldatasize\n      sub\n      dup2\n      add\n      swap1\n      tag_36\n      swap2\n      swap1\n      tag_37\n      jump\t// in\n    tag_36:\n      tag_38\n      jump\t// in\n    tag_35:\n      mload(0x40)\n      tag_39\n      swap5\n      swap4\n      swap3\n      swap2\n      swap1\n      tag_40\n      jump\t// in\n    tag_39:\n      mload(0x40)\n      dup1\n      swap2\n      sub\n      swap1\n      return\n        /* \"sol/Leasing.sol\":4269:4589  function endLease(uint256 assetId) external {... */\n    tag_8:\n      callvalue\n      dup1\n      iszero\n      tag_41\n      jumpi\n      0x00\n      dup1\n      revert\n    tag_41:\n      pop\n      tag_42\n      0x04\n      dup1\n      calldatasize\n      sub\n      dup2\n      add\n      swap1\n      tag_43\n      swap2\n      swap1\n      tag_37\n      jump\t// in\n    tag_43:\n      tag_44\n      jump\t// in\n    tag_42:\n      stop\n        /* \"sol/Leasing.sol\":815:854  mapping(uint256 => Asset) public assets */\n    tag_9:\n      callvalue\n      dup1\n      iszero\n      tag_45\n      jumpi\n      0x00\n      dup1\n      revert\n    tag_45:\n      pop\n      tag_46\n      0x04\n      dup1\n      calldatasize\n      sub\n      dup2\n      add\n      swap1\n      tag_47\n      swap2\n      swap1\n      tag_37\n      jump\t// in\n    tag_47:\n      tag_48\n      jump\t// in\n    tag_46:\n      mload(0x40)\n      tag_49\n      swap3\n      swap2\n      swap1\n      tag_50\n      jump\t// in\n    tag_49:\n      mload(0x40)\n      dup1\n      swap2\n      sub\n      swap1\n      return\n        /* \"sol/Leasing.sol\":1010:1063  mapping(address => uint256) public pendingWithdrawals */\n    tag_10:\n      callvalue\n      dup1\n      iszero\n      tag_51\n      jumpi\n      0x00\n      dup1\n      revert\n    tag_51:\n      pop\n      tag_52\n      0x04\n      dup1\n      calldatasize\n      sub\n      dup2\n      add\n      swap1\n      tag_53\n      swap2\n      swap1\n      tag_54\n      jump\t// in\n    tag_53:\n      tag_55\n      jump\t// in\n    tag_52:\n      mload(0x40)\n      tag_56\n      swap2\n      swap1\n      tag_28\n      jump\t// in\n    tag_56:\n      mload(0x40)\n      dup1\n      swap2\n      sub\n      swap1\n      return\n        /* \"sol/Leasing.sol\":1619:1994  function registerAsset(uint256 assetId, uint256 hourlyRate) external {... */\n    tag_11:\n      callvalue\n      dup1\n      iszero\n      tag_57\n      jumpi\n      0x00\n      dup1\n      revert\n    tag_57:\n      pop\n      tag_58\n      0x04\n      dup1\n      calldatasize\n      sub\n      dup2\n      add\n      swap1\n      tag_59\n      swap2\n      swap1\n      tag_19\n      jump\t// in\n    tag_59:\n      tag_60\n      jump\t// in\n    tag_58:\n      stop\n        /* \"sol/Leasing.sol\":2862:4142  function leaseAsset(uint256 assetId, uint256 duration) external payable {... */\n    tag_20:\n        /* \"sol/Leasing.sol\":2944:2962  Asset memory asset */\n      0x00\n        /* \"sol/Leasing.sol\":2965:2971  assets */\n      dup1\n        /* \"sol/Leasing.sol\":2965:2980  assets[assetId] */\n      0x00\n        /* \"sol/Leasing.sol\":2972:2979  assetId */\n      dup5\n        /* \"sol/Leasing.sol\":2965:2980  assets[assetId] */\n      dup2\n      mstore\n      0x20\n      add\n      swap1\n      dup2\n      mstore\n      0x20\n      add\n      0x00\n      keccak256\n        /* \"sol/Leasing.sol\":2944:2980  Asset memory asset = assets[assetId] */\n      mload(0x40)\n      dup1\n      0x40\n      add\n      0x40\n      mstore\n      swap1\n      dup2\n      0x00\n      dup3\n      add\n      0x00\n      swap1\n      sload\n      swap1\n      0x0100\n      exp\n      swap1\n      div\n      0xffffffffffffffffffffffffffffffffffffffff\n      and\n      0xffffffffffffffffffffffffffffffffffffffff\n      and\n      0xffffffffffffffffffffffffffffffffffffffff\n      and\n      dup2\n      mstore\n      0x20\n      add\n      0x01\n      dup3\n      add\n      sload\n      dup2\n      mstore\n      pop\n      pop\n      swap1\n      pop\n        /* \"sol/Leasing.sol\":3021:3022  0 */\n      0x00\n        /* \"sol/Leasing.sol\":2998:3023  asset.owner != address(0) */\n      0xffffffffffffffffffffffffffffffffffffffff\n      and\n        /* \"sol/Leasing.sol\":2998:3003  asset */\n      dup2\n        /* \"sol/Leasing.sol\":2998:3009  asset.owner */\n      0x00\n      add\n      mload\n        /* \"sol/Leasing.sol\":2998:3023  asset.owner != address(0) */\n      0xffffffffffffffffffffffffffffffffffffffff\n      and\n      sub\n        /* \"sol/Leasing.sol\":2990:3048  require(asset.owner != address(0), \"Asset not registered\") */\n      tag_62\n      jumpi\n      mload(0x40)\n      0x08c379a000000000000000000000000000000000000000000000000000000000\n      dup2\n      mstore\n      0x04\n      add\n      tag_63\n      swap1\n      tag_64\n      jump\t// in\n    tag_63:\n      mload(0x40)\n      dup1\n      swap2\n      sub\n      swap1\n      revert\n    tag_62:\n        /* \"sol/Leasing.sol\":3067:3086  Lease storage lease */\n      0x00\n        /* \"sol/Leasing.sol\":3089:3095  leases */\n      0x01\n        /* \"sol/Leasing.sol\":3089:3104  leases[assetId] */\n      0x00\n        /* \"sol/Leasing.sol\":3096:3103  assetId */\n      dup6\n        /* \"sol/Leasing.sol\":3089:3104  leases[assetId] */\n      dup2\n      mstore\n      0x20\n      add\n      swap1\n      dup2\n      mstore\n      0x20\n      add\n      0x00\n      keccak256\n        /* \"sol/Leasing.sol\":3067:3104  Lease storage lease = leases[assetId] */\n      swap1\n      pop\n        /* \"sol/Leasing.sol\":3206:3211  lease */\n      dup1\n        /* \"sol/Leasing.sol\":3206:3218  lease.active */\n      0x03\n      add\n      0x00\n      swap1\n      sload\n      swap1\n      0x0100\n      exp\n      swap1\n      div\n      0xff\n      and\n        /* \"sol/Leasing.sol\":3202:3340  if (lease.active) {... */\n      iszero\n      tag_65\n      jumpi\n        /* \"sol/Leasing.sol\":3280:3285  lease */\n      dup1\n        /* \"sol/Leasing.sol\":3280:3299  lease.leaseDuration */\n      0x02\n      add\n      sload\n        /* \"sol/Leasing.sol\":3261:3266  lease */\n      dup2\n        /* \"sol/Leasing.sol\":3261:3277  lease.leaseStart */\n      0x01\n      add\n      sload\n        /* \"sol/Leasing.sol\":3261:3299  lease.leaseStart + lease.leaseDuration */\n      tag_66\n      swap2\n      swap1\n      tag_67\n      jump\t// in\n    tag_66:\n        /* \"sol/Leasing.sol\":3242:3257  block.timestamp */\n      timestamp\n        /* \"sol/Leasing.sol\":3242:3299  block.timestamp >= lease.leaseStart + lease.leaseDuration */\n      lt\n      iszero\n        /* \"sol/Leasing.sol\":3234:3329  require(block.timestamp >= lease.leaseStart + lease.leaseDuration, \"Asset is currently leased\") */\n      tag_68\n      jumpi\n      mload(0x40)\n      0x08c379a000000000000000000000000000000000000000000000000000000000\n      dup2\n      mstore\n      0x04\n      add\n      tag_69\n      swap1\n      tag_70\n      jump\t// in\n    tag_69:\n      mload(0x40)\n      dup1\n      swap2\n      sub\n      swap1\n      revert\n    tag_68:\n        /* \"sol/Leasing.sol\":3202:3340  if (lease.active) {... */\n    tag_65:\n        /* \"sol/Leasing.sol\":3401:3424  uint256 requiredPayment */\n      0x00\n        /* \"sol/Leasing.sol\":3427:3459  getLeasePrice(assetId, duration) */\n      tag_71\n        /* \"sol/Leasing.sol\":3441:3448  assetId */\n      dup6\n        /* \"sol/Leasing.sol\":3450:3458  duration */\n      dup6\n        /* \"sol/Leasing.sol\":3427:3440  getLeasePrice */\n      tag_32\n        /* \"sol/Leasing.sol\":3427:3459  getLeasePrice(assetId, duration) */\n      jump\t// in\n    tag_71:\n        /* \"sol/Leasing.sol\":3401:3459  uint256 requiredPayment = getLeasePrice(assetId, duration) */\n      swap1\n      pop\n        /* \"sol/Leasing.sol\":3490:3505  requiredPayment */\n      dup1\n        /* \"sol/Leasing.sol\":3477:3486  msg.value */\n      callvalue\n        /* \"sol/Leasing.sol\":3477:3505  msg.value >= requiredPayment */\n      lt\n      iszero\n        /* \"sol/Leasing.sol\":3469:3549  require(msg.value >= requiredPayment, \"Insufficient payment for lease duration\") */\n      tag_72\n      jumpi\n      mload(0x40)\n      0x08c379a000000000000000000000000000000000000000000000000000000000\n      dup2\n      mstore\n      0x04\n      add\n      tag_73\n      swap1\n      tag_74\n      jump\t// in\n    tag_73:\n      mload(0x40)\n      dup1\n      swap2\n      sub\n      swap1\n      revert\n    tag_72:\n        /* \"sol/Leasing.sol\":3619:3629  msg.sender */\n      caller\n        /* \"sol/Leasing.sol\":3605:3610  lease */\n      dup3\n        /* \"sol/Leasing.sol\":3605:3616  lease.buyer */\n      0x00\n      add\n      0x00\n        /* \"sol/Leasing.sol\":3605:3629  lease.buyer = msg.sender */\n      0x0100\n      exp\n      dup2\n      sload\n      dup2\n      0xffffffffffffffffffffffffffffffffffffffff\n      mul\n      not\n      and\n      swap1\n      dup4\n      0xffffffffffffffffffffffffffffffffffffffff\n      and\n      mul\n      or\n      swap1\n      sstore\n      pop\n        /* \"sol/Leasing.sol\":3658:3673  block.timestamp */\n      timestamp\n        /* \"sol/Leasing.sol\":3639:3644  lease */\n      dup3\n        /* \"sol/Leasing.sol\":3639:3655  lease.leaseStart */\n      0x01\n      add\n        /* \"sol/Leasing.sol\":3639:3673  lease.leaseStart = block.timestamp */\n      dup2\n      swap1\n      sstore\n      pop\n        /* \"sol/Leasing.sol\":3705:3713  duration */\n      dup4\n        /* \"sol/Leasing.sol\":3683:3688  lease */\n      dup3\n        /* \"sol/Leasing.sol\":3683:3702  lease.leaseDuration */\n      0x02\n      add\n        /* \"sol/Leasing.sol\":3683:3713  lease.leaseDuration = duration */\n      dup2\n      swap1\n      sstore\n      pop\n        /* \"sol/Leasing.sol\":3738:3742  true */\n      0x01\n        /* \"sol/Leasing.sol\":3723:3728  lease */\n      dup3\n        /* \"sol/Leasing.sol\":3723:3735  lease.active */\n      0x03\n      add\n      0x00\n        /* \"sol/Leasing.sol\":3723:3742  lease.active = true */\n      0x0100\n      exp\n      dup2\n      sload\n      dup2\n      0xff\n      mul\n      not\n      and\n      swap1\n      dup4\n      iszero\n      iszero\n      mul\n      or\n      swap1\n      sstore\n      pop\n        /* \"sol/Leasing.sol\":3852:3867  requiredPayment */\n      dup1\n        /* \"sol/Leasing.sol\":3817:3835  pendingWithdrawals */\n      0x02\n        /* \"sol/Leasing.sol\":3817:3848  pendingWithdrawals[asset.owner] */\n      0x00\n        /* \"sol/Leasing.sol\":3836:3841  asset */\n      dup6\n        /* \"sol/Leasing.sol\":3836:3847  asset.owner */\n      0x00\n      add\n      mload\n        /* \"sol/Leasing.sol\":3817:3848  pendingWithdrawals[asset.owner] */\n      0xffffffffffffffffffffffffffffffffffffffff\n      and\n      0xffffffffffffffffffffffffffffffffffffffff\n      and\n      dup2\n      mstore\n      0x20\n      add\n      swap1\n      dup2\n      mstore\n      0x20\n      add\n      0x00\n      keccak256\n      0x00\n        /* \"sol/Leasing.sol\":3817:3867  pendingWithdrawals[asset.owner] += requiredPayment */\n      dup3\n      dup3\n      sload\n      tag_75\n      swap2\n      swap1\n      tag_67\n      jump\t// in\n    tag_75:\n      swap3\n      pop\n      pop\n      dup2\n      swap1\n      sstore\n      pop\n        /* \"sol/Leasing.sol\":3912:3922  msg.sender */\n      caller\n        /* \"sol/Leasing.sol\":3891:3967  AssetLeased(assetId, msg.sender, block.timestamp, duration, requiredPayment) */\n      0xffffffffffffffffffffffffffffffffffffffff\n      and\n        /* \"sol/Leasing.sol\":3903:3910  assetId */\n      dup6\n        /* \"sol/Leasing.sol\":3891:3967  AssetLeased(assetId, msg.sender, block.timestamp, duration, requiredPayment) */\n      0x3b6acd6a3dc7892bb2db5cc1be12c0e26f42f4664a0064e4c4d24d7ba6a67fb2\n        /* \"sol/Leasing.sol\":3924:3939  block.timestamp */\n      timestamp\n        /* \"sol/Leasing.sol\":3941:3949  duration */\n      dup8\n        /* \"sol/Leasing.sol\":3951:3966  requiredPayment */\n      dup6\n        /* \"sol/Leasing.sol\":3891:3967  AssetLeased(assetId, msg.sender, block.timestamp, duration, requiredPayment) */\n      mload(0x40)\n      tag_76\n      swap4\n      swap3\n      swap2\n      swap1\n      tag_77\n      jump\t// in\n    tag_76:\n      mload(0x40)\n      dup1\n      swap2\n      sub\n      swap1\n      log3\n        /* \"sol/Leasing.sol\":4037:4052  requiredPayment */\n      dup1\n        /* \"sol/Leasing.sol\":4025:4034  msg.value */\n      callvalue\n        /* \"sol/Leasing.sol\":4025:4052  msg.value > requiredPayment */\n      gt\n        /* \"sol/Leasing.sol\":4021:4136  if (msg.value > requiredPayment) {... */\n      iszero\n      tag_78\n      jumpi\n        /* \"sol/Leasing.sol\":4076:4086  msg.sender */\n      caller\n        /* \"sol/Leasing.sol\":4068:4096  payable(msg.sender).transfer */\n      0xffffffffffffffffffffffffffffffffffffffff\n      and\n        /* \"sol/Leasing.sol\":4068:4125  payable(msg.sender).transfer(msg.value - requiredPayment) */\n      0x08fc\n        /* \"sol/Leasing.sol\":4109:4124  requiredPayment */\n      dup3\n        /* \"sol/Leasing.sol\":4097:4106  msg.value */\n      callvalue\n        /* \"sol/Leasing.sol\":4097:4124  msg.value - requiredPayment */\n      tag_79\n      swap2\n      swap1\n      tag_80\n      jump\t// in\n    tag_79:\n        /* \"sol/Leasing.sol\":4068:4125  payable(msg.sender).transfer(msg.value - requiredPayment) */\n      swap1\n      dup2\n      iszero\n      mul\n      swap1\n      mload(0x40)\n      0x00\n      mload(0x40)\n      dup1\n      dup4\n      sub\n      dup2\n      dup6\n      dup9\n      dup9\n      call\n      swap4\n      pop\n      pop\n      pop\n      pop\n      iszero\n      dup1\n      iszero\n      tag_82\n      jumpi\n      returndatasize\n      0x00\n      dup1\n      returndatacopy\n      revert(0x00, returndatasize)\n    tag_82:\n      pop\n        /* \"sol/Leasing.sol\":4021:4136  if (msg.value > requiredPayment) {... */\n    tag_78:\n        /* \"sol/Leasing.sol\":2934:4142  {... */\n      pop\n      pop\n      pop\n        /* \"sol/Leasing.sol\":2862:4142  function leaseAsset(uint256 assetId, uint256 duration) external payable {... */\n      pop\n      pop\n      jump\t// out\n        /* \"sol/Leasing.sol\":4662:4896  function withdraw() external {... */\n    tag_23:\n        /* \"sol/Leasing.sol\":4701:4715  uint256 amount */\n      0x00\n        /* \"sol/Leasing.sol\":4718:4736  pendingWithdrawals */\n      0x02\n        /* \"sol/Leasing.sol\":4718:4748  pendingWithdrawals[msg.sender] */\n      0x00\n        /* \"sol/Leasing.sol\":4737:4747  msg.sender */\n      caller\n        /* \"sol/Leasing.sol\":4718:4748  pendingWithdrawals[msg.sender] */\n      0xffffffffffffffffffffffffffffffffffffffff\n      and\n      0xffffffffffffffffffffffffffffffffffffffff\n      and\n      dup2\n      mstore\n      0x20\n      add\n      swap1\n      dup2\n      mstore\n      0x20\n      add\n      0x00\n      keccak256\n      sload\n        /* \"sol/Leasing.sol\":4701:4748  uint256 amount = pendingWithdrawals[msg.sender] */\n      swap1\n      pop\n        /* \"sol/Leasing.sol\":4775:4776  0 */\n      0x00\n        /* \"sol/Leasing.sol\":4766:4772  amount */\n      dup2\n        /* \"sol/Leasing.sol\":4766:4776  amount > 0 */\n      gt\n        /* \"sol/Leasing.sol\":4758:4799  require(amount > 0, \"No funds available\") */\n      tag_84\n      jumpi\n      mload(0x40)\n      0x08c379a000000000000000000000000000000000000000000000000000000000\n      dup2\n      mstore\n      0x04\n      add\n      tag_85\n      swap1\n      tag_86\n      jump\t// in\n    tag_85:\n      mload(0x40)\n      dup1\n      swap2\n      sub\n      swap1\n      revert\n    tag_84:\n        /* \"sol/Leasing.sol\":4842:4843  0 */\n      0x00\n        /* \"sol/Leasing.sol\":4809:4827  pendingWithdrawals */\n      0x02\n        /* \"sol/Leasing.sol\":4809:4839  pendingWithdrawals[msg.sender] */\n      0x00\n        /* \"sol/Leasing.sol\":4828:4838  msg.sender */\n      caller\n        /* \"sol/Leasing.sol\":4809:4839  pendingWithdrawals[msg.sender] */\n      0xffffffffffffffffffffffffffffffffffffffff\n      and\n      0xffffffffffffffffffffffffffffffffffffffff\n      and\n      dup2\n      mstore\n      0x20\n      add\n      swap1\n      dup2\n      mstore\n      0x20\n      add\n      0x00\n      keccak256\n        /* \"sol/Leasing.sol\":4809:4843  pendingWithdrawals[msg.sender] = 0 */\n      dup2\n      swap1\n      sstore\n      pop\n        /* \"sol/Leasing.sol\":4861:4871  msg.sender */\n      caller\n        /* \"sol/Leasing.sol\":4853:4881  payable(msg.sender).transfer */\n      0xffffffffffffffffffffffffffffffffffffffff\n      and\n        /* \"sol/Leasing.sol\":4853:4889  payable(msg.sender).transfer(amount) */\n      0x08fc\n        /* \"sol/Leasing.sol\":4882:4888  amount */\n      dup3\n        /* \"sol/Leasing.sol\":4853:4889  payable(msg.sender).transfer(amount) */\n      swap1\n      dup2\n      iszero\n      mul\n      swap1\n      mload(0x40)\n      0x00\n      mload(0x40)\n      dup1\n      dup4\n      sub\n      dup2\n      dup6\n      dup9\n      dup9\n      call\n      swap4\n      pop\n      pop\n      pop\n      pop\n      iszero\n      dup1\n      iszero\n      tag_88\n      jumpi\n      returndatasize\n      0x00\n      dup1\n      returndatacopy\n      revert(0x00, returndatasize)\n    tag_88:\n      pop\n        /* \"sol/Leasing.sol\":4691:4896  {... */\n      pop\n        /* \"sol/Leasing.sol\":4662:4896  function withdraw() external {... */\n      jump\t// out\n        /* \"sol/Leasing.sol\":173:220  uint256 public constant SECONDS_PER_HOUR = 3600 */\n    tag_26:\n        /* \"sol/Leasing.sol\":216:220  3600 */\n      0x0e10\n        /* \"sol/Leasing.sol\":173:220  uint256 public constant SECONDS_PER_HOUR = 3600 */\n      dup2\n      jump\t// out\n        /* \"sol/Leasing.sol\":2324:2598  function getLeasePrice(uint256 assetId, uint256 duration) public view returns (uint256) {... */\n    tag_32:\n        /* \"sol/Leasing.sol\":2403:2410  uint256 */\n      0x00\n        /* \"sol/Leasing.sol\":2422:2440  Asset memory asset */\n      dup1\n        /* \"sol/Leasing.sol\":2443:2449  assets */\n      0x00\n        /* \"sol/Leasing.sol\":2443:2458  assets[assetId] */\n      dup1\n        /* \"sol/Leasing.sol\":2450:2457  assetId */\n      dup6\n        /* \"sol/Leasing.sol\":2443:2458  assets[assetId] */\n      dup2\n      mstore\n      0x20\n      add\n      swap1\n      dup2\n      mstore\n      0x20\n      add\n      0x00\n      keccak256\n        /* \"sol/Leasing.sol\":2422:2458  Asset memory asset = assets[assetId] */\n      mload(0x40)\n      dup1\n      0x40\n      add\n      0x40\n      mstore\n      swap1\n      dup2\n      0x00\n      dup3\n      add\n      0x00\n      swap1\n      sload\n      swap1\n      0x0100\n      exp\n      swap1\n      div\n      0xffffffffffffffffffffffffffffffffffffffff\n      and\n      0xffffffffffffffffffffffffffffffffffffffff\n      and\n      0xffffffffffffffffffffffffffffffffffffffff\n      and\n      dup2\n      mstore\n      0x20\n      add\n      0x01\n      dup3\n      add\n      sload\n      dup2\n      mstore\n      pop\n      pop\n      swap1\n      pop\n        /* \"sol/Leasing.sol\":2499:2500  0 */\n      0x00\n        /* \"sol/Leasing.sol\":2476:2501  asset.owner != address(0) */\n      0xffffffffffffffffffffffffffffffffffffffff\n      and\n        /* \"sol/Leasing.sol\":2476:2481  asset */\n      dup2\n        /* \"sol/Leasing.sol\":2476:2487  asset.owner */\n      0x00\n      add\n      mload\n        /* \"sol/Leasing.sol\":2476:2501  asset.owner != address(0) */\n      0xffffffffffffffffffffffffffffffffffffffff\n      and\n      sub\n        /* \"sol/Leasing.sol\":2468:2526  require(asset.owner != address(0), \"Asset not registered\") */\n      tag_90\n      jumpi\n      mload(0x40)\n      0x08c379a000000000000000000000000000000000000000000000000000000000\n      dup2\n      mstore\n      0x04\n      add\n      tag_91\n      swap1\n      tag_64\n      jump\t// in\n    tag_91:\n      mload(0x40)\n      dup1\n      swap2\n      sub\n      swap1\n      revert\n    tag_90:\n        /* \"sol/Leasing.sol\":216:220  3600 */\n      0x0e10\n        /* \"sol/Leasing.sol\":2563:2571  duration */\n      dup4\n        /* \"sol/Leasing.sol\":2544:2549  asset */\n      dup3\n        /* \"sol/Leasing.sol\":2544:2560  asset.hourlyRate */\n      0x20\n      add\n      mload\n        /* \"sol/Leasing.sol\":2544:2571  asset.hourlyRate * duration */\n      tag_92\n      swap2\n      swap1\n      tag_93\n      jump\t// in\n    tag_92:\n        /* \"sol/Leasing.sol\":2543:2591  (asset.hourlyRate * duration) / SECONDS_PER_HOUR */\n      tag_94\n      swap2\n      swap1\n      tag_95\n      jump\t// in\n    tag_94:\n        /* \"sol/Leasing.sol\":2536:2591  return (asset.hourlyRate * duration) / SECONDS_PER_HOUR */\n      swap2\n      pop\n      pop\n        /* \"sol/Leasing.sol\":2324:2598  function getLeasePrice(uint256 assetId, uint256 duration) public view returns (uint256) {... */\n      swap3\n      swap2\n      pop\n      pop\n      jump\t// out\n        /* \"sol/Leasing.sol\":904:943  mapping(uint256 => Lease) public leases */\n    tag_38:\n      mstore(0x20, 0x01)\n      dup1\n      0x00\n      mstore\n      keccak256(0x00, 0x40)\n      0x00\n      swap2\n      pop\n      swap1\n      pop\n      dup1\n      0x00\n      add\n      0x00\n      swap1\n      sload\n      swap1\n      0x0100\n      exp\n      swap1\n      div\n      0xffffffffffffffffffffffffffffffffffffffff\n      and\n      swap1\n      dup1\n      0x01\n      add\n      sload\n      swap1\n      dup1\n      0x02\n      add\n      sload\n      swap1\n      dup1\n      0x03\n      add\n      0x00\n      swap1\n      sload\n      swap1\n      0x0100\n      exp\n      swap1\n      div\n      0xff\n      and\n      swap1\n      pop\n      dup5\n      jump\t// out\n        /* \"sol/Leasing.sol\":4269:4589  function endLease(uint256 assetId) external {... */\n    tag_44:\n        /* \"sol/Leasing.sol\":4323:4342  Lease storage lease */\n      0x00\n        /* \"sol/Leasing.sol\":4345:4351  leases */\n      0x01\n        /* \"sol/Leasing.sol\":4345:4360  leases[assetId] */\n      0x00\n        /* \"sol/Leasing.sol\":4352:4359  assetId */\n      dup4\n        /* \"sol/Leasing.sol\":4345:4360  leases[assetId] */\n      dup2\n      mstore\n      0x20\n      add\n      swap1\n      dup2\n      mstore\n      0x20\n      add\n      0x00\n      keccak256\n        /* \"sol/Leasing.sol\":4323:4360  Lease storage lease = leases[assetId] */\n      swap1\n      pop\n        /* \"sol/Leasing.sol\":4378:4383  lease */\n      dup1\n        /* \"sol/Leasing.sol\":4378:4390  lease.active */\n      0x03\n      add\n      0x00\n      swap1\n      sload\n      swap1\n      0x0100\n      exp\n      swap1\n      div\n      0xff\n      and\n        /* \"sol/Leasing.sol\":4370:4410  require(lease.active, \"No active lease\") */\n      tag_97\n      jumpi\n      mload(0x40)\n      0x08c379a000000000000000000000000000000000000000000000000000000000\n      dup2\n      mstore\n      0x04\n      add\n      tag_98\n      swap1\n      tag_99\n      jump\t// in\n    tag_98:\n      mload(0x40)\n      dup1\n      swap2\n      sub\n      swap1\n      revert\n    tag_97:\n        /* \"sol/Leasing.sol\":4466:4471  lease */\n      dup1\n        /* \"sol/Leasing.sol\":4466:4485  lease.leaseDuration */\n      0x02\n      add\n      sload\n        /* \"sol/Leasing.sol\":4447:4452  lease */\n      dup2\n        /* \"sol/Leasing.sol\":4447:4463  lease.leaseStart */\n      0x01\n      add\n      sload\n        /* \"sol/Leasing.sol\":4447:4485  lease.leaseStart + lease.leaseDuration */\n      tag_100\n      swap2\n      swap1\n      tag_67\n      jump\t// in\n    tag_100:\n        /* \"sol/Leasing.sol\":4428:4443  block.timestamp */\n      timestamp\n        /* \"sol/Leasing.sol\":4428:4485  block.timestamp >= lease.leaseStart + lease.leaseDuration */\n      lt\n      iszero\n        /* \"sol/Leasing.sol\":4420:4518  require(block.timestamp >= lease.leaseStart + lease.leaseDuration, \"Lease period not yet expired\") */\n      tag_101\n      jumpi\n      mload(0x40)\n      0x08c379a000000000000000000000000000000000000000000000000000000000\n      dup2\n      mstore\n      0x04\n      add\n      tag_102\n      swap1\n      tag_103\n      jump\t// in\n    tag_102:\n      mload(0x40)\n      dup1\n      swap2\n      sub\n      swap1\n      revert\n    tag_101:\n        /* \"sol/Leasing.sol\":4543:4548  false */\n      0x00\n        /* \"sol/Leasing.sol\":4528:4533  lease */\n      dup2\n        /* \"sol/Leasing.sol\":4528:4540  lease.active */\n      0x03\n      add\n      0x00\n        /* \"sol/Leasing.sol\":4528:4548  lease.active = false */\n      0x0100\n      exp\n      dup2\n      sload\n      dup2\n      0xff\n      mul\n      not\n      and\n      swap1\n      dup4\n      iszero\n      iszero\n      mul\n      or\n      swap1\n      sstore\n      pop\n        /* \"sol/Leasing.sol\":4574:4581  assetId */\n      dup2\n        /* \"sol/Leasing.sol\":4563:4582  LeaseEnded(assetId) */\n      0x9bbc71338da3ea3da7477f5960427aa0fe6e98aeced78a369dd1b4357a50b9f1\n      mload(0x40)\n      mload(0x40)\n      dup1\n      swap2\n      sub\n      swap1\n      log2\n        /* \"sol/Leasing.sol\":4313:4589  {... */\n      pop\n        /* \"sol/Leasing.sol\":4269:4589  function endLease(uint256 assetId) external {... */\n      pop\n      jump\t// out\n        /* \"sol/Leasing.sol\":815:854  mapping(uint256 => Asset) public assets */\n    tag_48:\n      mstore(0x20, 0x00)\n      dup1\n      0x00\n      mstore\n      keccak256(0x00, 0x40)\n      0x00\n      swap2\n      pop\n      swap1\n      pop\n      dup1\n      0x00\n      add\n      0x00\n      swap1\n      sload\n      swap1\n      0x0100\n      exp\n      swap1\n      div\n      0xffffffffffffffffffffffffffffffffffffffff\n      and\n      swap1\n      dup1\n      0x01\n      add\n      sload\n      swap1\n      pop\n      dup3\n      jump\t// out\n        /* \"sol/Leasing.sol\":1010:1063  mapping(address => uint256) public pendingWithdrawals */\n    tag_55:\n      mstore(0x20, 0x02)\n      dup1\n      0x00\n      mstore\n      keccak256(0x00, 0x40)\n      0x00\n      swap2\n      pop\n      swap1\n      pop\n      sload\n      dup2\n      jump\t// out\n        /* \"sol/Leasing.sol\":1619:1994  function registerAsset(uint256 assetId, uint256 hourlyRate) external {... */\n    tag_60:\n        /* \"sol/Leasing.sol\":1739:1740  0 */\n      0x00\n        /* \"sol/Leasing.sol\":1706:1741  assets[assetId].owner == address(0) */\n      0xffffffffffffffffffffffffffffffffffffffff\n      and\n        /* \"sol/Leasing.sol\":1706:1712  assets */\n      0x00\n        /* \"sol/Leasing.sol\":1706:1721  assets[assetId] */\n      dup1\n        /* \"sol/Leasing.sol\":1713:1720  assetId */\n      dup5\n        /* \"sol/Leasing.sol\":1706:1721  assets[assetId] */\n      dup2\n      mstore\n      0x20\n      add\n      swap1\n      dup2\n      mstore\n      0x20\n      add\n      0x00\n      keccak256\n        /* \"sol/Leasing.sol\":1706:1727  assets[assetId].owner */\n      0x00\n      add\n      0x00\n      swap1\n      sload\n      swap1\n      0x0100\n      exp\n      swap1\n      div\n      0xffffffffffffffffffffffffffffffffffffffff\n      and\n        /* \"sol/Leasing.sol\":1706:1741  assets[assetId].owner == address(0) */\n      0xffffffffffffffffffffffffffffffffffffffff\n      and\n      eq\n        /* \"sol/Leasing.sol\":1698:1770  require(assets[assetId].owner == address(0), \"Asset already registered\") */\n      tag_105\n      jumpi\n      mload(0x40)\n      0x08c379a000000000000000000000000000000000000000000000000000000000\n      dup2\n      mstore\n      0x04\n      add\n      tag_106\n      swap1\n      tag_107\n      jump\t// in\n    tag_106:\n      mload(0x40)\n      dup1\n      swap2\n      sub\n      swap1\n      revert\n    tag_105:\n        /* \"sol/Leasing.sol\":1798:1924  Asset({... */\n      mload(0x40)\n      dup1\n      0x40\n      add\n      0x40\n      mstore\n      dup1\n        /* \"sol/Leasing.sol\":1825:1835  msg.sender */\n      caller\n        /* \"sol/Leasing.sol\":1798:1924  Asset({... */\n      0xffffffffffffffffffffffffffffffffffffffff\n      and\n      dup2\n      mstore\n      0x20\n      add\n        /* \"sol/Leasing.sol\":1861:1871  hourlyRate */\n      dup3\n        /* \"sol/Leasing.sol\":1798:1924  Asset({... */\n      dup2\n      mstore\n      pop\n        /* \"sol/Leasing.sol\":1780:1786  assets */\n      0x00\n        /* \"sol/Leasing.sol\":1780:1795  assets[assetId] */\n      dup1\n        /* \"sol/Leasing.sol\":1787:1794  assetId */\n      dup5\n        /* \"sol/Leasing.sol\":1780:1795  assets[assetId] */\n      dup2\n      mstore\n      0x20\n      add\n      swap1\n      dup2\n      mstore\n      0x20\n      add\n      0x00\n      keccak256\n        /* \"sol/Leasing.sol\":1780:1924  assets[assetId] = Asset({... */\n      0x00\n      dup3\n      add\n      mload\n      dup2\n      0x00\n      add\n      exp(0x0100, 0x00)\n      dup2\n      sload\n      dup2\n      0xffffffffffffffffffffffffffffffffffffffff\n      mul\n      not\n      and\n      swap1\n      dup4\n      0xffffffffffffffffffffffffffffffffffffffff\n      and\n      mul\n      or\n      swap1\n      sstore\n      pop\n      0x20\n      dup3\n      add\n      mload\n      dup2\n      0x01\n      add\n      sstore\n      swap1\n      pop\n      pop\n        /* \"sol/Leasing.sol\":1964:1974  msg.sender */\n      caller\n        /* \"sol/Leasing.sol\":1939:1987  AssetRegistered(assetId, msg.sender, hourlyRate) */\n      0xffffffffffffffffffffffffffffffffffffffff\n      and\n        /* \"sol/Leasing.sol\":1955:1962  assetId */\n      dup3\n        /* \"sol/Leasing.sol\":1939:1987  AssetRegistered(assetId, msg.sender, hourlyRate) */\n      0xac3dcdc20bb35a0f2b39fb2ddbe12a30d20c4795d2026bf2fc48df3ce84ca67d\n        /* \"sol/Leasing.sol\":1976:1986  hourlyRate */\n      dup4\n        /* \"sol/Leasing.sol\":1939:1987  AssetRegistered(assetId, msg.sender, hourlyRate) */\n      mload(0x40)\n      tag_108\n      swap2\n      swap1\n      tag_28\n      jump\t// in\n    tag_108:\n      mload(0x40)\n      dup1\n      swap2\n      sub\n      swap1\n      log3\n        /* \"sol/Leasing.sol\":1619:1994  function registerAsset(uint256 assetId, uint256 hourlyRate) external {... */\n      pop\n      pop\n      jump\t// out\n        /* \"#utility.yul\":88:205   */\n    tag_110:\n        /* \"#utility.yul\":197:198   */\n      0x00\n        /* \"#utility.yul\":194:195   */\n      dup1\n        /* \"#utility.yul\":187:199   */\n      revert\n        /* \"#utility.yul\":334:411   */\n    tag_112:\n        /* \"#utility.yul\":371:378   */\n      0x00\n        /* \"#utility.yul\":400:405   */\n      dup2\n        /* \"#utility.yul\":389:405   */\n      swap1\n      pop\n        /* \"#utility.yul\":334:411   */\n      swap2\n      swap1\n      pop\n      jump\t// out\n        /* \"#utility.yul\":417:539   */\n    tag_113:\n        /* \"#utility.yul\":490:514   */\n      tag_146\n        /* \"#utility.yul\":508:513   */\n      dup2\n        /* \"#utility.yul\":490:514   */\n      tag_112\n      jump\t// in\n    tag_146:\n        /* \"#utility.yul\":483:488   */\n      dup2\n        /* \"#utility.yul\":480:515   */\n      eq\n        /* \"#utility.yul\":470:533   */\n      tag_147\n      jumpi\n        /* \"#utility.yul\":529:530   */\n      0x00\n        /* \"#utility.yul\":526:527   */\n      dup1\n        /* \"#utility.yul\":519:531   */\n      revert\n        /* \"#utility.yul\":470:533   */\n    tag_147:\n        /* \"#utility.yul\":417:539   */\n      pop\n      jump\t// out\n        /* \"#utility.yul\":545:684   */\n    tag_114:\n        /* \"#utility.yul\":591:596   */\n      0x00\n        /* \"#utility.yul\":629:635   */\n      dup2\n        /* \"#utility.yul\":616:636   */\n      calldataload\n        /* \"#utility.yul\":607:636   */\n      swap1\n      pop\n        /* \"#utility.yul\":645:678   */\n      tag_149\n        /* \"#utility.yul\":672:677   */\n      dup2\n        /* \"#utility.yul\":645:678   */\n      tag_113\n      jump\t// in\n    tag_149:\n        /* \"#utility.yul\":545:684   */\n      swap3\n      swap2\n      pop\n      pop\n      jump\t// out\n        /* \"#utility.yul\":690:1164   */\n    tag_19:\n        /* \"#utility.yul\":758:764   */\n      0x00\n        /* \"#utility.yul\":766:772   */\n      dup1\n        /* \"#utility.yul\":815:817   */\n      0x40\n        /* \"#utility.yul\":803:812   */\n      dup4\n        /* \"#utility.yul\":794:801   */\n      dup6\n        /* \"#utility.yul\":790:813   */\n      sub\n        /* \"#utility.yul\":786:818   */\n      slt\n        /* \"#utility.yul\":783:902   */\n      iszero\n      tag_151\n      jumpi\n        /* \"#utility.yul\":821:900   */\n      tag_152\n      tag_110\n      jump\t// in\n    tag_152:\n        /* \"#utility.yul\":783:902   */\n    tag_151:\n        /* \"#utility.yul\":941:942   */\n      0x00\n        /* \"#utility.yul\":966:1019   */\n      tag_153\n        /* \"#utility.yul\":1011:1018   */\n      dup6\n        /* \"#utility.yul\":1002:1008   */\n      dup3\n        /* \"#utility.yul\":991:1000   */\n      dup7\n        /* \"#utility.yul\":987:1009   */\n      add\n        /* \"#utility.yul\":966:1019   */\n      tag_114\n      jump\t// in\n    tag_153:\n        /* \"#utility.yul\":956:1019   */\n      swap3\n      pop\n        /* \"#utility.yul\":912:1029   */\n      pop\n        /* \"#utility.yul\":1068:1070   */\n      0x20\n        /* \"#utility.yul\":1094:1147   */\n      tag_154\n        /* \"#utility.yul\":1139:1146   */\n      dup6\n        /* \"#utility.yul\":1130:1136   */\n      dup3\n        /* \"#utility.yul\":1119:1128   */\n      dup7\n        /* \"#utility.yul\":1115:1137   */\n      add\n        /* \"#utility.yul\":1094:1147   */\n      tag_114\n      jump\t// in\n    tag_154:\n        /* \"#utility.yul\":1084:1147   */\n      swap2\n      pop\n        /* \"#utility.yul\":1039:1157   */\n      pop\n        /* \"#utility.yul\":690:1164   */\n      swap3\n      pop\n      swap3\n      swap1\n      pop\n      jump\t// out\n        /* \"#utility.yul\":1170:1288   */\n    tag_115:\n        /* \"#utility.yul\":1257:1281   */\n      tag_156\n        /* \"#utility.yul\":1275:1280   */\n      dup2\n        /* \"#utility.yul\":1257:1281   */\n      tag_112\n      jump\t// in\n    tag_156:\n        /* \"#utility.yul\":1252:1255   */\n      dup3\n        /* \"#utility.yul\":1245:1282   */\n      mstore\n        /* \"#utility.yul\":1170:1288   */\n      pop\n      pop\n      jump\t// out\n        /* \"#utility.yul\":1294:1516   */\n    tag_28:\n        /* \"#utility.yul\":1387:1391   */\n      0x00\n        /* \"#utility.yul\":1425:1427   */\n      0x20\n        /* \"#utility.yul\":1414:1423   */\n      dup3\n        /* \"#utility.yul\":1410:1428   */\n      add\n        /* \"#utility.yul\":1402:1428   */\n      swap1\n      pop\n        /* \"#utility.yul\":1438:1509   */\n      tag_158\n        /* \"#utility.yul\":1506:1507   */\n      0x00\n        /* \"#utility.yul\":1495:1504   */\n      dup4\n        /* \"#utility.yul\":1491:1508   */\n      add\n        /* \"#utility.yul\":1482:1488   */\n      dup5\n        /* \"#utility.yul\":1438:1509   */\n      tag_115\n      jump\t// in\n    tag_158:\n        /* \"#utility.yul\":1294:1516   */\n      swap3\n      swap2\n      pop\n      pop\n      jump\t// out\n        /* \"#utility.yul\":1522:1851   */\n    tag_37:\n        /* \"#utility.yul\":1581:1587   */\n      0x00\n        /* \"#utility.yul\":1630:1632   */\n      0x20\n        /* \"#utility.yul\":1618:1627   */\n      dup3\n        /* \"#utility.yul\":1609:1616   */\n      dup5\n        /* \"#utility.yul\":1605:1628   */\n      sub\n        /* \"#utility.yul\":1601:1633   */\n      slt\n        /* \"#utility.yul\":1598:1717   */\n      iszero\n      tag_160\n      jumpi\n        /* \"#utility.yul\":1636:1715   */\n      tag_161\n      tag_110\n      jump\t// in\n    tag_161:\n        /* \"#utility.yul\":1598:1717   */\n    tag_160:\n        /* \"#utility.yul\":1756:1757   */\n      0x00\n        /* \"#utility.yul\":1781:1834   */\n      tag_162\n        /* \"#utility.yul\":1826:1833   */\n      dup5\n        /* \"#utility.yul\":1817:1823   */\n      dup3\n        /* \"#utility.yul\":1806:1815   */\n      dup6\n        /* \"#utility.yul\":1802:1824   */\n      add\n        /* \"#utility.yul\":1781:1834   */\n      tag_114\n      jump\t// in\n    tag_162:\n        /* \"#utility.yul\":1771:1834   */\n      swap2\n      pop\n        /* \"#utility.yul\":1727:1844   */\n      pop\n        /* \"#utility.yul\":1522:1851   */\n      swap3\n      swap2\n      pop\n      pop\n      jump\t// out\n        /* \"#utility.yul\":1857:1983   */\n    tag_116:\n        /* \"#utility.yul\":1894:1901   */\n      0x00\n        /* \"#utility.yul\":1934:1976   */\n      0xffffffffffffffffffffffffffffffffffffffff\n        /* \"#utility.yul\":1927:1932   */\n      dup3\n        /* \"#utility.yul\":1923:1977   */\n      and\n        /* \"#utility.yul\":1912:1977   */\n      swap1\n      pop\n        /* \"#utility.yul\":1857:1983   */\n      swap2\n      swap1\n      pop\n      jump\t// out\n        /* \"#utility.yul\":1989:2085   */\n    tag_117:\n        /* \"#utility.yul\":2026:2033   */\n      0x00\n        /* \"#utility.yul\":2055:2079   */\n      tag_165\n        /* \"#utility.yul\":2073:2078   */\n      dup3\n        /* \"#utility.yul\":2055:2079   */\n      tag_116\n      jump\t// in\n    tag_165:\n        /* \"#utility.yul\":2044:2079   */\n      swap1\n      pop\n        /* \"#utility.yul\":1989:2085   */\n      swap2\n      swap1\n      pop\n      jump\t// out\n        /* \"#utility.yul\":2091:2209   */\n    tag_118:\n        /* \"#utility.yul\":2178:2202   */\n      tag_167\n        /* \"#utility.yul\":2196:2201   */\n      dup2\n        /* \"#utility.yul\":2178:2202   */\n      tag_117\n      jump\t// in\n    tag_167:\n        /* \"#utility.yul\":2173:2176   */\n      dup3\n        /* \"#utility.yul\":2166:2203   */\n      mstore\n        /* \"#utility.yul\":2091:2209   */\n      pop\n      pop\n      jump\t// out\n        /* \"#utility.yul\":2215:2305   */\n    tag_119:\n        /* \"#utility.yul\":2249:2256   */\n      0x00\n        /* \"#utility.yul\":2292:2297   */\n      dup2\n        /* \"#utility.yul\":2285:2298   */\n      iszero\n        /* \"#utility.yul\":2278:2299   */\n      iszero\n        /* \"#utility.yul\":2267:2299   */\n      swap1\n      pop\n        /* \"#utility.yul\":2215:2305   */\n      swap2\n      swap1\n      pop\n      jump\t// out\n        /* \"#utility.yul\":2311:2420   */\n    tag_120:\n        /* \"#utility.yul\":2392:2413   */\n      tag_170\n        /* \"#utility.yul\":2407:2412   */\n      dup2\n        /* \"#utility.yul\":2392:2413   */\n      tag_119\n      jump\t// in\n    tag_170:\n        /* \"#utility.yul\":2387:2390   */\n      dup3\n        /* \"#utility.yul\":2380:2414   */\n      mstore\n        /* \"#utility.yul\":2311:2420   */\n      pop\n      pop\n      jump\t// out\n        /* \"#utility.yul\":2426:2967   */\n    tag_40:\n        /* \"#utility.yul\":2597:2601   */\n      0x00\n        /* \"#utility.yul\":2635:2638   */\n      0x80\n        /* \"#utility.yul\":2624:2633   */\n      dup3\n        /* \"#utility.yul\":2620:2639   */\n      add\n        /* \"#utility.yul\":2612:2639   */\n      swap1\n      pop\n        /* \"#utility.yul\":2649:2720   */\n      tag_172\n        /* \"#utility.yul\":2717:2718   */\n      0x00\n        /* \"#utility.yul\":2706:2715   */\n      dup4\n        /* \"#utility.yul\":2702:2719   */\n      add\n        /* \"#utility.yul\":2693:2699   */\n      dup8\n        /* \"#utility.yul\":2649:2720   */\n      tag_118\n      jump\t// in\n    tag_172:\n        /* \"#utility.yul\":2730:2802   */\n      tag_173\n        /* \"#utility.yul\":2798:2800   */\n      0x20\n        /* \"#utility.yul\":2787:2796   */\n      dup4\n        /* \"#utility.yul\":2783:2801   */\n      add\n        /* \"#utility.yul\":2774:2780   */\n      dup7\n        /* \"#utility.yul\":2730:2802   */\n      tag_115\n      jump\t// in\n    tag_173:\n        /* \"#utility.yul\":2812:2884   */\n      tag_174\n        /* \"#utility.yul\":2880:2882   */\n      0x40\n        /* \"#utility.yul\":2869:2878   */\n      dup4\n        /* \"#utility.yul\":2865:2883   */\n      add\n        /* \"#utility.yul\":2856:2862   */\n      dup6\n        /* \"#utility.yul\":2812:2884   */\n      tag_115\n      jump\t// in\n    tag_174:\n        /* \"#utility.yul\":2894:2960   */\n      tag_175\n        /* \"#utility.yul\":2956:2958   */\n      0x60\n        /* \"#utility.yul\":2945:2954   */\n      dup4\n        /* \"#utility.yul\":2941:2959   */\n      add\n        /* \"#utility.yul\":2932:2938   */\n      dup5\n        /* \"#utility.yul\":2894:2960   */\n      tag_120\n      jump\t// in\n    tag_175:\n        /* \"#utility.yul\":2426:2967   */\n      swap6\n      swap5\n      pop\n      pop\n      pop\n      pop\n      pop\n      jump\t// out\n        /* \"#utility.yul\":2973:3305   */\n    tag_50:\n        /* \"#utility.yul\":3094:3098   */\n      0x00\n        /* \"#utility.yul\":3132:3134   */\n      0x40\n        /* \"#utility.yul\":3121:3130   */\n      dup3\n        /* \"#utility.yul\":3117:3135   */\n      add\n        /* \"#utility.yul\":3109:3135   */\n      swap1\n      pop\n        /* \"#utility.yul\":3145:3216   */\n      tag_177\n        /* \"#utility.yul\":3213:3214   */\n      0x00\n        /* \"#utility.yul\":3202:3211   */\n      dup4\n        /* \"#utility.yul\":3198:3215   */\n      add\n        /* \"#utility.yul\":3189:3195   */\n      dup6\n        /* \"#utility.yul\":3145:3216   */\n      tag_118\n      jump\t// in\n    tag_177:\n        /* \"#utility.yul\":3226:3298   */\n      tag_178\n        /* \"#utility.yul\":3294:3296   */\n      0x20\n        /* \"#utility.yul\":3283:3292   */\n      dup4\n        /* \"#utility.yul\":3279:3297   */\n      add\n        /* \"#utility.yul\":3270:3276   */\n      dup5\n        /* \"#utility.yul\":3226:3298   */\n      tag_115\n      jump\t// in\n    tag_178:\n        /* \"#utility.yul\":2973:3305   */\n      swap4\n      swap3\n      pop\n      pop\n      pop\n      jump\t// out\n        /* \"#utility.yul\":3311:3433   */\n    tag_121:\n        /* \"#utility.yul\":3384:3408   */\n      tag_180\n        /* \"#utility.yul\":3402:3407   */\n      dup2\n        /* \"#utility.yul\":3384:3408   */\n      tag_117\n      jump\t// in\n    tag_180:\n        /* \"#utility.yul\":3377:3382   */\n      dup2\n        /* \"#utility.yul\":3374:3409   */\n      eq\n        /* \"#utility.yul\":3364:3427   */\n      tag_181\n      jumpi\n        /* \"#utility.yul\":3423:3424   */\n      0x00\n        /* \"#utility.yul\":3420:3421   */\n      dup1\n        /* \"#utility.yul\":3413:3425   */\n      revert\n        /* \"#utility.yul\":3364:3427   */\n    tag_181:\n        /* \"#utility.yul\":3311:3433   */\n      pop\n      jump\t// out\n        /* \"#utility.yul\":3439:3578   */\n    tag_122:\n        /* \"#utility.yul\":3485:3490   */\n      0x00\n        /* \"#utility.yul\":3523:3529   */\n      dup2\n        /* \"#utility.yul\":3510:3530   */\n      calldataload\n        /* \"#utility.yul\":3501:3530   */\n      swap1\n      pop\n        /* \"#utility.yul\":3539:3572   */\n      tag_183\n        /* \"#utility.yul\":3566:3571   */\n      dup2\n        /* \"#utility.yul\":3539:3572   */\n      tag_121\n      jump\t// in\n    tag_183:\n        /* \"#utility.yul\":3439:3578   */\n      swap3\n      swap2\n      pop\n      pop\n      jump\t// out\n        /* \"#utility.yul\":3584:3913   */\n    tag_54:\n        /* \"#utility.yul\":3643:3649   */\n      0x00\n        /* \"#utility.yul\":3692:3694   */\n      0x20\n        /* \"#utility.yul\":3680:3689   */\n      dup3\n        /* \"#utility.yul\":3671:3678   */\n      dup5\n        /* \"#utility.yul\":3667:3690   */\n      sub\n        /* \"#utility.yul\":3663:3695   */\n      slt\n        /* \"#utility.yul\":3660:3779   */\n      iszero\n      tag_185\n      jumpi\n        /* \"#utility.yul\":3698:3777   */\n      tag_186\n      tag_110\n      jump\t// in\n    tag_186:\n        /* \"#utility.yul\":3660:3779   */\n    tag_185:\n        /* \"#utility.yul\":3818:3819   */\n      0x00\n        /* \"#utility.yul\":3843:3896   */\n      tag_187\n        /* \"#utility.yul\":3888:3895   */\n      dup5\n        /* \"#utility.yul\":3879:3885   */\n      dup3\n        /* \"#utility.yul\":3868:3877   */\n      dup6\n        /* \"#utility.yul\":3864:3886   */\n      add\n        /* \"#utility.yul\":3843:3896   */\n      tag_122\n      jump\t// in\n    tag_187:\n        /* \"#utility.yul\":3833:3896   */\n      swap2\n      pop\n        /* \"#utility.yul\":3789:3906   */\n      pop\n        /* \"#utility.yul\":3584:3913   */\n      swap3\n      swap2\n      pop\n      pop\n      jump\t// out\n        /* \"#utility.yul\":3919:4088   */\n    tag_123:\n        /* \"#utility.yul\":4003:4014   */\n      0x00\n        /* \"#utility.yul\":4037:4043   */\n      dup3\n        /* \"#utility.yul\":4032:4035   */\n      dup3\n        /* \"#utility.yul\":4025:4044   */\n      mstore\n        /* \"#utility.yul\":4077:4081   */\n      0x20\n        /* \"#utility.yul\":4072:4075   */\n      dup3\n        /* \"#utility.yul\":4068:4082   */\n      add\n        /* \"#utility.yul\":4053:4082   */\n      swap1\n      pop\n        /* \"#utility.yul\":3919:4088   */\n      swap3\n      swap2\n      pop\n      pop\n      jump\t// out\n        /* \"#utility.yul\":4094:4264   */\n    tag_124:\n        /* \"#utility.yul\":4234:4256   */\n      0x4173736574206e6f742072656769737465726564000000000000000000000000\n        /* \"#utility.yul\":4230:4231   */\n      0x00\n        /* \"#utility.yul\":4222:4228   */\n      dup3\n        /* \"#utility.yul\":4218:4232   */\n      add\n        /* \"#utility.yul\":4211:4257   */\n      mstore\n        /* \"#utility.yul\":4094:4264   */\n      pop\n      jump\t// out\n        /* \"#utility.yul\":4270:4636   */\n    tag_125:\n        /* \"#utility.yul\":4412:4415   */\n      0x00\n        /* \"#utility.yul\":4433:4500   */\n      tag_191\n        /* \"#utility.yul\":4497:4499   */\n      0x14\n        /* \"#utility.yul\":4492:4495   */\n      dup4\n        /* \"#utility.yul\":4433:4500   */\n      tag_123\n      jump\t// in\n    tag_191:\n        /* \"#utility.yul\":4426:4500   */\n      swap2\n      pop\n        /* \"#utility.yul\":4509:4602   */\n      tag_192\n        /* \"#utility.yul\":4598:4601   */\n      dup3\n        /* \"#utility.yul\":4509:4602   */\n      tag_124\n      jump\t// in\n    tag_192:\n        /* \"#utility.yul\":4627:4629   */\n      0x20\n        /* \"#utility.yul\":4622:4625   */\n      dup3\n        /* \"#utility.yul\":4618:4630   */\n      add\n        /* \"#utility.yul\":4611:4630   */\n      swap1\n      pop\n        /* \"#utility.yul\":4270:4636   */\n      swap2\n      swap1\n      pop\n      jump\t// out\n        /* \"#utility.yul\":4642:5061   */\n    tag_64:\n        /* \"#utility.yul\":4808:4812   */\n      0x00\n        /* \"#utility.yul\":4846:4848   */\n      0x20\n        /* \"#utility.yul\":4835:4844   */\n      dup3\n        /* \"#utility.yul\":4831:4849   */\n      add\n        /* \"#utility.yul\":4823:4849   */\n      swap1\n      pop\n        /* \"#utility.yul\":4895:4904   */\n      dup2\n        /* \"#utility.yul\":4889:4893   */\n      dup2\n        /* \"#utility.yul\":4885:4905   */\n      sub\n        /* \"#utility.yul\":4881:4882   */\n      0x00\n        /* \"#utility.yul\":4870:4879   */\n      dup4\n        /* \"#utility.yul\":4866:4883   */\n      add\n        /* \"#utility.yul\":4859:4906   */\n      mstore\n        /* \"#utility.yul\":4923:5054   */\n      tag_194\n        /* \"#utility.yul\":5049:5053   */\n      dup2\n        /* \"#utility.yul\":4923:5054   */\n      tag_125\n      jump\t// in\n    tag_194:\n        /* \"#utility.yul\":4915:5054   */\n      swap1\n      pop\n        /* \"#utility.yul\":4642:5061   */\n      swap2\n      swap1\n      pop\n      jump\t// out\n        /* \"#utility.yul\":5067:5247   */\n    tag_126:\n        /* \"#utility.yul\":5115:5192   */\n      0x4e487b7100000000000000000000000000000000000000000000000000000000\n        /* \"#utility.yul\":5112:5113   */\n      0x00\n        /* \"#utility.yul\":5105:5193   */\n      mstore\n        /* \"#utility.yul\":5212:5216   */\n      0x11\n        /* \"#utility.yul\":5209:5210   */\n      0x04\n        /* \"#utility.yul\":5202:5217   */\n      mstore\n        /* \"#utility.yul\":5236:5240   */\n      0x24\n        /* \"#utility.yul\":5233:5234   */\n      0x00\n        /* \"#utility.yul\":5226:5241   */\n      revert\n        /* \"#utility.yul\":5253:5444   */\n    tag_67:\n        /* \"#utility.yul\":5293:5296   */\n      0x00\n        /* \"#utility.yul\":5312:5332   */\n      tag_197\n        /* \"#utility.yul\":5330:5331   */\n      dup3\n        /* \"#utility.yul\":5312:5332   */\n      tag_112\n      jump\t// in\n    tag_197:\n        /* \"#utility.yul\":5307:5332   */\n      swap2\n      pop\n        /* \"#utility.yul\":5346:5366   */\n      tag_198\n        /* \"#utility.yul\":5364:5365   */\n      dup4\n        /* \"#utility.yul\":5346:5366   */\n      tag_112\n      jump\t// in\n    tag_198:\n        /* \"#utility.yul\":5341:5366   */\n      swap3\n      pop\n        /* \"#utility.yul\":5389:5390   */\n      dup3\n        /* \"#utility.yul\":5386:5387   */\n      dup3\n        /* \"#utility.yul\":5382:5391   */\n      add\n        /* \"#utility.yul\":5375:5391   */\n      swap1\n      pop\n        /* \"#utility.yul\":5410:5413   */\n      dup1\n        /* \"#utility.yul\":5407:5408   */\n      dup3\n        /* \"#utility.yul\":5404:5414   */\n      gt\n        /* \"#utility.yul\":5401:5437   */\n      iszero\n      tag_199\n      jumpi\n        /* \"#utility.yul\":5417:5435   */\n      tag_200\n      tag_126\n      jump\t// in\n    tag_200:\n        /* \"#utility.yul\":5401:5437   */\n    tag_199:\n        /* \"#utility.yul\":5253:5444   */\n      swap3\n      swap2\n      pop\n      pop\n      jump\t// out\n        /* \"#utility.yul\":5450:5625   */\n    tag_127:\n        /* \"#utility.yul\":5590:5617   */\n      0x41737365742069732063757272656e746c79206c656173656400000000000000\n        /* \"#utility.yul\":5586:5587   */\n      0x00\n        /* \"#utility.yul\":5578:5584   */\n      dup3\n        /* \"#utility.yul\":5574:5588   */\n      add\n        /* \"#utility.yul\":5567:5618   */\n      mstore\n        /* \"#utility.yul\":5450:5625   */\n      pop\n      jump\t// out\n        /* \"#utility.yul\":5631:5997   */\n    tag_128:\n        /* \"#utility.yul\":5773:5776   */\n      0x00\n        /* \"#utility.yul\":5794:5861   */\n      tag_203\n        /* \"#utility.yul\":5858:5860   */\n      0x19\n        /* \"#utility.yul\":5853:5856   */\n      dup4\n        /* \"#utility.yul\":5794:5861   */\n      tag_123\n      jump\t// in\n    tag_203:\n        /* \"#utility.yul\":5787:5861   */\n      swap2\n      pop\n        /* \"#utility.yul\":5870:5963   */\n      tag_204\n        /* \"#utility.yul\":5959:5962   */\n      dup3\n        /* \"#utility.yul\":5870:5963   */\n      tag_127\n      jump\t// in\n    tag_204:\n        /* \"#utility.yul\":5988:5990   */\n      0x20\n        /* \"#utility.yul\":5983:5986   */\n      dup3\n        /* \"#utility.yul\":5979:5991   */\n      add\n        /* \"#utility.yul\":5972:5991   */\n      swap1\n      pop\n        /* \"#utility.yul\":5631:5997   */\n      swap2\n      swap1\n      pop\n      jump\t// out\n        /* \"#utility.yul\":6003:6422   */\n    tag_70:\n        /* \"#utility.yul\":6169:6173   */\n      0x00\n        /* \"#utility.yul\":6207:6209   */\n      0x20\n        /* \"#utility.yul\":6196:6205   */\n      dup3\n        /* \"#utility.yul\":6192:6210   */\n      add\n        /* \"#utility.yul\":6184:6210   */\n      swap1\n      pop\n        /* \"#utility.yul\":6256:6265   */\n      dup2\n        /* \"#utility.yul\":6250:6254   */\n      dup2\n        /* \"#utility.yul\":6246:6266   */\n      sub\n        /* \"#utility.yul\":6242:6243   */\n      0x00\n        /* \"#utility.yul\":6231:6240   */\n      dup4\n        /* \"#utility.yul\":6227:6244   */\n      add\n        /* \"#utility.yul\":6220:6267   */\n      mstore\n        /* \"#utility.yul\":6284:6415   */\n      tag_206\n        /* \"#utility.yul\":6410:6414   */\n      dup2\n        /* \"#utility.yul\":6284:6415   */\n      tag_128\n      jump\t// in\n    tag_206:\n        /* \"#utility.yul\":6276:6415   */\n      swap1\n      pop\n        /* \"#utility.yul\":6003:6422   */\n      swap2\n      swap1\n      pop\n      jump\t// out\n        /* \"#utility.yul\":6428:6654   */\n    tag_129:\n        /* \"#utility.yul\":6568:6602   */\n      0x496e73756666696369656e74207061796d656e7420666f72206c656173652064\n        /* \"#utility.yul\":6564:6565   */\n      0x00\n        /* \"#utility.yul\":6556:6562   */\n      dup3\n        /* \"#utility.yul\":6552:6566   */\n      add\n        /* \"#utility.yul\":6545:6603   */\n      mstore\n        /* \"#utility.yul\":6637:6646   */\n      0x75726174696f6e00000000000000000000000000000000000000000000000000\n        /* \"#utility.yul\":6632:6634   */\n      0x20\n        /* \"#utility.yul\":6624:6630   */\n      dup3\n        /* \"#utility.yul\":6620:6635   */\n      add\n        /* \"#utility.yul\":6613:6647   */\n      mstore\n        /* \"#utility.yul\":6428:6654   */\n      pop\n      jump\t// out\n        /* \"#utility.yul\":6660:7026   */\n    tag_130:\n        /* \"#utility.yul\":6802:6805   */\n      0x00\n        /* \"#utility.yul\":6823:6890   */\n      tag_209\n        /* \"#utility.yul\":6887:6889   */\n      0x27\n        /* \"#utility.yul\":6882:6885   */\n      dup4\n        /* \"#utility.yul\":6823:6890   */\n      tag_123\n      jump\t// in\n    tag_209:\n        /* \"#utility.yul\":6816:6890   */\n      swap2\n      pop\n        /* \"#utility.yul\":6899:6992   */\n      tag_210\n        /* \"#utility.yul\":6988:6991   */\n      dup3\n        /* \"#utility.yul\":6899:6992   */\n      tag_129\n      jump\t// in\n    tag_210:\n        /* \"#utility.yul\":7017:7019   */\n      0x40\n        /* \"#utility.yul\":7012:7015   */\n      dup3\n        /* \"#utility.yul\":7008:7020   */\n      add\n        /* \"#utility.yul\":7001:7020   */\n      swap1\n      pop\n        /* \"#utility.yul\":6660:7026   */\n      swap2\n      swap1\n      pop\n      jump\t// out\n        /* \"#utility.yul\":7032:7451   */\n    tag_74:\n        /* \"#utility.yul\":7198:7202   */\n      0x00\n        /* \"#utility.yul\":7236:7238   */\n      0x20\n        /* \"#utility.yul\":7225:7234   */\n      dup3\n        /* \"#utility.yul\":7221:7239   */\n      add\n        /* \"#utility.yul\":7213:7239   */\n      swap1\n      pop\n        /* \"#utility.yul\":7285:7294   */\n      dup2\n        /* \"#utility.yul\":7279:7283   */\n      dup2\n        /* \"#utility.yul\":7275:7295   */\n      sub\n        /* \"#utility.yul\":7271:7272   */\n      0x00\n        /* \"#utility.yul\":7260:7269   */\n      dup4\n        /* \"#utility.yul\":7256:7273   */\n      add\n        /* \"#utility.yul\":7249:7296   */\n      mstore\n        /* \"#utility.yul\":7313:7444   */\n      tag_212\n        /* \"#utility.yul\":7439:7443   */\n      dup2\n        /* \"#utility.yul\":7313:7444   */\n      tag_130\n      jump\t// in\n    tag_212:\n        /* \"#utility.yul\":7305:7444   */\n      swap1\n      pop\n        /* \"#utility.yul\":7032:7451   */\n      swap2\n      swap1\n      pop\n      jump\t// out\n        /* \"#utility.yul\":7457:7899   */\n    tag_77:\n        /* \"#utility.yul\":7606:7610   */\n      0x00\n        /* \"#utility.yul\":7644:7646   */\n      0x60\n        /* \"#utility.yul\":7633:7642   */\n      dup3\n        /* \"#utility.yul\":7629:7647   */\n      add\n        /* \"#utility.yul\":7621:7647   */\n      swap1\n      pop\n        /* \"#utility.yul\":7657:7728   */\n      tag_214\n        /* \"#utility.yul\":7725:7726   */\n      0x00\n        /* \"#utility.yul\":7714:7723   */\n      dup4\n        /* \"#utility.yul\":7710:7727   */\n      add\n        /* \"#utility.yul\":7701:7707   */\n      dup7\n        /* \"#utility.yul\":7657:7728   */\n      tag_115\n      jump\t// in\n    tag_214:\n        /* \"#utility.yul\":7738:7810   */\n      tag_215\n        /* \"#utility.yul\":7806:7808   */\n      0x20\n        /* \"#utility.yul\":7795:7804   */\n      dup4\n        /* \"#utility.yul\":7791:7809   */\n      add\n        /* \"#utility.yul\":7782:7788   */\n      dup6\n        /* \"#utility.yul\":7738:7810   */\n      tag_115\n      jump\t// in\n    tag_215:\n        /* \"#utility.yul\":7820:7892   */\n      tag_216\n        /* \"#utility.yul\":7888:7890   */\n      0x40\n        /* \"#utility.yul\":7877:7886   */\n      dup4\n        /* \"#utility.yul\":7873:7891   */\n      add\n        /* \"#utility.yul\":7864:7870   */\n      dup5\n        /* \"#utility.yul\":7820:7892   */\n      tag_115\n      jump\t// in\n    tag_216:\n        /* \"#utility.yul\":7457:7899   */\n      swap5\n      swap4\n      pop\n      pop\n      pop\n      pop\n      jump\t// out\n        /* \"#utility.yul\":7905:8099   */\n    tag_80:\n        /* \"#utility.yul\":7945:7949   */\n      0x00\n        /* \"#utility.yul\":7965:7985   */\n      tag_218\n        /* \"#utility.yul\":7983:7984   */\n      dup3\n        /* \"#utility.yul\":7965:7985   */\n      tag_112\n      jump\t// in\n    tag_218:\n        /* \"#utility.yul\":7960:7985   */\n      swap2\n      pop\n        /* \"#utility.yul\":7999:8019   */\n      tag_219\n        /* \"#utility.yul\":8017:8018   */\n      dup4\n        /* \"#utility.yul\":7999:8019   */\n      tag_112\n      jump\t// in\n    tag_219:\n        /* \"#utility.yul\":7994:8019   */\n      swap3\n      pop\n        /* \"#utility.yul\":8043:8044   */\n      dup3\n        /* \"#utility.yul\":8040:8041   */\n      dup3\n        /* \"#utility.yul\":8036:8045   */\n      sub\n        /* \"#utility.yul\":8028:8045   */\n      swap1\n      pop\n        /* \"#utility.yul\":8067:8068   */\n      dup2\n        /* \"#utility.yul\":8061:8065   */\n      dup2\n        /* \"#utility.yul\":8058:8069   */\n      gt\n        /* \"#utility.yul\":8055:8092   */\n      iszero\n      tag_220\n      jumpi\n        /* \"#utility.yul\":8072:8090   */\n      tag_221\n      tag_126\n      jump\t// in\n    tag_221:\n        /* \"#utility.yul\":8055:8092   */\n    tag_220:\n        /* \"#utility.yul\":7905:8099   */\n      swap3\n      swap2\n      pop\n      pop\n      jump\t// out\n        /* \"#utility.yul\":8105:8273   */\n    tag_131:\n        /* \"#utility.yul\":8245:8265   */\n      0x4e6f2066756e647320617661696c61626c650000000000000000000000000000\n        /* \"#utility.yul\":8241:8242   */\n      0x00\n        /* \"#utility.yul\":8233:8239   */\n      dup3\n        /* \"#utility.yul\":8229:8243   */\n      add\n        /* \"#utility.yul\":8222:8266   */\n      mstore\n        /* \"#utility.yul\":8105:8273   */\n      pop\n      jump\t// out\n        /* \"#utility.yul\":8279:8645   */\n    tag_132:\n        /* \"#utility.yul\":8421:8424   */\n      0x00\n        /* \"#utility.yul\":8442:8509   */\n      tag_224\n        /* \"#utility.yul\":8506:8508   */\n      0x12\n        /* \"#utility.yul\":8501:8504   */\n      dup4\n        /* \"#utility.yul\":8442:8509   */\n      tag_123\n      jump\t// in\n    tag_224:\n        /* \"#utility.yul\":8435:8509   */\n      swap2\n      pop\n        /* \"#utility.yul\":8518:8611   */\n      tag_225\n        /* \"#utility.yul\":8607:8610   */\n      dup3\n        /* \"#utility.yul\":8518:8611   */\n      tag_131\n      jump\t// in\n    tag_225:\n        /* \"#utility.yul\":8636:8638   */\n      0x20\n        /* \"#utility.yul\":8631:8634   */\n      dup3\n        /* \"#utility.yul\":8627:8639   */\n      add\n        /* \"#utility.yul\":8620:8639   */\n      swap1\n      pop\n        /* \"#utility.yul\":8279:8645   */\n      swap2\n      swap1\n      pop\n      jump\t// out\n        /* \"#utility.yul\":8651:9070   */\n    tag_86:\n        /* \"#utility.yul\":8817:8821   */\n      0x00\n        /* \"#utility.yul\":8855:8857   */\n      0x20\n        /* \"#utility.yul\":8844:8853   */\n      dup3\n        /* \"#utility.yul\":8840:8858   */\n      add\n        /* \"#utility.yul\":8832:8858   */\n      swap1\n      pop\n        /* \"#utility.yul\":8904:8913   */\n      dup2\n        /* \"#utility.yul\":8898:8902   */\n      dup2\n        /* \"#utility.yul\":8894:8914   */\n      sub\n        /* \"#utility.yul\":8890:8891   */\n      0x00\n        /* \"#utility.yul\":8879:8888   */\n      dup4\n        /* \"#utility.yul\":8875:8892   */\n      add\n        /* \"#utility.yul\":8868:8915   */\n      mstore\n        /* \"#utility.yul\":8932:9063   */\n      tag_227\n        /* \"#utility.yul\":9058:9062   */\n      dup2\n        /* \"#utility.yul\":8932:9063   */\n      tag_132\n      jump\t// in\n    tag_227:\n        /* \"#utility.yul\":8924:9063   */\n      swap1\n      pop\n        /* \"#utility.yul\":8651:9070   */\n      swap2\n      swap1\n      pop\n      jump\t// out\n        /* \"#utility.yul\":9076:9486   */\n    tag_93:\n        /* \"#utility.yul\":9116:9123   */\n      0x00\n        /* \"#utility.yul\":9139:9159   */\n      tag_229\n        /* \"#utility.yul\":9157:9158   */\n      dup3\n        /* \"#utility.yul\":9139:9159   */\n      tag_112\n      jump\t// in\n    tag_229:\n        /* \"#utility.yul\":9134:9159   */\n      swap2\n      pop\n        /* \"#utility.yul\":9173:9193   */\n      tag_230\n        /* \"#utility.yul\":9191:9192   */\n      dup4\n        /* \"#utility.yul\":9173:9193   */\n      tag_112\n      jump\t// in\n    tag_230:\n        /* \"#utility.yul\":9168:9193   */\n      swap3\n      pop\n        /* \"#utility.yul\":9228:9229   */\n      dup3\n        /* \"#utility.yul\":9225:9226   */\n      dup3\n        /* \"#utility.yul\":9221:9230   */\n      mul\n        /* \"#utility.yul\":9250:9280   */\n      tag_231\n        /* \"#utility.yul\":9268:9279   */\n      dup2\n        /* \"#utility.yul\":9250:9280   */\n      tag_112\n      jump\t// in\n    tag_231:\n        /* \"#utility.yul\":9239:9280   */\n      swap2\n      pop\n        /* \"#utility.yul\":9429:9430   */\n      dup3\n        /* \"#utility.yul\":9420:9427   */\n      dup3\n        /* \"#utility.yul\":9416:9431   */\n      div\n        /* \"#utility.yul\":9413:9414   */\n      dup5\n        /* \"#utility.yul\":9410:9432   */\n      eq\n        /* \"#utility.yul\":9390:9391   */\n      dup4\n        /* \"#utility.yul\":9383:9392   */\n      iszero\n        /* \"#utility.yul\":9363:9446   */\n      or\n        /* \"#utility.yul\":9340:9479   */\n      tag_232\n      jumpi\n        /* \"#utility.yul\":9459:9477   */\n      tag_233\n      tag_126\n      jump\t// in\n    tag_233:\n        /* \"#utility.yul\":9340:9479   */\n    tag_232:\n        /* \"#utility.yul\":9124:9486   */\n      pop\n        /* \"#utility.yul\":9076:9486   */\n      swap3\n      swap2\n      pop\n      pop\n      jump\t// out\n        /* \"#utility.yul\":9492:9672   */\n    tag_133:\n        /* \"#utility.yul\":9540:9617   */\n      0x4e487b7100000000000000000000000000000000000000000000000000000000\n        /* \"#utility.yul\":9537:9538   */\n      0x00\n        /* \"#utility.yul\":9530:9618   */\n      mstore\n        /* \"#utility.yul\":9637:9641   */\n      0x12\n        /* \"#utility.yul\":9634:9635   */\n      0x04\n        /* \"#utility.yul\":9627:9642   */\n      mstore\n        /* \"#utility.yul\":9661:9665   */\n      0x24\n        /* \"#utility.yul\":9658:9659   */\n      0x00\n        /* \"#utility.yul\":9651:9666   */\n      revert\n        /* \"#utility.yul\":9678:9863   */\n    tag_95:\n        /* \"#utility.yul\":9718:9719   */\n      0x00\n        /* \"#utility.yul\":9735:9755   */\n      tag_236\n        /* \"#utility.yul\":9753:9754   */\n      dup3\n        /* \"#utility.yul\":9735:9755   */\n      tag_112\n      jump\t// in\n    tag_236:\n        /* \"#utility.yul\":9730:9755   */\n      swap2\n      pop\n        /* \"#utility.yul\":9769:9789   */\n      tag_237\n        /* \"#utility.yul\":9787:9788   */\n      dup4\n        /* \"#utility.yul\":9769:9789   */\n      tag_112\n      jump\t// in\n    tag_237:\n        /* \"#utility.yul\":9764:9789   */\n      swap3\n      pop\n        /* \"#utility.yul\":9808:9809   */\n      dup3\n        /* \"#utility.yul\":9798:9833   */\n      tag_238\n      jumpi\n        /* \"#utility.yul\":9813:9831   */\n      tag_239\n      tag_133\n      jump\t// in\n    tag_239:\n        /* \"#utility.yul\":9798:9833   */\n    tag_238:\n        /* \"#utility.yul\":9855:9856   */\n      dup3\n        /* \"#utility.yul\":9852:9853   */\n      dup3\n        /* \"#utility.yul\":9848:9857   */\n      div\n        /* \"#utility.yul\":9843:9857   */\n      swap1\n      pop\n        /* \"#utility.yul\":9678:9863   */\n      swap3\n      swap2\n      pop\n      pop\n      jump\t// out\n        /* \"#utility.yul\":9869:10034   */\n    tag_134:\n        /* \"#utility.yul\":10009:10026   */\n      0x4e6f20616374697665206c656173650000000000000000000000000000000000\n        /* \"#utility.yul\":10005:10006   */\n      0x00\n        /* \"#utility.yul\":9997:10003   */\n      dup3\n        /* \"#utility.yul\":9993:10007   */\n      add\n        /* \"#utility.yul\":9986:10027   */\n      mstore\n        /* \"#utility.yul\":9869:10034   */\n      pop\n      jump\t// out\n        /* \"#utility.yul\":10040:10406   */\n    tag_135:\n        /* \"#utility.yul\":10182:10185   */\n      0x00\n        /* \"#utility.yul\":10203:10270   */\n      tag_242\n        /* \"#utility.yul\":10267:10269   */\n      0x0f\n        /* \"#utility.yul\":10262:10265   */\n      dup4\n        /* \"#utility.yul\":10203:10270   */\n      tag_123\n      jump\t// in\n    tag_242:\n        /* \"#utility.yul\":10196:10270   */\n      swap2\n      pop\n        /* \"#utility.yul\":10279:10372   */\n      tag_243\n        /* \"#utility.yul\":10368:10371   */\n      dup3\n        /* \"#utility.yul\":10279:10372   */\n      tag_134\n      jump\t// in\n    tag_243:\n        /* \"#utility.yul\":10397:10399   */\n      0x20\n        /* \"#utility.yul\":10392:10395   */\n      dup3\n        /* \"#utility.yul\":10388:10400   */\n      add\n        /* \"#utility.yul\":10381:10400   */\n      swap1\n      pop\n        /* \"#utility.yul\":10040:10406   */\n      swap2\n      swap1\n      pop\n      jump\t// out\n        /* \"#utility.yul\":10412:10831   */\n    tag_99:\n        /* \"#utility.yul\":10578:10582   */\n      0x00\n        /* \"#utility.yul\":10616:10618   */\n      0x20\n        /* \"#utility.yul\":10605:10614   */\n      dup3\n        /* \"#utility.yul\":10601:10619   */\n      add\n        /* \"#utility.yul\":10593:10619   */\n      swap1\n      pop\n        /* \"#utility.yul\":10665:10674   */\n      dup2\n        /* \"#utility.yul\":10659:10663   */\n      dup2\n        /* \"#utility.yul\":10655:10675   */\n      sub\n        /* \"#utility.yul\":10651:10652   */\n      0x00\n        /* \"#utility.yul\":10640:10649   */\n      dup4\n        /* \"#utility.yul\":10636:10653   */\n      add\n        /* \"#utility.yul\":10629:10676   */\n      mstore\n        /* \"#utility.yul\":10693:10824   */\n      tag_245\n        /* \"#utility.yul\":10819:10823   */\n      dup2\n        /* \"#utility.yul\":10693:10824   */\n      tag_135\n      jump\t// in\n    tag_245:\n        /* \"#utility.yul\":10685:10824   */\n      swap1\n      pop\n        /* \"#utility.yul\":10412:10831   */\n      swap2\n      swap1\n      pop\n      jump\t// out\n        /* \"#utility.yul\":10837:11015   */\n    tag_136:\n        /* \"#utility.yul\":10977:11007   */\n      0x4c6561736520706572696f64206e6f7420796574206578706972656400000000\n        /* \"#utility.yul\":10973:10974   */\n      0x00\n        /* \"#utility.yul\":10965:10971   */\n      dup3\n        /* \"#utility.yul\":10961:10975   */\n      add\n        /* \"#utility.yul\":10954:11008   */\n      mstore\n        /* \"#utility.yul\":10837:11015   */\n      pop\n      jump\t// out\n        /* \"#utility.yul\":11021:11387   */\n    tag_137:\n        /* \"#utility.yul\":11163:11166   */\n      0x00\n        /* \"#utility.yul\":11184:11251   */\n      tag_248\n        /* \"#utility.yul\":11248:11250   */\n      0x1c\n        /* \"#utility.yul\":11243:11246   */\n      dup4\n        /* \"#utility.yul\":11184:11251   */\n      tag_123\n      jump\t// in\n    tag_248:\n        /* \"#utility.yul\":11177:11251   */\n      swap2\n      pop\n        /* \"#utility.yul\":11260:11353   */\n      tag_249\n        /* \"#utility.yul\":11349:11352   */\n      dup3\n        /* \"#utility.yul\":11260:11353   */\n      tag_136\n      jump\t// in\n    tag_249:\n        /* \"#utility.yul\":11378:11380   */\n      0x20\n        /* \"#utility.yul\":11373:11376   */\n      dup3\n        /* \"#utility.yul\":11369:11381   */\n      add\n        /* \"#utility.yul\":11362:11381   */\n      swap1\n      pop\n        /* \"#utility.yul\":11021:11387   */\n      swap2\n      swap1\n      pop\n      jump\t// out\n        /* \"#utility.yul\":11393:11812   */\n    tag_103:\n        /* \"#utility.yul\":11559:11563   */\n      0x00\n        /* \"#utility.yul\":11597:11599   */\n      0x20\n        /* \"#utility.yul\":11586:11595   */\n      dup3\n        /* \"#utility.yul\":11582:11600   */\n      add\n        /* \"#utility.yul\":11574:11600   */\n      swap1\n      pop\n        /* \"#utility.yul\":11646:11655   */\n      dup2\n        /* \"#utility.yul\":11640:11644   */\n      dup2\n        /* \"#utility.yul\":11636:11656   */\n      sub\n        /* \"#utility.yul\":11632:11633   */\n      0x00\n        /* \"#utility.yul\":11621:11630   */\n      dup4\n        /* \"#utility.yul\":11617:11634   */\n      add\n        /* \"#utility.yul\":11610:11657   */\n      mstore\n        /* \"#utility.yul\":11674:11805   */\n      tag_251\n        /* \"#utility.yul\":11800:11804   */\n      dup2\n        /* \"#utility.yul\":11674:11805   */\n      tag_137\n      jump\t// in\n    tag_251:\n        /* \"#utility.yul\":11666:11805   */\n      swap1\n      pop\n        /* \"#utility.yul\":11393:11812   */\n      swap2\n      swap1\n      pop\n      jump\t// out\n        /* \"#utility.yul\":11818:11992   */\n    tag_138:\n        /* \"#utility.yul\":11958:11984   */\n      0x417373657420616c726561647920726567697374657265640000000000000000\n        /* \"#utility.yul\":11954:11955   */\n      0x00\n        /* \"#utility.yul\":11946:11952   */\n      dup3\n        /* \"#utility.yul\":11942:11956   */\n      add\n        /* \"#utility.yul\":11935:11985   */\n      mstore\n        /* \"#utility.yul\":11818:11992   */\n      pop\n      jump\t// out\n        /* \"#utility.yul\":11998:12364   */\n    tag_139:\n        /* \"#utility.yul\":12140:12143   */\n      0x00\n        /* \"#utility.yul\":12161:12228   */\n      tag_254\n        /* \"#utility.yul\":12225:12227   */\n      0x18\n        /* \"#utility.yul\":12220:12223   */\n      dup4\n        /* \"#utility.yul\":12161:12228   */\n      tag_123\n      jump\t// in\n    tag_254:\n        /* \"#utility.yul\":12154:12228   */\n      swap2\n      pop\n        /* \"#utility.yul\":12237:12330   */\n      tag_255\n        /* \"#utility.yul\":12326:12329   */\n      dup3\n        /* \"#utility.yul\":12237:12330   */\n      tag_138\n      jump\t// in\n    tag_255:\n        /* \"#utility.yul\":12355:12357   */\n      0x20\n        /* \"#utility.yul\":12350:12353   */\n      dup3\n        /* \"#utility.yul\":12346:12358   */\n      add\n        /* \"#utility.yul\":12339:12358   */\n      swap1\n      pop\n        /* \"#utility.yul\":11998:12364   */\n      swap2\n      swap1\n      pop\n      jump\t// out\n        /* \"#utility.yul\":12370:12789   */\n    tag_107:\n        /* \"#utility.yul\":12536:12540   */\n      0x00\n        /* \"#utility.yul\":12574:12576   */\n      0x20\n        /* \"#utility.yul\":12563:12572   */\n      dup3\n        /* \"#utility.yul\":12559:12577   */\n      add\n        /* \"#utility.yul\":12551:12577   */\n      swap1\n      pop\n        /* \"#utility.yul\":12623:12632   */\n      dup2\n        /* \"#utility.yul\":12617:12621   */\n      dup2\n        /* \"#utility.yul\":12613:12633   */\n      sub\n        /* \"#utility.yul\":12609:12610   */\n      0x00\n        /* \"#utility.yul\":12598:12607   */\n      dup4\n        /* \"#utility.yul\":12594:12611   */\n      add\n        /* \"#utility.yul\":12587:12634   */\n      mstore\n        /* \"#utility.yul\":12651:12782   */\n      tag_257\n        /* \"#utility.yul\":12777:12781   */\n      dup2\n        /* \"#utility.yul\":12651:12782   */\n      tag_139\n      jump\t// in\n    tag_257:\n        /* \"#utility.yul\":12643:12782   */\n      swap1\n      pop\n        /* \"#utility.yul\":12370:12789   */\n      swap2\n      swap1\n      pop\n      jump\t// out\n\n    auxdata: 0xa264697066735822122045f4c8a340fe17367c0ab7dc155e27573c5d0f1f6370ac89f22d7a6f210948f164736f6c634300081a0033\n}\n",
				"bytecode": {
					"linkReferences": {},
					"object": "6080604052611145806100115f395ff3fe608060405260043610610089575f3560e01c80638927a106116100585780638927a1061461012a57806391ef935c14610169578063cf35bdd014610191578063f3f43703146101ce578063f8a54c4a1461020a57610090565b806320dd918b146100925780633ccfd60b146100ae5780634df86126146100c457806387ae9ef9146100ee57610090565b3661009057005b005b6100ac60048036038101906100a79190610af2565b610232565b005b3480156100b9575f80fd5b506100c2610567565b005b3480156100cf575f80fd5b506100d8610673565b6040516100e59190610b3f565b60405180910390f35b3480156100f9575f80fd5b50610114600480360381019061010f9190610af2565b610679565b6040516101219190610b3f565b60405180910390f35b348015610135575f80fd5b50610150600480360381019061014b9190610b58565b61078d565b6040516101609493929190610bdc565b60405180910390f35b348015610174575f80fd5b5061018f600480360381019061018a9190610b58565b6107e4565b005b34801561019c575f80fd5b506101b760048036038101906101b29190610b58565b6108ea565b6040516101c5929190610c1f565b60405180910390f35b3480156101d9575f80fd5b506101f460048036038101906101ef9190610c70565b610928565b6040516102019190610b3f565b60405180910390f35b348015610215575f80fd5b50610230600480360381019061022b9190610af2565b61093d565b005b5f805f8481526020019081526020015f206040518060400160405290815f82015f9054906101000a900473ffffffffffffffffffffffffffffffffffffffff1673ffffffffffffffffffffffffffffffffffffffff1673ffffffffffffffffffffffffffffffffffffffff16815260200160018201548152505090505f73ffffffffffffffffffffffffffffffffffffffff16815f015173ffffffffffffffffffffffffffffffffffffffff160361031f576040517f08c379a000000000000000000000000000000000000000000000000000000000815260040161031690610cf5565b60405180910390fd5b5f60015f8581526020019081526020015f209050806003015f9054906101000a900460ff16156103a0578060020154816001015461035d9190610d40565b42101561039f576040517f08c379a000000000000000000000000000000000000000000000000000000000815260040161039690610dbd565b60405180910390fd5b5b5f6103ab8585610679565b9050803410156103f0576040517f08c379a00000000000000000000000000000000000000000000000000000000081526004016103e790610e4b565b60405180910390fd5b33825f015f6101000a81548173ffffffffffffffffffffffffffffffffffffffff021916908373ffffffffffffffffffffffffffffffffffffffff1602179055504282600101819055508382600201819055506001826003015f6101000a81548160ff0219169083151502179055508060025f855f015173ffffffffffffffffffffffffffffffffffffffff1673ffffffffffffffffffffffffffffffffffffffff1681526020019081526020015f205f8282546104ae9190610d40565b925050819055503373ffffffffffffffffffffffffffffffffffffffff16857f3b6acd6a3dc7892bb2db5cc1be12c0e26f42f4664a0064e4c4d24d7ba6a67fb242878560405161050093929190610e69565b60405180910390a380341115610560573373ffffffffffffffffffffffffffffffffffffffff166108fc82346105369190610e9e565b90811502906040515f60405180830381858888f1935050505015801561055e573d5f803e3d5ffd5b505b5050505050565b5f60025f3373ffffffffffffffffffffffffffffffffffffffff1673ffffffffffffffffffffffffffffffffffffffff1681526020019081526020015f205490505f81116105ea576040517f08c379a00000000000000000000000000000000000000000000000000000000081526004016105e190610f1b565b60405180910390fd5b5f60025f3373ffffffffffffffffffffffffffffffffffffffff1673ffffffffffffffffffffffffffffffffffffffff1681526020019081526020015f20819055503373ffffffffffffffffffffffffffffffffffffffff166108fc8290811502906040515f60405180830381858888f1935050505015801561066f573d5f803e3d5ffd5b5050565b610e1081565b5f805f808581526020019081526020015f206040518060400160405290815f82015f9054906101000a900473ffffffffffffffffffffffffffffffffffffffff1673ffffffffffffffffffffffffffffffffffffffff1673ffffffffffffffffffffffffffffffffffffffff16815260200160018201548152505090505f73ffffffffffffffffffffffffffffffffffffffff16815f015173ffffffffffffffffffffffffffffffffffffffff1603610767576040517f08c379a000000000000000000000000000000000000000000000000000000000815260040161075e90610cf5565b60405180910390fd5b610e1083826020015161077a9190610f39565b6107849190610fa7565b91505092915050565b6001602052805f5260405f205f91509050805f015f9054906101000a900473ffffffffffffffffffffffffffffffffffffffff1690806001015490806002015490806003015f9054906101000a900460ff16905084565b5f60015f8381526020019081526020015f209050806003015f9054906101000a900460ff16610848576040517f08c379a000000000000000000000000000000000000000000000000000000000815260040161083f90611021565b60405180910390fd5b8060020154816001015461085c9190610d40565b42101561089e576040517f08c379a000000000000000000000000000000000000000000000000000000000815260040161089590611089565b60405180910390fd5b5f816003015f6101000a81548160ff021916908315150217905550817f9bbc71338da3ea3da7477f5960427aa0fe6e98aeced78a369dd1b4357a50b9f160405160405180910390a25050565b5f602052805f5260405f205f91509050805f015f9054906101000a900473ffffffffffffffffffffffffffffffffffffffff16908060010154905082565b6002602052805f5260405f205f915090505481565b5f73ffffffffffffffffffffffffffffffffffffffff165f808481526020019081526020015f205f015f9054906101000a900473ffffffffffffffffffffffffffffffffffffffff1673ffffffffffffffffffffffffffffffffffffffff16146109dc576040517f08c379a00000000000000000000000000000000000000000000000000000000081526004016109d3906110f1565b60405180910390fd5b60405180604001604052803373ffffffffffffffffffffffffffffffffffffffff168152602001828152505f808481526020019081526020015f205f820151815f015f6101000a81548173ffffffffffffffffffffffffffffffffffffffff021916908373ffffffffffffffffffffffffffffffffffffffff160217905550602082015181600101559050503373ffffffffffffffffffffffffffffffffffffffff16827fac3dcdc20bb35a0f2b39fb2ddbe12a30d20c4795d2026bf2fc48df3ce84ca67d83604051610aaf9190610b3f565b60405180910390a35050565b5f80fd5b5f819050919050565b610ad181610abf565b8114610adb575f80fd5b50565b5f81359050610aec81610ac8565b92915050565b5f8060408385031215610b0857610b07610abb565b5b5f610b1585828601610ade565b9250506020610b2685828601610ade565b9150509250929050565b610b3981610abf565b82525050565b5f602082019050610b525f830184610b30565b92915050565b5f60208284031215610b6d57610b6c610abb565b5b5f610b7a84828501610ade565b91505092915050565b5f73ffffffffffffffffffffffffffffffffffffffff82169050919050565b5f610bac82610b83565b9050919050565b610bbc81610ba2565b82525050565b5f8115159050919050565b610bd681610bc2565b82525050565b5f608082019050610bef5f830187610bb3565b610bfc6020830186610b30565b610c096040830185610b30565b610c166060830184610bcd565b95945050505050565b5f604082019050610c325f830185610bb3565b610c3f6020830184610b30565b9392505050565b610c4f81610ba2565b8114610c59575f80fd5b50565b5f81359050610c6a81610c46565b92915050565b5f60208284031215610c8557610c84610abb565b5b5f610c9284828501610c5c565b91505092915050565b5f82825260208201905092915050565b7f4173736574206e6f7420726567697374657265640000000000000000000000005f82015250565b5f610cdf601483610c9b565b9150610cea82610cab565b602082019050919050565b5f6020820190508181035f830152610d0c81610cd3565b9050919050565b7f4e487b71000000000000000000000000000000000000000000000000000000005f52601160045260245ffd5b5f610d4a82610abf565b9150610d5583610abf565b9250828201905080821115610d6d57610d6c610d13565b5b92915050565b7f41737365742069732063757272656e746c79206c6561736564000000000000005f82015250565b5f610da7601983610c9b565b9150610db282610d73565b602082019050919050565b5f6020820190508181035f830152610dd481610d9b565b9050919050565b7f496e73756666696369656e74207061796d656e7420666f72206c6561736520645f8201527f75726174696f6e00000000000000000000000000000000000000000000000000602082015250565b5f610e35602783610c9b565b9150610e4082610ddb565b604082019050919050565b5f6020820190508181035f830152610e6281610e29565b9050919050565b5f606082019050610e7c5f830186610b30565b610e896020830185610b30565b610e966040830184610b30565b949350505050565b5f610ea882610abf565b9150610eb383610abf565b9250828203905081811115610ecb57610eca610d13565b5b92915050565b7f4e6f2066756e647320617661696c61626c6500000000000000000000000000005f82015250565b5f610f05601283610c9b565b9150610f1082610ed1565b602082019050919050565b5f6020820190508181035f830152610f3281610ef9565b9050919050565b5f610f4382610abf565b9150610f4e83610abf565b9250828202610f5c81610abf565b91508282048414831517610f7357610f72610d13565b5b5092915050565b7f4e487b71000000000000000000000000000000000000000000000000000000005f52601260045260245ffd5b5f610fb182610abf565b9150610fbc83610abf565b925082610fcc57610fcb610f7a565b5b828204905092915050565b7f4e6f20616374697665206c6561736500000000000000000000000000000000005f82015250565b5f61100b600f83610c9b565b915061101682610fd7565b602082019050919050565b5f6020820190508181035f83015261103881610fff565b9050919050565b7f4c6561736520706572696f64206e6f74207965742065787069726564000000005f82015250565b5f611073601c83610c9b565b915061107e8261103f565b602082019050919050565b5f6020820190508181035f8301526110a081611067565b9050919050565b7f417373657420616c7265616479207265676973746572656400000000000000005f82015250565b5f6110db601883610c9b565b91506110e6826110a7565b602082019050919050565b5f6020820190508181035f830152611108816110cf565b905091905056fea264697066735822122045f4c8a340fe17367c0ab7dc155e27573c5d0f1f6370ac89f22d7a6f210948f164736f6c634300081a0033",
					"opcodes": "PUSH1 0x80 PUSH1 0x40 MSTORE PUSH2 0x1145 DUP1 PUSH2 0x11 PUSH0 CODECOPY PUSH0 RETURN INVALID PUSH1 0x80 PUSH1 0x40 MSTORE PUSH1 0x4 CALLDATASIZE LT PUSH2 0x89 JUMPI PUSH0 CALLDATALOAD PUSH1 0xE0 SHR DUP1 PUSH4 0x8927A106 GT PUSH2 0x58 JUMPI DUP1 PUSH4 0x8927A106 EQ PUSH2 0x12A JUMPI DUP1 PUSH4 0x91EF935C EQ PUSH2 0x169 JUMPI DUP1 PUSH4 0xCF35BDD0 EQ PUSH2 0x191 JUMPI DUP1 PUSH4 0xF3F43703 EQ PUSH2 0x1CE JUMPI DUP1 PUSH4 0xF8A54C4A EQ PUSH2 0x20A JUMPI PUSH2 0x90 JUMP JUMPDEST DUP1 PUSH4 0x20DD918B EQ PUSH2 0x92 JUMPI DUP1 PUSH4 0x3CCFD60B EQ PUSH2 0xAE JUMPI DUP1 PUSH4 0x4DF86126 EQ PUSH2 0xC4 JUMPI DUP1 PUSH4 0x87AE9EF9 EQ PUSH2 0xEE JUMPI PUSH2 0x90 JUMP JUMPDEST CALLDATASIZE PUSH2 0x90 JUMPI STOP JUMPDEST STOP JUMPDEST PUSH2 0xAC PUSH1 0x4 DUP1 CALLDATASIZE SUB DUP2 ADD SWAP1 PUSH2 0xA7 SWAP2 SWAP1 PUSH2 0xAF2 JUMP JUMPDEST PUSH2 0x232 JUMP JUMPDEST STOP JUMPDEST CALLVALUE DUP1 ISZERO PUSH2 0xB9 JUMPI PUSH0 DUP1 REVERT JUMPDEST POP PUSH2 0xC2 PUSH2 0x567 JUMP JUMPDEST STOP JUMPDEST CALLVALUE DUP1 ISZERO PUSH2 0xCF JUMPI PUSH0 DUP1 REVERT JUMPDEST POP PUSH2 0xD8 PUSH2 0x673 JUMP JUMPDEST PUSH1 0x40 MLOAD PUSH2 0xE5 SWAP2 SWAP1 PUSH2 0xB3F JUMP JUMPDEST PUSH1 0x40 MLOAD DUP1 SWAP2 SUB SWAP1 RETURN JUMPDEST CALLVALUE DUP1 ISZERO PUSH2 0xF9 JUMPI PUSH0 DUP1 REVERT JUMPDEST POP PUSH2 0x114 PUSH1 0x4 DUP1 CALLDATASIZE SUB DUP2 ADD SWAP1 PUSH2 0x10F SWAP2 SWAP1 PUSH2 0xAF2 JUMP JUMPDEST PUSH2 0x679 JUMP JUMPDEST PUSH1 0x40 MLOAD PUSH2 0x121 SWAP2 SWAP1 PUSH2 0xB3F JUMP JUMPDEST PUSH1 0x40 MLOAD DUP1 SWAP2 SUB SWAP1 RETURN JUMPDEST CALLVALUE DUP1 ISZERO PUSH2 0x135 JUMPI PUSH0 DUP1 REVERT JUMPDEST POP PUSH2 0x150 PUSH1 0x4 DUP1 CALLDATASIZE SUB DUP2 ADD SWAP1 PUSH2 0x14B SWAP2 SWAP1 PUSH2 0xB58 JUMP JUMPDEST PUSH2 0x78D JUMP JUMPDEST PUSH1 0x40 MLOAD PUSH2 0x160 SWAP5 SWAP4 SWAP3 SWAP2 SWAP1 PUSH2 0xBDC JUMP JUMPDEST PUSH1 0x40 MLOAD DUP1 SWAP2 SUB SWAP1 RETURN JUMPDEST CALLVALUE DUP1 ISZERO PUSH2 0x174 JUMPI PUSH0 DUP1 REVERT JUMPDEST POP PUSH2 0x18F PUSH1 0x4 DUP1 CALLDATASIZE SUB DUP2 ADD SWAP1 PUSH2 0x18A SWAP2 SWAP1 PUSH2 0xB58 JUMP JUMPDEST PUSH2 0x7E4 JUMP JUMPDEST STOP JUMPDEST CALLVALUE DUP1 ISZERO PUSH2 0x19C JUMPI PUSH0 DUP1 REVERT JUMPDEST POP PUSH2 0x1B7 PUSH1 0x4 DUP1 CALLDATASIZE SUB DUP2 ADD SWAP1 PUSH2 0x1B2 SWAP2 SWAP1 PUSH2 0xB58 JUMP JUMPDEST PUSH2 0x8EA JUMP JUMPDEST PUSH1 0x40 MLOAD PUSH2 0x1C5 SWAP3 SWAP2 SWAP1 PUSH2 0xC1F JUMP JUMPDEST PUSH1 0x40 MLOAD DUP1 SWAP2 SUB SWAP1 RETURN JUMPDEST CALLVALUE DUP1 ISZERO PUSH2 0x1D9 JUMPI PUSH0 DUP1 REVERT JUMPDEST POP PUSH2 0x1F4 PUSH1 0x4 DUP1 CALLDATASIZE SUB DUP2 ADD SWAP1 PUSH2 0x1EF SWAP2 SWAP1 PUSH2 0xC70 JUMP JUMPDEST PUSH2 0x928 JUMP JUMPDEST PUSH1 0x40 MLOAD PUSH2 0x201 SWAP2 SWAP1 PUSH2 0xB3F JUMP JUMPDEST PUSH1 0x40 MLOAD DUP1 SWAP2 SUB SWAP1 RETURN JUMPDEST CALLVALUE DUP1 ISZERO PUSH2 0x215 JUMPI PUSH0 DUP1 REVERT JUMPDEST POP PUSH2 0x230 PUSH1 0x4 DUP1 CALLDATASIZE SUB DUP2 ADD SWAP1 PUSH2 0x22B SWAP2 SWAP1 PUSH2 0xAF2 JUMP JUMPDEST PUSH2 0x93D JUMP JUMPDEST STOP JUMPDEST PUSH0 DUP1 PUSH0 DUP5 DUP2 MSTORE PUSH1 0x20 ADD SWAP1 DUP2 MSTORE PUSH1 0x20 ADD PUSH0 KECCAK256 PUSH1 0x40 MLOAD DUP1 PUSH1 0x40 ADD PUSH1 0x40 MSTORE SWAP1 DUP2 PUSH0 DUP3 ADD PUSH0 SWAP1 SLOAD SWAP1 PUSH2 0x100 EXP SWAP1 DIV PUSH20 0xFFFFFFFFFFFFFFFFFFFFFFFFFFFFFFFFFFFFFFFF AND PUSH20 0xFFFFFFFFFFFFFFFFFFFFFFFFFFFFFFFFFFFFFFFF AND PUSH20 0xFFFFFFFFFFFFFFFFFFFFFFFFFFFFFFFFFFFFFFFF AND DUP2 MSTORE PUSH1 0x20 ADD PUSH1 0x1 DUP3 ADD SLOAD DUP2 MSTORE POP POP SWAP1 POP PUSH0 PUSH20 0xFFFFFFFFFFFFFFFFFFFFFFFFFFFFFFFFFFFFFFFF AND DUP2 PUSH0 ADD MLOAD PUSH20 0xFFFFFFFFFFFFFFFFFFFFFFFFFFFFFFFFFFFFFFFF AND SUB PUSH2 0x31F JUMPI PUSH1 0x40 MLOAD PUSH32 0x8C379A000000000000000000000000000000000000000000000000000000000 DUP2 MSTORE PUSH1 0x4 ADD PUSH2 0x316 SWAP1 PUSH2 0xCF5 JUMP JUMPDEST PUSH1 0x40 MLOAD DUP1 SWAP2 SUB SWAP1 REVERT JUMPDEST PUSH0 PUSH1 0x1 PUSH0 DUP6 DUP2 MSTORE PUSH1 0x20 ADD SWAP1 DUP2 MSTORE PUSH1 0x20 ADD PUSH0 KECCAK256 SWAP1 POP DUP1 PUSH1 0x3 ADD PUSH0 SWAP1 SLOAD SWAP1 PUSH2 0x100 EXP SWAP1 DIV PUSH1 0xFF AND ISZERO PUSH2 0x3A0 JUMPI DUP1 PUSH1 0x2 ADD SLOAD DUP2 PUSH1 0x1 ADD SLOAD PUSH2 0x35D SWAP2 SWAP1 PUSH2 0xD40 JUMP JUMPDEST TIMESTAMP LT ISZERO PUSH2 0x39F JUMPI PUSH1 0x40 MLOAD PUSH32 0x8C379A000000000000000000000000000000000000000000000000000000000 DUP2 MSTORE PUSH1 0x4 ADD PUSH2 0x396 SWAP1 PUSH2 0xDBD JUMP JUMPDEST PUSH1 0x40 MLOAD DUP1 SWAP2 SUB SWAP1 REVERT JUMPDEST JUMPDEST PUSH0 PUSH2 0x3AB DUP6 DUP6 PUSH2 0x679 JUMP JUMPDEST SWAP1 POP DUP1 CALLVALUE LT ISZERO PUSH2 0x3F0 JUMPI PUSH1 0x40 MLOAD PUSH32 0x8C379A000000000000000000000000000000000000000000000000000000000 DUP2 MSTORE PUSH1 0x4 ADD PUSH2 0x3E7 SWAP1 PUSH2 0xE4B JUMP JUMPDEST PUSH1 0x40 MLOAD DUP1 SWAP2 SUB SWAP1 REVERT JUMPDEST CALLER DUP3 PUSH0 ADD PUSH0 PUSH2 0x100 EXP DUP2 SLOAD DUP2 PUSH20 0xFFFFFFFFFFFFFFFFFFFFFFFFFFFFFFFFFFFFFFFF MUL NOT AND SWAP1 DUP4 PUSH20 0xFFFFFFFFFFFFFFFFFFFFFFFFFFFFFFFFFFFFFFFF AND MUL OR SWAP1 SSTORE POP TIMESTAMP DUP3 PUSH1 0x1 ADD DUP2 SWAP1 SSTORE POP DUP4 DUP3 PUSH1 0x2 ADD DUP2 SWAP1 SSTORE POP PUSH1 0x1 DUP3 PUSH1 0x3 ADD PUSH0 PUSH2 0x100 EXP DUP2 SLOAD DUP2 PUSH1 0xFF MUL NOT AND SWAP1 DUP4 ISZERO ISZERO MUL OR SWAP1 SSTORE POP DUP1 PUSH1 0x2 PUSH0 DUP6 PUSH0 ADD MLOAD PUSH20 0xFFFFFFFFFFFFFFFFFFFFFFFFFFFFFFFFFFFFFFFF AND PUSH20 0xFFFFFFFFFFFFFFFFFFFFFFFFFFFFFFFFFFFFFFFF AND DUP2 MSTORE PUSH1 0x20 ADD SWAP1 DUP2 MSTORE PUSH1 0x20 ADD PUSH0 KECCAK256 PUSH0 DUP3 DUP3 SLOAD PUSH2 0x4AE SWAP2 SWAP1 PUSH2 0xD40 JUMP JUMPDEST SWAP3 POP POP DUP2 SWAP1 SSTORE POP CALLER PUSH20 0xFFFFFFFFFFFFFFFFFFFFFFFFFFFFFFFFFFFFFFFF AND DUP6 PUSH32 0x3B6ACD6A3DC7892BB2DB5CC1BE12C0E26F42F4664A0064E4C4D24D7BA6A67FB2 TIMESTAMP DUP8 DUP6 PUSH1 0x40 MLOAD PUSH2 0x500 SWAP4 SWAP3 SWAP2 SWAP1 PUSH2 0xE69 JUMP JUMPDEST PUSH1 0x40 MLOAD DUP1 SWAP2 SUB SWAP1 LOG3 DUP1 CALLVALUE GT ISZERO PUSH2 0x560 JUMPI CALLER PUSH20 0xFFFFFFFFFFFFFFFFFFFFFFFFFFFFFFFFFFFFFFFF AND PUSH2 0x8FC DUP3 CALLVALUE PUSH2 0x536 SWAP2 SWAP1 PUSH2 0xE9E JUMP JUMPDEST SWAP1 DUP2 ISZERO MUL SWAP1 PUSH1 0x40 MLOAD PUSH0 PUSH1 0x40 MLOAD DUP1 DUP4 SUB DUP2 DUP6 DUP9 DUP9 CALL SWAP4 POP POP POP POP ISZERO DUP1 ISZERO PUSH2 0x55E JUMPI RETURNDATASIZE PUSH0 DUP1 RETURNDATACOPY RETURNDATASIZE PUSH0 REVERT JUMPDEST POP JUMPDEST POP POP POP POP POP JUMP JUMPDEST PUSH0 PUSH1 0x2 PUSH0 CALLER PUSH20 0xFFFFFFFFFFFFFFFFFFFFFFFFFFFFFFFFFFFFFFFF AND PUSH20 0xFFFFFFFFFFFFFFFFFFFFFFFFFFFFFFFFFFFFFFFF AND DUP2 MSTORE PUSH1 0x20 ADD SWAP1 DUP2 MSTORE PUSH1 0x20 ADD PUSH0 KECCAK256 SLOAD SWAP1 POP PUSH0 DUP2 GT PUSH2 0x5EA JUMPI PUSH1 0x40 MLOAD PUSH32 0x8C379A000000000000000000000000000000000000000000000000000000000 DUP2 MSTORE PUSH1 0x4 ADD PUSH2 0x5E1 SWAP1 PUSH2 0xF1B JUMP JUMPDEST PUSH1 0x40 MLOAD DUP1 SWAP2 SUB SWAP1 REVERT JUMPDEST PUSH0 PUSH1 0x2 PUSH0 CALLER PUSH20 0xFFFFFFFFFFFFFFFFFFFFFFFFFFFFFFFFFFFFFFFF AND PUSH20 0xFFFFFFFFFFFFFFFFFFFFFFFFFFFFFFFFFFFFFFFF AND DUP2 MSTORE PUSH1 0x20 ADD SWAP1 DUP2 MSTORE PUSH1 0x20 ADD PUSH0 KECCAK256 DUP2 SWAP1 SSTORE POP CALLER PUSH20 0xFFFFFFFFFFFFFFFFFFFFFFFFFFFFFFFFFFFFFFFF AND PUSH2 0x8FC DUP3 SWAP1 DUP2 ISZERO MUL SWAP1 PUSH1 0x40 MLOAD PUSH0 PUSH1 0x40 MLOAD DUP1 DUP4 SUB DUP2 DUP6 DUP9 DUP9 CALL SWAP4 POP POP POP POP ISZERO DUP1 ISZERO PUSH2 0x66F JUMPI RETURNDATASIZE PUSH0 DUP1 RETURNDATACOPY RETURNDATASIZE PUSH0 REVERT JUMPDEST POP POP JUMP JUMPDEST PUSH2 0xE10 DUP2 JUMP JUMPDEST PUSH0 DUP1 PUSH0 DUP1 DUP6 DUP2 MSTORE PUSH1 0x20 ADD SWAP1 DUP2 MSTORE PUSH1 0x20 ADD PUSH0 KECCAK256 PUSH1 0x40 MLOAD DUP1 PUSH1 0x40 ADD PUSH1 0x40 MSTORE SWAP1 DUP2 PUSH0 DUP3 ADD PUSH0 SWAP1 SLOAD SWAP1 PUSH2 0x100 EXP SWAP1 DIV PUSH20 0xFFFFFFFFFFFFFFFFFFFFFFFFFFFFFFFFFFFFFFFF AND PUSH20 0xFFFFFFFFFFFFFFFFFFFFFFFFFFFFFFFFFFFFFFFF AND PUSH20 0xFFFFFFFFFFFFFFFFFFFFFFFFFFFFFFFFFFFFFFFF AND DUP2 MSTORE PUSH1 0x20 ADD PUSH1 0x1 DUP3 ADD SLOAD DUP2 MSTORE POP POP SWAP1 POP PUSH0 PUSH20 0xFFFFFFFFFFFFFFFFFFFFFFFFFFFFFFFFFFFFFFFF AND DUP2 PUSH0 ADD MLOAD PUSH20 0xFFFFFFFFFFFFFFFFFFFFFFFFFFFFFFFFFFFFFFFF AND SUB PUSH2 0x767 JUMPI PUSH1 0x40 MLOAD PUSH32 0x8C379A000000000000000000000000000000000000000000000000000000000 DUP2 MSTORE PUSH1 0x4 ADD PUSH2 0x75E SWAP1 PUSH2 0xCF5 JUMP JUMPDEST PUSH1 0x40 MLOAD DUP1 SWAP2 SUB SWAP1 REVERT JUMPDEST PUSH2 0xE10 DUP4 DUP3 PUSH1 0x20 ADD MLOAD PUSH2 0x77A SWAP2 SWAP1 PUSH2 0xF39 JUMP JUMPDEST PUSH2 0x784 SWAP2 SWAP1 PUSH2 0xFA7 JUMP JUMPDEST SWAP2 POP POP SWAP3 SWAP2 POP POP JUMP JUMPDEST PUSH1 0x1 PUSH1 0x20 MSTORE DUP1 PUSH0 MSTORE PUSH1 0x40 PUSH0 KECCAK256 PUSH0 SWAP2 POP SWAP1 POP DUP1 PUSH0 ADD PUSH0 SWAP1 SLOAD SWAP1 PUSH2 0x100 EXP SWAP1 DIV PUSH20 0xFFFFFFFFFFFFFFFFFFFFFFFFFFFFFFFFFFFFFFFF AND SWAP1 DUP1 PUSH1 0x1 ADD SLOAD SWAP1 DUP1 PUSH1 0x2 ADD SLOAD SWAP1 DUP1 PUSH1 0x3 ADD PUSH0 SWAP1 SLOAD SWAP1 PUSH2 0x100 EXP SWAP1 DIV PUSH1 0xFF AND SWAP1 POP DUP5 JUMP JUMPDEST PUSH0 PUSH1 0x1 PUSH0 DUP4 DUP2 MSTORE PUSH1 0x20 ADD SWAP1 DUP2 MSTORE PUSH1 0x20 ADD PUSH0 KECCAK256 SWAP1 POP DUP1 PUSH1 0x3 ADD PUSH0 SWAP1 SLOAD SWAP1 PUSH2 0x100 EXP SWAP1 DIV PUSH1 0xFF AND PUSH2 0x848 JUMPI PUSH1 0x40 MLOAD PUSH32 0x8C379A000000000000000000000000000000000000000000000000000000000 DUP2 MSTORE PUSH1 0x4 ADD PUSH2 0x83F SWAP1 PUSH2 0x1021 JUMP JUMPDEST PUSH1 0x40 MLOAD DUP1 SWAP2 SUB SWAP1 REVERT JUMPDEST DUP1 PUSH1 0x2 ADD SLOAD DUP2 PUSH1 0x1 ADD SLOAD PUSH2 0x85C SWAP2 SWAP1 PUSH2 0xD40 JUMP JUMPDEST TIMESTAMP LT ISZERO PUSH2 0x89E JUMPI PUSH1 0x40 MLOAD PUSH32 0x8C379A000000000000000000000000000000000000000000000000000000000 DUP2 MSTORE PUSH1 0x4 ADD PUSH2 0x895 SWAP1 PUSH2 0x1089 JUMP JUMPDEST PUSH1 0x40 MLOAD DUP1 SWAP2 SUB SWAP1 REVERT JUMPDEST PUSH0 DUP2 PUSH1 0x3 ADD PUSH0 PUSH2 0x100 EXP DUP2 SLOAD DUP2 PUSH1 0xFF MUL NOT AND SWAP1 DUP4 ISZERO ISZERO MUL OR SWAP1 SSTORE POP DUP2 PUSH32 0x9BBC71338DA3EA3DA7477F5960427AA0FE6E98AECED78A369DD1B4357A50B9F1 PUSH1 0x40 MLOAD PUSH1 0x40 MLOAD DUP1 SWAP2 SUB SWAP1 LOG2 POP POP JUMP JUMPDEST PUSH0 PUSH1 0x20 MSTORE DUP1 PUSH0 MSTORE PUSH1 0x40 PUSH0 KECCAK256 PUSH0 SWAP2 POP SWAP1 POP DUP1 PUSH0 ADD PUSH0 SWAP1 SLOAD SWAP1 PUSH2 0x100 EXP SWAP1 DIV PUSH20 0xFFFFFFFFFFFFFFFFFFFFFFFFFFFFFFFFFFFFFFFF AND SWAP1 DUP1 PUSH1 0x1 ADD SLOAD SWAP1 POP DUP3 JUMP JUMPDEST PUSH1 0x2 PUSH1 0x20 MSTORE DUP1 PUSH0 MSTORE PUSH1 0x40 PUSH0 KECCAK256 PUSH0 SWAP2 POP SWAP1 POP SLOAD DUP2 JUMP JUMPDEST PUSH0 PUSH20 0xFFFFFFFFFFFFFFFFFFFFFFFFFFFFFFFFFFFFFFFF AND PUSH0 DUP1 DUP5 DUP2 MSTORE PUSH1 0x20 ADD SWAP1 DUP2 MSTORE PUSH1 0x20 ADD PUSH0 KECCAK256 PUSH0 ADD PUSH0 SWAP1 SLOAD SWAP1 PUSH2 0x100 EXP SWAP1 DIV PUSH20 0xFFFFFFFFFFFFFFFFFFFFFFFFFFFFFFFFFFFFFFFF AND PUSH20 0xFFFFFFFFFFFFFFFFFFFFFFFFFFFFFFFFFFFFFFFF AND EQ PUSH2 0x9DC JUMPI PUSH1 0x40 MLOAD PUSH32 0x8C379A000000000000000000000000000000000000000000000000000000000 DUP2 MSTORE PUSH1 0x4 ADD PUSH2 0x9D3 SWAP1 PUSH2 0x10F1 JUMP JUMPDEST PUSH1 0x40 MLOAD DUP1 SWAP2 SUB SWAP1 REVERT JUMPDEST PUSH1 0x40 MLOAD DUP1 PUSH1 0x40 ADD PUSH1 0x40 MSTORE DUP1 CALLER PUSH20 0xFFFFFFFFFFFFFFFFFFFFFFFFFFFFFFFFFFFFFFFF AND DUP2 MSTORE PUSH1 0x20 ADD DUP3 DUP2 MSTORE POP PUSH0 DUP1 DUP5 DUP2 MSTORE PUSH1 0x20 ADD SWAP1 DUP2 MSTORE PUSH1 0x20 ADD PUSH0 KECCAK256 PUSH0 DUP3 ADD MLOAD DUP2 PUSH0 ADD PUSH0 PUSH2 0x100 EXP DUP2 SLOAD DUP2 PUSH20 0xFFFFFFFFFFFFFFFFFFFFFFFFFFFFFFFFFFFFFFFF MUL NOT AND SWAP1 DUP4 PUSH20 0xFFFFFFFFFFFFFFFFFFFFFFFFFFFFFFFFFFFFFFFF AND MUL OR SWAP1 SSTORE POP PUSH1 0x20 DUP3 ADD MLOAD DUP2 PUSH1 0x1 ADD SSTORE SWAP1 POP POP CALLER PUSH20 0xFFFFFFFFFFFFFFFFFFFFFFFFFFFFFFFFFFFFFFFF AND DUP3 PUSH32 0xAC3DCDC20BB35A0F2B39FB2DDBE12A30D20C4795D2026BF2FC48DF3CE84CA67D DUP4 PUSH1 0x40 MLOAD PUSH2 0xAAF SWAP2 SWAP1 PUSH2 0xB3F JUMP JUMPDEST PUSH1 0x40 MLOAD DUP1 SWAP2 SUB SWAP1 LOG3 POP POP JUMP JUMPDEST PUSH0 DUP1 REVERT JUMPDEST PUSH0 DUP2 SWAP1 POP SWAP2 SWAP1 POP JUMP JUMPDEST PUSH2 0xAD1 DUP2 PUSH2 0xABF JUMP JUMPDEST DUP2 EQ PUSH2 0xADB JUMPI PUSH0 DUP1 REVERT JUMPDEST POP JUMP JUMPDEST PUSH0 DUP2 CALLDATALOAD SWAP1 POP PUSH2 0xAEC DUP2 PUSH2 0xAC8 JUMP JUMPDEST SWAP3 SWAP2 POP POP JUMP JUMPDEST PUSH0 DUP1 PUSH1 0x40 DUP4 DUP6 SUB SLT ISZERO PUSH2 0xB08 JUMPI PUSH2 0xB07 PUSH2 0xABB JUMP JUMPDEST JUMPDEST PUSH0 PUSH2 0xB15 DUP6 DUP3 DUP7 ADD PUSH2 0xADE JUMP JUMPDEST SWAP3 POP POP PUSH1 0x20 PUSH2 0xB26 DUP6 DUP3 DUP7 ADD PUSH2 0xADE JUMP JUMPDEST SWAP2 POP POP SWAP3 POP SWAP3 SWAP1 POP JUMP JUMPDEST PUSH2 0xB39 DUP2 PUSH2 0xABF JUMP JUMPDEST DUP3 MSTORE POP POP JUMP JUMPDEST PUSH0 PUSH1 0x20 DUP3 ADD SWAP1 POP PUSH2 0xB52 PUSH0 DUP4 ADD DUP5 PUSH2 0xB30 JUMP JUMPDEST SWAP3 SWAP2 POP POP JUMP JUMPDEST PUSH0 PUSH1 0x20 DUP3 DUP5 SUB SLT ISZERO PUSH2 0xB6D JUMPI PUSH2 0xB6C PUSH2 0xABB JUMP JUMPDEST JUMPDEST PUSH0 PUSH2 0xB7A DUP5 DUP3 DUP6 ADD PUSH2 0xADE JUMP JUMPDEST SWAP2 POP POP SWAP3 SWAP2 POP POP JUMP JUMPDEST PUSH0 PUSH20 0xFFFFFFFFFFFFFFFFFFFFFFFFFFFFFFFFFFFFFFFF DUP3 AND SWAP1 POP SWAP2 SWAP1 POP JUMP JUMPDEST PUSH0 PUSH2 0xBAC DUP3 PUSH2 0xB83 JUMP JUMPDEST SWAP1 POP SWAP2 SWAP1 POP JUMP JUMPDEST PUSH2 0xBBC DUP2 PUSH2 0xBA2 JUMP JUMPDEST DUP3 MSTORE POP POP JUMP JUMPDEST PUSH0 DUP2 ISZERO ISZERO SWAP1 POP SWAP2 SWAP1 POP JUMP JUMPDEST PUSH2 0xBD6 DUP2 PUSH2 0xBC2 JUMP JUMPDEST DUP3 MSTORE POP POP JUMP JUMPDEST PUSH0 PUSH1 0x80 DUP3 ADD SWAP1 POP PUSH2 0xBEF PUSH0 DUP4 ADD DUP8 PUSH2 0xBB3 JUMP JUMPDEST PUSH2 0xBFC PUSH1 0x20 DUP4 ADD DUP7 PUSH2 0xB30 JUMP JUMPDEST PUSH2 0xC09 PUSH1 0x40 DUP4 ADD DUP6 PUSH2 0xB30 JUMP JUMPDEST PUSH2 0xC16 PUSH1 0x60 DUP4 ADD DUP5 PUSH2 0xBCD JUMP JUMPDEST SWAP6 SWAP5 POP POP POP POP POP JUMP JUMPDEST PUSH0 PUSH1 0x40 DUP3 ADD SWAP1 POP PUSH2 0xC32 PUSH0 DUP4 ADD DUP6 PUSH2 0xBB3 JUMP JUMPDEST PUSH2 0xC3F PUSH1 0x20 DUP4 ADD DUP5 PUSH2 0xB30 JUMP JUMPDEST SWAP4 SWAP3 POP POP POP JUMP JUMPDEST PUSH2 0xC4F DUP2 PUSH2 0xBA2 JUMP JUMPDEST DUP2 EQ PUSH2 0xC59 JUMPI PUSH0 DUP1 REVERT JUMPDEST POP JUMP JUMPDEST PUSH0 DUP2 CALLDATALOAD SWAP1 POP PUSH2 0xC6A DUP2 PUSH2 0xC46 JUMP JUMPDEST SWAP3 SWAP2 POP POP JUMP JUMPDEST PUSH0 PUSH1 0x20 DUP3 DUP5 SUB SLT ISZERO PUSH2 0xC85 JUMPI PUSH2 0xC84 PUSH2 0xABB JUMP JUMPDEST JUMPDEST PUSH0 PUSH2 0xC92 DUP5 DUP3 DUP6 ADD PUSH2 0xC5C JUMP JUMPDEST SWAP2 POP POP SWAP3 SWAP2 POP POP JUMP JUMPDEST PUSH0 DUP3 DUP3 MSTORE PUSH1 0x20 DUP3 ADD SWAP1 POP SWAP3 SWAP2 POP POP JUMP JUMPDEST PUSH32 0x4173736574206E6F742072656769737465726564000000000000000000000000 PUSH0 DUP3 ADD MSTORE POP JUMP JUMPDEST PUSH0 PUSH2 0xCDF PUSH1 0x14 DUP4 PUSH2 0xC9B JUMP JUMPDEST SWAP2 POP PUSH2 0xCEA DUP3 PUSH2 0xCAB JUMP JUMPDEST PUSH1 0x20 DUP3 ADD SWAP1 POP SWAP2 SWAP1 POP JUMP JUMPDEST PUSH0 PUSH1 0x20 DUP3 ADD SWAP1 POP DUP2 DUP2 SUB PUSH0 DUP4 ADD MSTORE PUSH2 0xD0C DUP2 PUSH2 0xCD3 JUMP JUMPDEST SWAP1 POP SWAP2 SWAP1 POP JUMP JUMPDEST PUSH32 0x4E487B7100000000000000000000000000000000000000000000000000000000 PUSH0 MSTORE PUSH1 0x11 PUSH1 0x4 MSTORE PUSH1 0x24 PUSH0 REVERT JUMPDEST PUSH0 PUSH2 0xD4A DUP3 PUSH2 0xABF JUMP JUMPDEST SWAP2 POP PUSH2 0xD55 DUP4 PUSH2 0xABF JUMP JUMPDEST SWAP3 POP DUP3 DUP3 ADD SWAP1 POP DUP1 DUP3 GT ISZERO PUSH2 0xD6D JUMPI PUSH2 0xD6C PUSH2 0xD13 JUMP JUMPDEST JUMPDEST SWAP3 SWAP2 POP POP JUMP JUMPDEST PUSH32 0x41737365742069732063757272656E746C79206C656173656400000000000000 PUSH0 DUP3 ADD MSTORE POP JUMP JUMPDEST PUSH0 PUSH2 0xDA7 PUSH1 0x19 DUP4 PUSH2 0xC9B JUMP JUMPDEST SWAP2 POP PUSH2 0xDB2 DUP3 PUSH2 0xD73 JUMP JUMPDEST PUSH1 0x20 DUP3 ADD SWAP1 POP SWAP2 SWAP1 POP JUMP JUMPDEST PUSH0 PUSH1 0x20 DUP3 ADD SWAP1 POP DUP2 DUP2 SUB PUSH0 DUP4 ADD MSTORE PUSH2 0xDD4 DUP2 PUSH2 0xD9B JUMP JUMPDEST SWAP1 POP SWAP2 SWAP1 POP JUMP JUMPDEST PUSH32 0x496E73756666696369656E74207061796D656E7420666F72206C656173652064 PUSH0 DUP3 ADD MSTORE PUSH32 0x75726174696F6E00000000000000000000000000000000000000000000000000 PUSH1 0x20 DUP3 ADD MSTORE POP JUMP JUMPDEST PUSH0 PUSH2 0xE35 PUSH1 0x27 DUP4 PUSH2 0xC9B JUMP JUMPDEST SWAP2 POP PUSH2 0xE40 DUP3 PUSH2 0xDDB JUMP JUMPDEST PUSH1 0x40 DUP3 ADD SWAP1 POP SWAP2 SWAP1 POP JUMP JUMPDEST PUSH0 PUSH1 0x20 DUP3 ADD SWAP1 POP DUP2 DUP2 SUB PUSH0 DUP4 ADD MSTORE PUSH2 0xE62 DUP2 PUSH2 0xE29 JUMP JUMPDEST SWAP1 POP SWAP2 SWAP1 POP JUMP JUMPDEST PUSH0 PUSH1 0x60 DUP3 ADD SWAP1 POP PUSH2 0xE7C PUSH0 DUP4 ADD DUP7 PUSH2 0xB30 JUMP JUMPDEST PUSH2 0xE89 PUSH1 0x20 DUP4 ADD DUP6 PUSH2 0xB30 JUMP JUMPDEST PUSH2 0xE96 PUSH1 0x40 DUP4 ADD DUP5 PUSH2 0xB30 JUMP JUMPDEST SWAP5 SWAP4 POP POP POP POP JUMP JUMPDEST PUSH0 PUSH2 0xEA8 DUP3 PUSH2 0xABF JUMP JUMPDEST SWAP2 POP PUSH2 0xEB3 DUP4 PUSH2 0xABF JUMP JUMPDEST SWAP3 POP DUP3 DUP3 SUB SWAP1 POP DUP2 DUP2 GT ISZERO PUSH2 0xECB JUMPI PUSH2 0xECA PUSH2 0xD13 JUMP JUMPDEST JUMPDEST SWAP3 SWAP2 POP POP JUMP JUMPDEST PUSH32 0x4E6F2066756E647320617661696C61626C650000000000000000000000000000 PUSH0 DUP3 ADD MSTORE POP JUMP JUMPDEST PUSH0 PUSH2 0xF05 PUSH1 0x12 DUP4 PUSH2 0xC9B JUMP JUMPDEST SWAP2 POP PUSH2 0xF10 DUP3 PUSH2 0xED1 JUMP JUMPDEST PUSH1 0x20 DUP3 ADD SWAP1 POP SWAP2 SWAP1 POP JUMP JUMPDEST PUSH0 PUSH1 0x20 DUP3 ADD SWAP1 POP DUP2 DUP2 SUB PUSH0 DUP4 ADD MSTORE PUSH2 0xF32 DUP2 PUSH2 0xEF9 JUMP JUMPDEST SWAP1 POP SWAP2 SWAP1 POP JUMP JUMPDEST PUSH0 PUSH2 0xF43 DUP3 PUSH2 0xABF JUMP JUMPDEST SWAP2 POP PUSH2 0xF4E DUP4 PUSH2 0xABF JUMP JUMPDEST SWAP3 POP DUP3 DUP3 MUL PUSH2 0xF5C DUP2 PUSH2 0xABF JUMP JUMPDEST SWAP2 POP DUP3 DUP3 DIV DUP5 EQ DUP4 ISZERO OR PUSH2 0xF73 JUMPI PUSH2 0xF72 PUSH2 0xD13 JUMP JUMPDEST JUMPDEST POP SWAP3 SWAP2 POP POP JUMP JUMPDEST PUSH32 0x4E487B7100000000000000000000000000000000000000000000000000000000 PUSH0 MSTORE PUSH1 0x12 PUSH1 0x4 MSTORE PUSH1 0x24 PUSH0 REVERT JUMPDEST PUSH0 PUSH2 0xFB1 DUP3 PUSH2 0xABF JUMP JUMPDEST SWAP2 POP PUSH2 0xFBC DUP4 PUSH2 0xABF JUMP JUMPDEST SWAP3 POP DUP3 PUSH2 0xFCC JUMPI PUSH2 0xFCB PUSH2 0xF7A JUMP JUMPDEST JUMPDEST DUP3 DUP3 DIV SWAP1 POP SWAP3 SWAP2 POP POP JUMP JUMPDEST PUSH32 0x4E6F20616374697665206C656173650000000000000000000000000000000000 PUSH0 DUP3 ADD MSTORE POP JUMP JUMPDEST PUSH0 PUSH2 0x100B PUSH1 0xF DUP4 PUSH2 0xC9B JUMP JUMPDEST SWAP2 POP PUSH2 0x1016 DUP3 PUSH2 0xFD7 JUMP JUMPDEST PUSH1 0x20 DUP3 ADD SWAP1 POP SWAP2 SWAP1 POP JUMP JUMPDEST PUSH0 PUSH1 0x20 DUP3 ADD SWAP1 POP DUP2 DUP2 SUB PUSH0 DUP4 ADD MSTORE PUSH2 0x1038 DUP2 PUSH2 0xFFF JUMP JUMPDEST SWAP1 POP SWAP2 SWAP1 POP JUMP JUMPDEST PUSH32 0x4C6561736520706572696F64206E6F7420796574206578706972656400000000 PUSH0 DUP3 ADD MSTORE POP JUMP JUMPDEST PUSH0 PUSH2 0x1073 PUSH1 0x1C DUP4 PUSH2 0xC9B JUMP JUMPDEST SWAP2 POP PUSH2 0x107E DUP3 PUSH2 0x103F JUMP JUMPDEST PUSH1 0x20 DUP3 ADD SWAP1 POP SWAP2 SWAP1 POP JUMP JUMPDEST PUSH0 PUSH1 0x20 DUP3 ADD SWAP1 POP DUP2 DUP2 SUB PUSH0 DUP4 ADD MSTORE PUSH2 0x10A0 DUP2 PUSH2 0x1067 JUMP JUMPDEST SWAP1 POP SWAP2 SWAP1 POP JUMP JUMPDEST PUSH32 0x417373657420616C726561647920726567697374657265640000000000000000 PUSH0 DUP3 ADD MSTORE POP JUMP JUMPDEST PUSH0 PUSH2 0x10DB PUSH1 0x18 DUP4 PUSH2 0xC9B JUMP JUMPDEST SWAP2 POP PUSH2 0x10E6 DUP3 PUSH2 0x10A7 JUMP JUMPDEST PUSH1 0x20 DUP3 ADD SWAP1 POP SWAP2 SWAP1 POP JUMP JUMPDEST PUSH0 PUSH1 0x20 DUP3 ADD SWAP1 POP DUP2 DUP2 SUB PUSH0 DUP4 ADD MSTORE PUSH2 0x1108 DUP2 PUSH2 0x10CF JUMP JUMPDEST SWAP1 POP SWAP2 SWAP1 POP JUMP INVALID LOG2 PUSH5 0x6970667358 0x22 SLT KECCAK256 GASLIMIT DELEGATECALL 0xC8 LOG3 BLOCKHASH INVALID OR CALLDATASIZE PUSH29 0xAB7DC155E27573C5D0F1F6370AC89F22D7A6F210948F164736F6C6343 STOP ADDMOD BYTE STOP CALLER "
				},
				"gasEstimates": {
					"creation": {
						"codeDepositCost": "884200",
						"executionCost": "896",
						"totalCost": "885096"
					},
					"external": {
						"": "173",
						"SECONDS_PER_HOUR()": "370",
						"assets(uint256)": "infinite",
						"endLease(uint256)": "infinite",
						"getLeasePrice(uint256,uint256)": "infinite",
						"leaseAsset(uint256,uint256)": "infinite",
						"leases(uint256)": "infinite",
						"pendingWithdrawals(address)": "2868",
						"registerAsset(uint256,uint256)": "infinite",
						"withdraw()": "infinite"
					}
				},
				"methodIdentifiers": {
					"SECONDS_PER_HOUR()": "4df86126",
					"assets(uint256)": "cf35bdd0",
					"endLease(uint256)": "91ef935c",
					"getLeasePrice(uint256,uint256)": "87ae9ef9",
					"leaseAsset(uint256,uint256)": "20dd918b",
					"leases(uint256)": "8927a106",
					"pendingWithdrawals(address)": "f3f43703",
					"registerAsset(uint256,uint256)": "f8a54c4a",
					"withdraw()": "3ccfd60b"
				}
			},
			"storageLayout": {
				"storage": [
					{
						"astId": 27,
						"contract": "sol/Leasing.sol:LeaseMarketplace",
						"label": "assets",
						"offset": 0,
						"slot": "0",
						"type": "t_mapping(t_uint256,t_struct(Asset)13_storage)"
					},
					{
						"astId": 32,
						"contract": "sol/Leasing.sol:LeaseMarketplace",
						"label": "leases",
						"offset": 0,
						"slot": "1",
						"type": "t_mapping(t_uint256,t_struct(Lease)22_storage)"
					},
					{
						"astId": 36,
						"contract": "sol/Leasing.sol:LeaseMarketplace",
						"label": "pendingWithdrawals",
						"offset": 0,
						"slot": "2",
						"type": "t_mapping(t_address,t_uint256)"
					}
				],
				"types": {
					"t_address": {
						"encoding": "inplace",
						"label": "address",
						"numberOfBytes": "20"
					},
					"t_bool": {
						"encoding": "inplace",
						"label": "bool",
						"numberOfBytes": "1"
					},
					"t_mapping(t_address,t_uint256)": {
						"encoding": "mapping",
						"key": "t_address",
						"label": "mapping(address => uint256)",
						"numberOfBytes": "32",
						"value": "t_uint256"
					},
					"t_mapping(t_uint256,t_struct(Asset)13_storage)": {
						"encoding": "mapping",
						"key": "t_uint256",
						"label": "mapping(uint256 => struct LeaseMarketplace.Asset)",
						"numberOfBytes": "32",
						"value": "t_struct(Asset)13_storage"
					},
					"t_mapping(t_uint256,t_struct(Lease)22_storage)": {
						"encoding": "mapping",
						"key": "t_uint256",
						"label": "mapping(uint256 => struct LeaseMarketplace.Lease)",
						"numberOfBytes": "32",
						"value": "t_struct(Lease)22_storage"
					},
					"t_struct(Asset)13_storage": {
						"encoding": "inplace",
						"label": "struct LeaseMarketplace.Asset",
						"members": [
							{
								"astId": 10,
								"contract": "sol/Leasing.sol:LeaseMarketplace",
								"label": "owner",
								"offset": 0,
								"slot": "0",
								"type": "t_address"
							},
							{
								"astId": 12,
								"contract": "sol/Leasing.sol:LeaseMarketplace",
								"label": "hourlyRate",
								"offset": 0,
								"slot": "1",
								"type": "t_uint256"
							}
						],
						"numberOfBytes": "64"
					},
					"t_struct(Lease)22_storage": {
						"encoding": "inplace",
						"label": "struct LeaseMarketplace.Lease",
						"members": [
							{
								"astId": 15,
								"contract": "sol/Leasing.sol:LeaseMarketplace",
								"label": "buyer",
								"offset": 0,
								"slot": "0",
								"type": "t_address"
							},
							{
								"astId": 17,
								"contract": "sol/Leasing.sol:LeaseMarketplace",
								"label": "leaseStart",
								"offset": 0,
								"slot": "1",
								"type": "t_uint256"
							},
							{
								"astId": 19,
								"contract": "sol/Leasing.sol:LeaseMarketplace",
								"label": "leaseDuration",
								"offset": 0,
								"slot": "2",
								"type": "t_uint256"
							},
							{
								"astId": 21,
								"contract": "sol/Leasing.sol:LeaseMarketplace",
								"label": "active",
								"offset": 0,
								"slot": "3",
								"type": "t_bool"
							}
						],
						"numberOfBytes": "128"
					},
					"t_uint256": {
						"encoding": "inplace",
						"label": "uint256",
						"numberOfBytes": "32"
					}
				}
			},
			"userdoc": {
				"kind": "user",
				"methods": {
					"endLease(uint256)": {
						"notice": "End a lease if its period has expired."
					},
					"getLeasePrice(uint256,uint256)": {
						"notice": "Calculate the lease price for an asset given a duration."
					},
					"leaseAsset(uint256,uint256)": {
						"notice": "Lease an asset for a given duration."
					},
					"registerAsset(uint256,uint256)": {
						"notice": "Register an asset for leasing."
					},
					"withdraw()": {
						"notice": "Allow asset owners to withdraw their earnings."
					}
				},
				"version": 1
			}
		}
	}
}