{
	"data": {
		"bytecode": {
			"linkReferences": {},
			"object": "6080604052348015600e575f80fd5b506116cc8061001c5f395ff3fe608060405260043610610085575f3560e01c80637e11bb7e116100585780637e11bb7e14610142578063863fbf5b1461015e5780639223995514610186578063de9af3a0146101c2578063f3f43703146101ff57610085565b80631c53c280146100895780633ccfd60b146100c7578063744c8138146100dd57806377f433291461011a575b5f80fd5b348015610094575f80fd5b506100af60048036038101906100aa9190610eb8565b61023b565b6040516100be93929190610f62565b60405180910390f35b3480156100d2575f80fd5b506100db6102a2565b005b3480156100e8575f80fd5b5061010360048036038101906100fe9190610fc1565b610413565b60405161011192919061103f565b60405180910390f35b348015610125575f80fd5b50610140600480360381019061013b9190611090565b610460565b005b61015c600480360381019061015791906110f8565b610594565b005b348015610169575f80fd5b50610184600480360381019061017f9190611090565b610a5d565b005b348015610191575f80fd5b506101ac60048036038101906101a79190610fc1565b610c2c565b6040516101b99190611136565b60405180910390f35b3480156101cd575f80fd5b506101e860048036038101906101e39190610eb8565b610d3a565b6040516101f692919061115e565b60405180910390f35b34801561020a575f80fd5b5061022560048036038101906102209190611185565b610e6c565b60405161023291906111b0565b60405180910390f35b5f602052805f5260405f205f91509050805f015f9054906101000a90046bffffffffffffffffffffffff1690805f01600c9054906101000a900473ffffffffffffffffffffffffffffffffffffffff1690806001015f9054906101000a900460ff16905083565b5f60025f3373ffffffffffffffffffffffffffffffffffffffff1673ffffffffffffffffffffffffffffffffffffffff1681526020019081526020015f205490505f8111610325576040517f08c379a000000000000000000000000000000000000000000000000000000000815260040161031c90611223565b60405180910390fd5b5f60025f3373ffffffffffffffffffffffffffffffffffffffff1673ffffffffffffffffffffffffffffffffffffffff1681526020019081526020015f20819055505f3373ffffffffffffffffffffffffffffffffffffffff168260405161038c9061126e565b5f6040518083038185875af1925050503d805f81146103c6576040519150601f19603f3d011682016040523d82523d5f602084013e6103cb565b606091505b505090508061040f576040517f08c379a0000000000000000000000000000000000000000000000000000000008152600401610406906112cc565b60405180910390fd5b5050565b6001602052815f5260405f20602052805f5260405f205f9150915050805f015f9054906101000a900467ffffffffffffffff1690805f0160089054906101000a900463ffffffff16905082565b3373ffffffffffffffffffffffffffffffffffffffff165f808481526020019081526020015f205f01600c9054906101000a900473ffffffffffffffffffffffffffffffffffffffff1673ffffffffffffffffffffffffffffffffffffffff1614610500576040517f08c379a00000000000000000000000000000000000000000000000000000000081526004016104f790611334565b60405180910390fd5b5f816bffffffffffffffffffffffff1611610550576040517f08c379a00000000000000000000000000000000000000000000000000000000081526004016105479061139c565b60405180910390fd5b805f808481526020019081526020015f205f015f6101000a8154816bffffffffffffffffffffffff02191690836bffffffffffffffffffffffff1602179055505050565b5f805f8481526020019081526020015f206040518060600160405290815f82015f9054906101000a90046bffffffffffffffffffffffff166bffffffffffffffffffffffff166bffffffffffffffffffffffff1681526020015f8201600c9054906101000a900473ffffffffffffffffffffffffffffffffffffffff1673ffffffffffffffffffffffffffffffffffffffff1673ffffffffffffffffffffffffffffffffffffffff168152602001600182015f9054906101000a900460ff161515151581525050905080604001516106a1576040517f08c379a000000000000000000000000000000000000000000000000000000000815260040161069890611404565b60405180910390fd5b5f8263ffffffff16116106e9576040517f08c379a00000000000000000000000000000000000000000000000000000000081526004016106e09061146c565b60405180910390fd5b5f60015f8581526020019081526020015f205f3373ffffffffffffffffffffffffffffffffffffffff1673ffffffffffffffffffffffffffffffffffffffff1681526020019081526020015f206040518060400160405290815f82015f9054906101000a900467ffffffffffffffff1667ffffffffffffffff1667ffffffffffffffff1681526020015f820160089054906101000a900463ffffffff1663ffffffff1663ffffffff168152505090505f815f015167ffffffffffffffff161115610825575f610e10826020015163ffffffff166107c691906114b7565b825f015167ffffffffffffffff166107de91906114f8565b905080421015610823576040517f08c379a000000000000000000000000000000000000000000000000000000000815260040161081a90611575565b60405180910390fd5b505b5f8363ffffffff16835f01516bffffffffffffffffffffffff1661084991906114b7565b90508034101561088e576040517f08c379a0000000000000000000000000000000000000000000000000000000008152600401610885906115dd565b60405180910390fd5b8060025f856020015173ffffffffffffffffffffffffffffffffffffffff1673ffffffffffffffffffffffffffffffffffffffff1681526020019081526020015f205f8282546108de91906114f8565b9250508190555060405180604001604052804267ffffffffffffffff1681526020018563ffffffff1681525060015f8781526020019081526020015f205f3373ffffffffffffffffffffffffffffffffffffffff1673ffffffffffffffffffffffffffffffffffffffff1681526020019081526020015f205f820151815f015f6101000a81548167ffffffffffffffff021916908367ffffffffffffffff1602179055506020820151815f0160086101000a81548163ffffffff021916908363ffffffff16021790555090505080341115610a125780346109bf91906115fb565b60025f3373ffffffffffffffffffffffffffffffffffffffff1673ffffffffffffffffffffffffffffffffffffffff1681526020019081526020015f205f828254610a0a91906114f8565b925050819055505b3373ffffffffffffffffffffffffffffffffffffffff16857fd2870c6fa0e2a46add85f18fa696d921a65159c5b5b6106f3f9d855fe12c762060405160405180910390a35050505050565b5f808381526020019081526020015f206001015f9054906101000a900460ff1615610abd576040517f08c379a0000000000000000000000000000000000000000000000000000000008152600401610ab490611678565b60405180910390fd5b5f816bffffffffffffffffffffffff1611610b0d576040517f08c379a0000000000000000000000000000000000000000000000000000000008152600401610b049061139c565b60405180910390fd5b6040518060600160405280826bffffffffffffffffffffffff1681526020013373ffffffffffffffffffffffffffffffffffffffff168152602001600115158152505f808481526020019081526020015f205f820151815f015f6101000a8154816bffffffffffffffffffffffff02191690836bffffffffffffffffffffffff1602179055506020820151815f01600c6101000a81548173ffffffffffffffffffffffffffffffffffffffff021916908373ffffffffffffffffffffffffffffffffffffffff1602179055506040820151816001015f6101000a81548160ff021916908315150217905550905050817f9ca52646a7857f099a974ece3d04da3053163b41aa4d50ac827ff896d34937b960405160405180910390a25050565b5f8060015f8581526020019081526020015f205f8473ffffffffffffffffffffffffffffffffffffffff1673ffffffffffffffffffffffffffffffffffffffff1681526020019081526020015f206040518060400160405290815f82015f9054906101000a900467ffffffffffffffff1667ffffffffffffffff1667ffffffffffffffff1681526020015f820160089054906101000a900463ffffffff1663ffffffff1663ffffffff168152505090505f815f015167ffffffffffffffff1603610cf9575f915050610d34565b5f610e10826020015163ffffffff16610d1291906114b7565b825f015167ffffffffffffffff16610d2a91906114f8565b9050804210925050505b92915050565b5f805f60015f8581526020019081526020015f205f3373ffffffffffffffffffffffffffffffffffffffff1673ffffffffffffffffffffffffffffffffffffffff1681526020019081526020015f206040518060400160405290815f82015f9054906101000a900467ffffffffffffffff1667ffffffffffffffff1667ffffffffffffffff1681526020015f820160089054906101000a900463ffffffff1663ffffffff1663ffffffff168152505090505f815f015167ffffffffffffffff1603610e0b575f809250925050610e67565b5f610e10826020015163ffffffff16610e2491906114b7565b825f015167ffffffffffffffff16610e3c91906114f8565b9050804210610e52575f80935093505050610e67565b60014282610e6091906115fb565b9350935050505b915091565b6002602052805f5260405f205f915090505481565b5f80fd5b5f819050919050565b610e9781610e85565b8114610ea1575f80fd5b50565b5f81359050610eb281610e8e565b92915050565b5f60208284031215610ecd57610ecc610e81565b5b5f610eda84828501610ea4565b91505092915050565b5f6bffffffffffffffffffffffff82169050919050565b610f0381610ee3565b82525050565b5f73ffffffffffffffffffffffffffffffffffffffff82169050919050565b5f610f3282610f09565b9050919050565b610f4281610f28565b82525050565b5f8115159050919050565b610f5c81610f48565b82525050565b5f606082019050610f755f830186610efa565b610f826020830185610f39565b610f8f6040830184610f53565b949350505050565b610fa081610f28565b8114610faa575f80fd5b50565b5f81359050610fbb81610f97565b92915050565b5f8060408385031215610fd757610fd6610e81565b5b5f610fe485828601610ea4565b9250506020610ff585828601610fad565b9150509250929050565b5f67ffffffffffffffff82169050919050565b61101b81610fff565b82525050565b5f63ffffffff82169050919050565b61103981611021565b82525050565b5f6040820190506110525f830185611012565b61105f6020830184611030565b9392505050565b61106f81610ee3565b8114611079575f80fd5b50565b5f8135905061108a81611066565b92915050565b5f80604083850312156110a6576110a5610e81565b5b5f6110b385828601610ea4565b92505060206110c48582860161107c565b9150509250929050565b6110d781611021565b81146110e1575f80fd5b50565b5f813590506110f2816110ce565b92915050565b5f806040838503121561110e5761110d610e81565b5b5f61111b85828601610ea4565b925050602061112c858286016110e4565b9150509250929050565b5f6020820190506111495f830184610f53565b92915050565b61115881610e85565b82525050565b5f6040820190506111715f830185610f53565b61117e602083018461114f565b9392505050565b5f6020828403121561119a57611199610e81565b5b5f6111a784828501610fad565b91505092915050565b5f6020820190506111c35f83018461114f565b92915050565b5f82825260208201905092915050565b7f4e6f7468696e6720746f207769746864726177000000000000000000000000005f82015250565b5f61120d6013836111c9565b9150611218826111d9565b602082019050919050565b5f6020820190508181035f83015261123a81611201565b9050919050565b5f81905092915050565b50565b5f6112595f83611241565b91506112648261124b565b5f82019050919050565b5f6112788261124e565b9150819050919050565b7f5472616e73666572206661696c656400000000000000000000000000000000005f82015250565b5f6112b6600f836111c9565b91506112c182611282565b602082019050919050565b5f6020820190508181035f8301526112e3816112aa565b9050919050565b7f4e6f74206f776e657200000000000000000000000000000000000000000000005f82015250565b5f61131e6009836111c9565b9150611329826112ea565b602082019050919050565b5f6020820190508181035f83015261134b81611312565b9050919050565b7f526174653d3000000000000000000000000000000000000000000000000000005f82015250565b5f6113866006836111c9565b915061139182611352565b602082019050919050565b5f6020820190508181035f8301526113b38161137a565b9050919050565b7f4e6f206e6f6465000000000000000000000000000000000000000000000000005f82015250565b5f6113ee6007836111c9565b91506113f9826113ba565b602082019050919050565b5f6020820190508181035f83015261141b816113e2565b9050919050565b7f486f7572733d30000000000000000000000000000000000000000000000000005f82015250565b5f6114566007836111c9565b915061146182611422565b602082019050919050565b5f6020820190508181035f8301526114838161144a565b9050919050565b7f4e487b71000000000000000000000000000000000000000000000000000000005f52601160045260245ffd5b5f6114c182610e85565b91506114cc83610e85565b92508282026114da81610e85565b915082820484148315176114f1576114f061148a565b5b5092915050565b5f61150282610e85565b915061150d83610e85565b92508282019050808211156115255761152461148a565b5b92915050565b7f416374697665206c6561736500000000000000000000000000000000000000005f82015250565b5f61155f600c836111c9565b915061156a8261152b565b602082019050919050565b5f6020820190508181035f83015261158c81611553565b9050919050565b7f4c6f77207061796d656e740000000000000000000000000000000000000000005f82015250565b5f6115c7600b836111c9565b91506115d282611593565b602082019050919050565b5f6020820190508181035f8301526115f4816115bb565b9050919050565b5f61160582610e85565b915061161083610e85565b92508282039050818111156116285761162761148a565b5b92915050565b7f45786973747300000000000000000000000000000000000000000000000000005f82015250565b5f6116626006836111c9565b915061166d8261162e565b602082019050919050565b5f6020820190508181035f83015261168f81611656565b905091905056fea26469706673582212207e4faf14eed199999788ab4d365b86dffdb6765e0e92f89c3e545a6a033b3b2c64736f6c634300081a0033",
			"opcodes": "PUSH1 0x80 PUSH1 0x40 MSTORE CALLVALUE DUP1 ISZERO PUSH1 0xE JUMPI PUSH0 DUP1 REVERT JUMPDEST POP PUSH2 0x16CC DUP1 PUSH2 0x1C PUSH0 CODECOPY PUSH0 RETURN INVALID PUSH1 0x80 PUSH1 0x40 MSTORE PUSH1 0x4 CALLDATASIZE LT PUSH2 0x85 JUMPI PUSH0 CALLDATALOAD PUSH1 0xE0 SHR DUP1 PUSH4 0x7E11BB7E GT PUSH2 0x58 JUMPI DUP1 PUSH4 0x7E11BB7E EQ PUSH2 0x142 JUMPI DUP1 PUSH4 0x863FBF5B EQ PUSH2 0x15E JUMPI DUP1 PUSH4 0x92239955 EQ PUSH2 0x186 JUMPI DUP1 PUSH4 0xDE9AF3A0 EQ PUSH2 0x1C2 JUMPI DUP1 PUSH4 0xF3F43703 EQ PUSH2 0x1FF JUMPI PUSH2 0x85 JUMP JUMPDEST DUP1 PUSH4 0x1C53C280 EQ PUSH2 0x89 JUMPI DUP1 PUSH4 0x3CCFD60B EQ PUSH2 0xC7 JUMPI DUP1 PUSH4 0x744C8138 EQ PUSH2 0xDD JUMPI DUP1 PUSH4 0x77F43329 EQ PUSH2 0x11A JUMPI JUMPDEST PUSH0 DUP1 REVERT JUMPDEST CALLVALUE DUP1 ISZERO PUSH2 0x94 JUMPI PUSH0 DUP1 REVERT JUMPDEST POP PUSH2 0xAF PUSH1 0x4 DUP1 CALLDATASIZE SUB DUP2 ADD SWAP1 PUSH2 0xAA SWAP2 SWAP1 PUSH2 0xEB8 JUMP JUMPDEST PUSH2 0x23B JUMP JUMPDEST PUSH1 0x40 MLOAD PUSH2 0xBE SWAP4 SWAP3 SWAP2 SWAP1 PUSH2 0xF62 JUMP JUMPDEST PUSH1 0x40 MLOAD DUP1 SWAP2 SUB SWAP1 RETURN JUMPDEST CALLVALUE DUP1 ISZERO PUSH2 0xD2 JUMPI PUSH0 DUP1 REVERT JUMPDEST POP PUSH2 0xDB PUSH2 0x2A2 JUMP JUMPDEST STOP JUMPDEST CALLVALUE DUP1 ISZERO PUSH2 0xE8 JUMPI PUSH0 DUP1 REVERT JUMPDEST POP PUSH2 0x103 PUSH1 0x4 DUP1 CALLDATASIZE SUB DUP2 ADD SWAP1 PUSH2 0xFE SWAP2 SWAP1 PUSH2 0xFC1 JUMP JUMPDEST PUSH2 0x413 JUMP JUMPDEST PUSH1 0x40 MLOAD PUSH2 0x111 SWAP3 SWAP2 SWAP1 PUSH2 0x103F JUMP JUMPDEST PUSH1 0x40 MLOAD DUP1 SWAP2 SUB SWAP1 RETURN JUMPDEST CALLVALUE DUP1 ISZERO PUSH2 0x125 JUMPI PUSH0 DUP1 REVERT JUMPDEST POP PUSH2 0x140 PUSH1 0x4 DUP1 CALLDATASIZE SUB DUP2 ADD SWAP1 PUSH2 0x13B SWAP2 SWAP1 PUSH2 0x1090 JUMP JUMPDEST PUSH2 0x460 JUMP JUMPDEST STOP JUMPDEST PUSH2 0x15C PUSH1 0x4 DUP1 CALLDATASIZE SUB DUP2 ADD SWAP1 PUSH2 0x157 SWAP2 SWAP1 PUSH2 0x10F8 JUMP JUMPDEST PUSH2 0x594 JUMP JUMPDEST STOP JUMPDEST CALLVALUE DUP1 ISZERO PUSH2 0x169 JUMPI PUSH0 DUP1 REVERT JUMPDEST POP PUSH2 0x184 PUSH1 0x4 DUP1 CALLDATASIZE SUB DUP2 ADD SWAP1 PUSH2 0x17F SWAP2 SWAP1 PUSH2 0x1090 JUMP JUMPDEST PUSH2 0xA5D JUMP JUMPDEST STOP JUMPDEST CALLVALUE DUP1 ISZERO PUSH2 0x191 JUMPI PUSH0 DUP1 REVERT JUMPDEST POP PUSH2 0x1AC PUSH1 0x4 DUP1 CALLDATASIZE SUB DUP2 ADD SWAP1 PUSH2 0x1A7 SWAP2 SWAP1 PUSH2 0xFC1 JUMP JUMPDEST PUSH2 0xC2C JUMP JUMPDEST PUSH1 0x40 MLOAD PUSH2 0x1B9 SWAP2 SWAP1 PUSH2 0x1136 JUMP JUMPDEST PUSH1 0x40 MLOAD DUP1 SWAP2 SUB SWAP1 RETURN JUMPDEST CALLVALUE DUP1 ISZERO PUSH2 0x1CD JUMPI PUSH0 DUP1 REVERT JUMPDEST POP PUSH2 0x1E8 PUSH1 0x4 DUP1 CALLDATASIZE SUB DUP2 ADD SWAP1 PUSH2 0x1E3 SWAP2 SWAP1 PUSH2 0xEB8 JUMP JUMPDEST PUSH2 0xD3A JUMP JUMPDEST PUSH1 0x40 MLOAD PUSH2 0x1F6 SWAP3 SWAP2 SWAP1 PUSH2 0x115E JUMP JUMPDEST PUSH1 0x40 MLOAD DUP1 SWAP2 SUB SWAP1 RETURN JUMPDEST CALLVALUE DUP1 ISZERO PUSH2 0x20A JUMPI PUSH0 DUP1 REVERT JUMPDEST POP PUSH2 0x225 PUSH1 0x4 DUP1 CALLDATASIZE SUB DUP2 ADD SWAP1 PUSH2 0x220 SWAP2 SWAP1 PUSH2 0x1185 JUMP JUMPDEST PUSH2 0xE6C JUMP JUMPDEST PUSH1 0x40 MLOAD PUSH2 0x232 SWAP2 SWAP1 PUSH2 0x11B0 JUMP JUMPDEST PUSH1 0x40 MLOAD DUP1 SWAP2 SUB SWAP1 RETURN JUMPDEST PUSH0 PUSH1 0x20 MSTORE DUP1 PUSH0 MSTORE PUSH1 0x40 PUSH0 KECCAK256 PUSH0 SWAP2 POP SWAP1 POP DUP1 PUSH0 ADD PUSH0 SWAP1 SLOAD SWAP1 PUSH2 0x100 EXP SWAP1 DIV PUSH12 0xFFFFFFFFFFFFFFFFFFFFFFFF AND SWAP1 DUP1 PUSH0 ADD PUSH1 0xC SWAP1 SLOAD SWAP1 PUSH2 0x100 EXP SWAP1 DIV PUSH20 0xFFFFFFFFFFFFFFFFFFFFFFFFFFFFFFFFFFFFFFFF AND SWAP1 DUP1 PUSH1 0x1 ADD PUSH0 SWAP1 SLOAD SWAP1 PUSH2 0x100 EXP SWAP1 DIV PUSH1 0xFF AND SWAP1 POP DUP4 JUMP JUMPDEST PUSH0 PUSH1 0x2 PUSH0 CALLER PUSH20 0xFFFFFFFFFFFFFFFFFFFFFFFFFFFFFFFFFFFFFFFF AND PUSH20 0xFFFFFFFFFFFFFFFFFFFFFFFFFFFFFFFFFFFFFFFF AND DUP2 MSTORE PUSH1 0x20 ADD SWAP1 DUP2 MSTORE PUSH1 0x20 ADD PUSH0 KECCAK256 SLOAD SWAP1 POP PUSH0 DUP2 GT PUSH2 0x325 JUMPI PUSH1 0x40 MLOAD PUSH32 0x8C379A000000000000000000000000000000000000000000000000000000000 DUP2 MSTORE PUSH1 0x4 ADD PUSH2 0x31C SWAP1 PUSH2 0x1223 JUMP JUMPDEST PUSH1 0x40 MLOAD DUP1 SWAP2 SUB SWAP1 REVERT JUMPDEST PUSH0 PUSH1 0x2 PUSH0 CALLER PUSH20 0xFFFFFFFFFFFFFFFFFFFFFFFFFFFFFFFFFFFFFFFF AND PUSH20 0xFFFFFFFFFFFFFFFFFFFFFFFFFFFFFFFFFFFFFFFF AND DUP2 MSTORE PUSH1 0x20 ADD SWAP1 DUP2 MSTORE PUSH1 0x20 ADD PUSH0 KECCAK256 DUP2 SWAP1 SSTORE POP PUSH0 CALLER PUSH20 0xFFFFFFFFFFFFFFFFFFFFFFFFFFFFFFFFFFFFFFFF AND DUP3 PUSH1 0x40 MLOAD PUSH2 0x38C SWAP1 PUSH2 0x126E JUMP JUMPDEST PUSH0 PUSH1 0x40 MLOAD DUP1 DUP4 SUB DUP2 DUP6 DUP8 GAS CALL SWAP3 POP POP POP RETURNDATASIZE DUP1 PUSH0 DUP2 EQ PUSH2 0x3C6 JUMPI PUSH1 0x40 MLOAD SWAP2 POP PUSH1 0x1F NOT PUSH1 0x3F RETURNDATASIZE ADD AND DUP3 ADD PUSH1 0x40 MSTORE RETURNDATASIZE DUP3 MSTORE RETURNDATASIZE PUSH0 PUSH1 0x20 DUP5 ADD RETURNDATACOPY PUSH2 0x3CB JUMP JUMPDEST PUSH1 0x60 SWAP2 POP JUMPDEST POP POP SWAP1 POP DUP1 PUSH2 0x40F JUMPI PUSH1 0x40 MLOAD PUSH32 0x8C379A000000000000000000000000000000000000000000000000000000000 DUP2 MSTORE PUSH1 0x4 ADD PUSH2 0x406 SWAP1 PUSH2 0x12CC JUMP JUMPDEST PUSH1 0x40 MLOAD DUP1 SWAP2 SUB SWAP1 REVERT JUMPDEST POP POP JUMP JUMPDEST PUSH1 0x1 PUSH1 0x20 MSTORE DUP2 PUSH0 MSTORE PUSH1 0x40 PUSH0 KECCAK256 PUSH1 0x20 MSTORE DUP1 PUSH0 MSTORE PUSH1 0x40 PUSH0 KECCAK256 PUSH0 SWAP2 POP SWAP2 POP POP DUP1 PUSH0 ADD PUSH0 SWAP1 SLOAD SWAP1 PUSH2 0x100 EXP SWAP1 DIV PUSH8 0xFFFFFFFFFFFFFFFF AND SWAP1 DUP1 PUSH0 ADD PUSH1 0x8 SWAP1 SLOAD SWAP1 PUSH2 0x100 EXP SWAP1 DIV PUSH4 0xFFFFFFFF AND SWAP1 POP DUP3 JUMP JUMPDEST CALLER PUSH20 0xFFFFFFFFFFFFFFFFFFFFFFFFFFFFFFFFFFFFFFFF AND PUSH0 DUP1 DUP5 DUP2 MSTORE PUSH1 0x20 ADD SWAP1 DUP2 MSTORE PUSH1 0x20 ADD PUSH0 KECCAK256 PUSH0 ADD PUSH1 0xC SWAP1 SLOAD SWAP1 PUSH2 0x100 EXP SWAP1 DIV PUSH20 0xFFFFFFFFFFFFFFFFFFFFFFFFFFFFFFFFFFFFFFFF AND PUSH20 0xFFFFFFFFFFFFFFFFFFFFFFFFFFFFFFFFFFFFFFFF AND EQ PUSH2 0x500 JUMPI PUSH1 0x40 MLOAD PUSH32 0x8C379A000000000000000000000000000000000000000000000000000000000 DUP2 MSTORE PUSH1 0x4 ADD PUSH2 0x4F7 SWAP1 PUSH2 0x1334 JUMP JUMPDEST PUSH1 0x40 MLOAD DUP1 SWAP2 SUB SWAP1 REVERT JUMPDEST PUSH0 DUP2 PUSH12 0xFFFFFFFFFFFFFFFFFFFFFFFF AND GT PUSH2 0x550 JUMPI PUSH1 0x40 MLOAD PUSH32 0x8C379A000000000000000000000000000000000000000000000000000000000 DUP2 MSTORE PUSH1 0x4 ADD PUSH2 0x547 SWAP1 PUSH2 0x139C JUMP JUMPDEST PUSH1 0x40 MLOAD DUP1 SWAP2 SUB SWAP1 REVERT JUMPDEST DUP1 PUSH0 DUP1 DUP5 DUP2 MSTORE PUSH1 0x20 ADD SWAP1 DUP2 MSTORE PUSH1 0x20 ADD PUSH0 KECCAK256 PUSH0 ADD PUSH0 PUSH2 0x100 EXP DUP2 SLOAD DUP2 PUSH12 0xFFFFFFFFFFFFFFFFFFFFFFFF MUL NOT AND SWAP1 DUP4 PUSH12 0xFFFFFFFFFFFFFFFFFFFFFFFF AND MUL OR SWAP1 SSTORE POP POP POP JUMP JUMPDEST PUSH0 DUP1 PUSH0 DUP5 DUP2 MSTORE PUSH1 0x20 ADD SWAP1 DUP2 MSTORE PUSH1 0x20 ADD PUSH0 KECCAK256 PUSH1 0x40 MLOAD DUP1 PUSH1 0x60 ADD PUSH1 0x40 MSTORE SWAP1 DUP2 PUSH0 DUP3 ADD PUSH0 SWAP1 SLOAD SWAP1 PUSH2 0x100 EXP SWAP1 DIV PUSH12 0xFFFFFFFFFFFFFFFFFFFFFFFF AND PUSH12 0xFFFFFFFFFFFFFFFFFFFFFFFF AND PUSH12 0xFFFFFFFFFFFFFFFFFFFFFFFF AND DUP2 MSTORE PUSH1 0x20 ADD PUSH0 DUP3 ADD PUSH1 0xC SWAP1 SLOAD SWAP1 PUSH2 0x100 EXP SWAP1 DIV PUSH20 0xFFFFFFFFFFFFFFFFFFFFFFFFFFFFFFFFFFFFFFFF AND PUSH20 0xFFFFFFFFFFFFFFFFFFFFFFFFFFFFFFFFFFFFFFFF AND PUSH20 0xFFFFFFFFFFFFFFFFFFFFFFFFFFFFFFFFFFFFFFFF AND DUP2 MSTORE PUSH1 0x20 ADD PUSH1 0x1 DUP3 ADD PUSH0 SWAP1 SLOAD SWAP1 PUSH2 0x100 EXP SWAP1 DIV PUSH1 0xFF AND ISZERO ISZERO ISZERO ISZERO DUP2 MSTORE POP POP SWAP1 POP DUP1 PUSH1 0x40 ADD MLOAD PUSH2 0x6A1 JUMPI PUSH1 0x40 MLOAD PUSH32 0x8C379A000000000000000000000000000000000000000000000000000000000 DUP2 MSTORE PUSH1 0x4 ADD PUSH2 0x698 SWAP1 PUSH2 0x1404 JUMP JUMPDEST PUSH1 0x40 MLOAD DUP1 SWAP2 SUB SWAP1 REVERT JUMPDEST PUSH0 DUP3 PUSH4 0xFFFFFFFF AND GT PUSH2 0x6E9 JUMPI PUSH1 0x40 MLOAD PUSH32 0x8C379A000000000000000000000000000000000000000000000000000000000 DUP2 MSTORE PUSH1 0x4 ADD PUSH2 0x6E0 SWAP1 PUSH2 0x146C JUMP JUMPDEST PUSH1 0x40 MLOAD DUP1 SWAP2 SUB SWAP1 REVERT JUMPDEST PUSH0 PUSH1 0x1 PUSH0 DUP6 DUP2 MSTORE PUSH1 0x20 ADD SWAP1 DUP2 MSTORE PUSH1 0x20 ADD PUSH0 KECCAK256 PUSH0 CALLER PUSH20 0xFFFFFFFFFFFFFFFFFFFFFFFFFFFFFFFFFFFFFFFF AND PUSH20 0xFFFFFFFFFFFFFFFFFFFFFFFFFFFFFFFFFFFFFFFF AND DUP2 MSTORE PUSH1 0x20 ADD SWAP1 DUP2 MSTORE PUSH1 0x20 ADD PUSH0 KECCAK256 PUSH1 0x40 MLOAD DUP1 PUSH1 0x40 ADD PUSH1 0x40 MSTORE SWAP1 DUP2 PUSH0 DUP3 ADD PUSH0 SWAP1 SLOAD SWAP1 PUSH2 0x100 EXP SWAP1 DIV PUSH8 0xFFFFFFFFFFFFFFFF AND PUSH8 0xFFFFFFFFFFFFFFFF AND PUSH8 0xFFFFFFFFFFFFFFFF AND DUP2 MSTORE PUSH1 0x20 ADD PUSH0 DUP3 ADD PUSH1 0x8 SWAP1 SLOAD SWAP1 PUSH2 0x100 EXP SWAP1 DIV PUSH4 0xFFFFFFFF AND PUSH4 0xFFFFFFFF AND PUSH4 0xFFFFFFFF AND DUP2 MSTORE POP POP SWAP1 POP PUSH0 DUP2 PUSH0 ADD MLOAD PUSH8 0xFFFFFFFFFFFFFFFF AND GT ISZERO PUSH2 0x825 JUMPI PUSH0 PUSH2 0xE10 DUP3 PUSH1 0x20 ADD MLOAD PUSH4 0xFFFFFFFF AND PUSH2 0x7C6 SWAP2 SWAP1 PUSH2 0x14B7 JUMP JUMPDEST DUP3 PUSH0 ADD MLOAD PUSH8 0xFFFFFFFFFFFFFFFF AND PUSH2 0x7DE SWAP2 SWAP1 PUSH2 0x14F8 JUMP JUMPDEST SWAP1 POP DUP1 TIMESTAMP LT ISZERO PUSH2 0x823 JUMPI PUSH1 0x40 MLOAD PUSH32 0x8C379A000000000000000000000000000000000000000000000000000000000 DUP2 MSTORE PUSH1 0x4 ADD PUSH2 0x81A SWAP1 PUSH2 0x1575 JUMP JUMPDEST PUSH1 0x40 MLOAD DUP1 SWAP2 SUB SWAP1 REVERT JUMPDEST POP JUMPDEST PUSH0 DUP4 PUSH4 0xFFFFFFFF AND DUP4 PUSH0 ADD MLOAD PUSH12 0xFFFFFFFFFFFFFFFFFFFFFFFF AND PUSH2 0x849 SWAP2 SWAP1 PUSH2 0x14B7 JUMP JUMPDEST SWAP1 POP DUP1 CALLVALUE LT ISZERO PUSH2 0x88E JUMPI PUSH1 0x40 MLOAD PUSH32 0x8C379A000000000000000000000000000000000000000000000000000000000 DUP2 MSTORE PUSH1 0x4 ADD PUSH2 0x885 SWAP1 PUSH2 0x15DD JUMP JUMPDEST PUSH1 0x40 MLOAD DUP1 SWAP2 SUB SWAP1 REVERT JUMPDEST DUP1 PUSH1 0x2 PUSH0 DUP6 PUSH1 0x20 ADD MLOAD PUSH20 0xFFFFFFFFFFFFFFFFFFFFFFFFFFFFFFFFFFFFFFFF AND PUSH20 0xFFFFFFFFFFFFFFFFFFFFFFFFFFFFFFFFFFFFFFFF AND DUP2 MSTORE PUSH1 0x20 ADD SWAP1 DUP2 MSTORE PUSH1 0x20 ADD PUSH0 KECCAK256 PUSH0 DUP3 DUP3 SLOAD PUSH2 0x8DE SWAP2 SWAP1 PUSH2 0x14F8 JUMP JUMPDEST SWAP3 POP POP DUP2 SWAP1 SSTORE POP PUSH1 0x40 MLOAD DUP1 PUSH1 0x40 ADD PUSH1 0x40 MSTORE DUP1 TIMESTAMP PUSH8 0xFFFFFFFFFFFFFFFF AND DUP2 MSTORE PUSH1 0x20 ADD DUP6 PUSH4 0xFFFFFFFF AND DUP2 MSTORE POP PUSH1 0x1 PUSH0 DUP8 DUP2 MSTORE PUSH1 0x20 ADD SWAP1 DUP2 MSTORE PUSH1 0x20 ADD PUSH0 KECCAK256 PUSH0 CALLER PUSH20 0xFFFFFFFFFFFFFFFFFFFFFFFFFFFFFFFFFFFFFFFF AND PUSH20 0xFFFFFFFFFFFFFFFFFFFFFFFFFFFFFFFFFFFFFFFF AND DUP2 MSTORE PUSH1 0x20 ADD SWAP1 DUP2 MSTORE PUSH1 0x20 ADD PUSH0 KECCAK256 PUSH0 DUP3 ADD MLOAD DUP2 PUSH0 ADD PUSH0 PUSH2 0x100 EXP DUP2 SLOAD DUP2 PUSH8 0xFFFFFFFFFFFFFFFF MUL NOT AND SWAP1 DUP4 PUSH8 0xFFFFFFFFFFFFFFFF AND MUL OR SWAP1 SSTORE POP PUSH1 0x20 DUP3 ADD MLOAD DUP2 PUSH0 ADD PUSH1 0x8 PUSH2 0x100 EXP DUP2 SLOAD DUP2 PUSH4 0xFFFFFFFF MUL NOT AND SWAP1 DUP4 PUSH4 0xFFFFFFFF AND MUL OR SWAP1 SSTORE POP SWAP1 POP POP DUP1 CALLVALUE GT ISZERO PUSH2 0xA12 JUMPI DUP1 CALLVALUE PUSH2 0x9BF SWAP2 SWAP1 PUSH2 0x15FB JUMP JUMPDEST PUSH1 0x2 PUSH0 CALLER PUSH20 0xFFFFFFFFFFFFFFFFFFFFFFFFFFFFFFFFFFFFFFFF AND PUSH20 0xFFFFFFFFFFFFFFFFFFFFFFFFFFFFFFFFFFFFFFFF AND DUP2 MSTORE PUSH1 0x20 ADD SWAP1 DUP2 MSTORE PUSH1 0x20 ADD PUSH0 KECCAK256 PUSH0 DUP3 DUP3 SLOAD PUSH2 0xA0A SWAP2 SWAP1 PUSH2 0x14F8 JUMP JUMPDEST SWAP3 POP POP DUP2 SWAP1 SSTORE POP JUMPDEST CALLER PUSH20 0xFFFFFFFFFFFFFFFFFFFFFFFFFFFFFFFFFFFFFFFF AND DUP6 PUSH32 0xD2870C6FA0E2A46ADD85F18FA696D921A65159C5B5B6106F3F9D855FE12C7620 PUSH1 0x40 MLOAD PUSH1 0x40 MLOAD DUP1 SWAP2 SUB SWAP1 LOG3 POP POP POP POP POP JUMP JUMPDEST PUSH0 DUP1 DUP4 DUP2 MSTORE PUSH1 0x20 ADD SWAP1 DUP2 MSTORE PUSH1 0x20 ADD PUSH0 KECCAK256 PUSH1 0x1 ADD PUSH0 SWAP1 SLOAD SWAP1 PUSH2 0x100 EXP SWAP1 DIV PUSH1 0xFF AND ISZERO PUSH2 0xABD JUMPI PUSH1 0x40 MLOAD PUSH32 0x8C379A000000000000000000000000000000000000000000000000000000000 DUP2 MSTORE PUSH1 0x4 ADD PUSH2 0xAB4 SWAP1 PUSH2 0x1678 JUMP JUMPDEST PUSH1 0x40 MLOAD DUP1 SWAP2 SUB SWAP1 REVERT JUMPDEST PUSH0 DUP2 PUSH12 0xFFFFFFFFFFFFFFFFFFFFFFFF AND GT PUSH2 0xB0D JUMPI PUSH1 0x40 MLOAD PUSH32 0x8C379A000000000000000000000000000000000000000000000000000000000 DUP2 MSTORE PUSH1 0x4 ADD PUSH2 0xB04 SWAP1 PUSH2 0x139C JUMP JUMPDEST PUSH1 0x40 MLOAD DUP1 SWAP2 SUB SWAP1 REVERT JUMPDEST PUSH1 0x40 MLOAD DUP1 PUSH1 0x60 ADD PUSH1 0x40 MSTORE DUP1 DUP3 PUSH12 0xFFFFFFFFFFFFFFFFFFFFFFFF AND DUP2 MSTORE PUSH1 0x20 ADD CALLER PUSH20 0xFFFFFFFFFFFFFFFFFFFFFFFFFFFFFFFFFFFFFFFF AND DUP2 MSTORE PUSH1 0x20 ADD PUSH1 0x1 ISZERO ISZERO DUP2 MSTORE POP PUSH0 DUP1 DUP5 DUP2 MSTORE PUSH1 0x20 ADD SWAP1 DUP2 MSTORE PUSH1 0x20 ADD PUSH0 KECCAK256 PUSH0 DUP3 ADD MLOAD DUP2 PUSH0 ADD PUSH0 PUSH2 0x100 EXP DUP2 SLOAD DUP2 PUSH12 0xFFFFFFFFFFFFFFFFFFFFFFFF MUL NOT AND SWAP1 DUP4 PUSH12 0xFFFFFFFFFFFFFFFFFFFFFFFF AND MUL OR SWAP1 SSTORE POP PUSH1 0x20 DUP3 ADD MLOAD DUP2 PUSH0 ADD PUSH1 0xC PUSH2 0x100 EXP DUP2 SLOAD DUP2 PUSH20 0xFFFFFFFFFFFFFFFFFFFFFFFFFFFFFFFFFFFFFFFF MUL NOT AND SWAP1 DUP4 PUSH20 0xFFFFFFFFFFFFFFFFFFFFFFFFFFFFFFFFFFFFFFFF AND MUL OR SWAP1 SSTORE POP PUSH1 0x40 DUP3 ADD MLOAD DUP2 PUSH1 0x1 ADD PUSH0 PUSH2 0x100 EXP DUP2 SLOAD DUP2 PUSH1 0xFF MUL NOT AND SWAP1 DUP4 ISZERO ISZERO MUL OR SWAP1 SSTORE POP SWAP1 POP POP DUP2 PUSH32 0x9CA52646A7857F099A974ECE3D04DA3053163B41AA4D50AC827FF896D34937B9 PUSH1 0x40 MLOAD PUSH1 0x40 MLOAD DUP1 SWAP2 SUB SWAP1 LOG2 POP POP JUMP JUMPDEST PUSH0 DUP1 PUSH1 0x1 PUSH0 DUP6 DUP2 MSTORE PUSH1 0x20 ADD SWAP1 DUP2 MSTORE PUSH1 0x20 ADD PUSH0 KECCAK256 PUSH0 DUP5 PUSH20 0xFFFFFFFFFFFFFFFFFFFFFFFFFFFFFFFFFFFFFFFF AND PUSH20 0xFFFFFFFFFFFFFFFFFFFFFFFFFFFFFFFFFFFFFFFF AND DUP2 MSTORE PUSH1 0x20 ADD SWAP1 DUP2 MSTORE PUSH1 0x20 ADD PUSH0 KECCAK256 PUSH1 0x40 MLOAD DUP1 PUSH1 0x40 ADD PUSH1 0x40 MSTORE SWAP1 DUP2 PUSH0 DUP3 ADD PUSH0 SWAP1 SLOAD SWAP1 PUSH2 0x100 EXP SWAP1 DIV PUSH8 0xFFFFFFFFFFFFFFFF AND PUSH8 0xFFFFFFFFFFFFFFFF AND PUSH8 0xFFFFFFFFFFFFFFFF AND DUP2 MSTORE PUSH1 0x20 ADD PUSH0 DUP3 ADD PUSH1 0x8 SWAP1 SLOAD SWAP1 PUSH2 0x100 EXP SWAP1 DIV PUSH4 0xFFFFFFFF AND PUSH4 0xFFFFFFFF AND PUSH4 0xFFFFFFFF AND DUP2 MSTORE POP POP SWAP1 POP PUSH0 DUP2 PUSH0 ADD MLOAD PUSH8 0xFFFFFFFFFFFFFFFF AND SUB PUSH2 0xCF9 JUMPI PUSH0 SWAP2 POP POP PUSH2 0xD34 JUMP JUMPDEST PUSH0 PUSH2 0xE10 DUP3 PUSH1 0x20 ADD MLOAD PUSH4 0xFFFFFFFF AND PUSH2 0xD12 SWAP2 SWAP1 PUSH2 0x14B7 JUMP JUMPDEST DUP3 PUSH0 ADD MLOAD PUSH8 0xFFFFFFFFFFFFFFFF AND PUSH2 0xD2A SWAP2 SWAP1 PUSH2 0x14F8 JUMP JUMPDEST SWAP1 POP DUP1 TIMESTAMP LT SWAP3 POP POP POP JUMPDEST SWAP3 SWAP2 POP POP JUMP JUMPDEST PUSH0 DUP1 PUSH0 PUSH1 0x1 PUSH0 DUP6 DUP2 MSTORE PUSH1 0x20 ADD SWAP1 DUP2 MSTORE PUSH1 0x20 ADD PUSH0 KECCAK256 PUSH0 CALLER PUSH20 0xFFFFFFFFFFFFFFFFFFFFFFFFFFFFFFFFFFFFFFFF AND PUSH20 0xFFFFFFFFFFFFFFFFFFFFFFFFFFFFFFFFFFFFFFFF AND DUP2 MSTORE PUSH1 0x20 ADD SWAP1 DUP2 MSTORE PUSH1 0x20 ADD PUSH0 KECCAK256 PUSH1 0x40 MLOAD DUP1 PUSH1 0x40 ADD PUSH1 0x40 MSTORE SWAP1 DUP2 PUSH0 DUP3 ADD PUSH0 SWAP1 SLOAD SWAP1 PUSH2 0x100 EXP SWAP1 DIV PUSH8 0xFFFFFFFFFFFFFFFF AND PUSH8 0xFFFFFFFFFFFFFFFF AND PUSH8 0xFFFFFFFFFFFFFFFF AND DUP2 MSTORE PUSH1 0x20 ADD PUSH0 DUP3 ADD PUSH1 0x8 SWAP1 SLOAD SWAP1 PUSH2 0x100 EXP SWAP1 DIV PUSH4 0xFFFFFFFF AND PUSH4 0xFFFFFFFF AND PUSH4 0xFFFFFFFF AND DUP2 MSTORE POP POP SWAP1 POP PUSH0 DUP2 PUSH0 ADD MLOAD PUSH8 0xFFFFFFFFFFFFFFFF AND SUB PUSH2 0xE0B JUMPI PUSH0 DUP1 SWAP3 POP SWAP3 POP POP PUSH2 0xE67 JUMP JUMPDEST PUSH0 PUSH2 0xE10 DUP3 PUSH1 0x20 ADD MLOAD PUSH4 0xFFFFFFFF AND PUSH2 0xE24 SWAP2 SWAP1 PUSH2 0x14B7 JUMP JUMPDEST DUP3 PUSH0 ADD MLOAD PUSH8 0xFFFFFFFFFFFFFFFF AND PUSH2 0xE3C SWAP2 SWAP1 PUSH2 0x14F8 JUMP JUMPDEST SWAP1 POP DUP1 TIMESTAMP LT PUSH2 0xE52 JUMPI PUSH0 DUP1 SWAP4 POP SWAP4 POP POP POP PUSH2 0xE67 JUMP JUMPDEST PUSH1 0x1 TIMESTAMP DUP3 PUSH2 0xE60 SWAP2 SWAP1 PUSH2 0x15FB JUMP JUMPDEST SWAP4 POP SWAP4 POP POP POP JUMPDEST SWAP2 POP SWAP2 JUMP JUMPDEST PUSH1 0x2 PUSH1 0x20 MSTORE DUP1 PUSH0 MSTORE PUSH1 0x40 PUSH0 KECCAK256 PUSH0 SWAP2 POP SWAP1 POP SLOAD DUP2 JUMP JUMPDEST PUSH0 DUP1 REVERT JUMPDEST PUSH0 DUP2 SWAP1 POP SWAP2 SWAP1 POP JUMP JUMPDEST PUSH2 0xE97 DUP2 PUSH2 0xE85 JUMP JUMPDEST DUP2 EQ PUSH2 0xEA1 JUMPI PUSH0 DUP1 REVERT JUMPDEST POP JUMP JUMPDEST PUSH0 DUP2 CALLDATALOAD SWAP1 POP PUSH2 0xEB2 DUP2 PUSH2 0xE8E JUMP JUMPDEST SWAP3 SWAP2 POP POP JUMP JUMPDEST PUSH0 PUSH1 0x20 DUP3 DUP5 SUB SLT ISZERO PUSH2 0xECD JUMPI PUSH2 0xECC PUSH2 0xE81 JUMP JUMPDEST JUMPDEST PUSH0 PUSH2 0xEDA DUP5 DUP3 DUP6 ADD PUSH2 0xEA4 JUMP JUMPDEST SWAP2 POP POP SWAP3 SWAP2 POP POP JUMP JUMPDEST PUSH0 PUSH12 0xFFFFFFFFFFFFFFFFFFFFFFFF DUP3 AND SWAP1 POP SWAP2 SWAP1 POP JUMP JUMPDEST PUSH2 0xF03 DUP2 PUSH2 0xEE3 JUMP JUMPDEST DUP3 MSTORE POP POP JUMP JUMPDEST PUSH0 PUSH20 0xFFFFFFFFFFFFFFFFFFFFFFFFFFFFFFFFFFFFFFFF DUP3 AND SWAP1 POP SWAP2 SWAP1 POP JUMP JUMPDEST PUSH0 PUSH2 0xF32 DUP3 PUSH2 0xF09 JUMP JUMPDEST SWAP1 POP SWAP2 SWAP1 POP JUMP JUMPDEST PUSH2 0xF42 DUP2 PUSH2 0xF28 JUMP JUMPDEST DUP3 MSTORE POP POP JUMP JUMPDEST PUSH0 DUP2 ISZERO ISZERO SWAP1 POP SWAP2 SWAP1 POP JUMP JUMPDEST PUSH2 0xF5C DUP2 PUSH2 0xF48 JUMP JUMPDEST DUP3 MSTORE POP POP JUMP JUMPDEST PUSH0 PUSH1 0x60 DUP3 ADD SWAP1 POP PUSH2 0xF75 PUSH0 DUP4 ADD DUP7 PUSH2 0xEFA JUMP JUMPDEST PUSH2 0xF82 PUSH1 0x20 DUP4 ADD DUP6 PUSH2 0xF39 JUMP JUMPDEST PUSH2 0xF8F PUSH1 0x40 DUP4 ADD DUP5 PUSH2 0xF53 JUMP JUMPDEST SWAP5 SWAP4 POP POP POP POP JUMP JUMPDEST PUSH2 0xFA0 DUP2 PUSH2 0xF28 JUMP JUMPDEST DUP2 EQ PUSH2 0xFAA JUMPI PUSH0 DUP1 REVERT JUMPDEST POP JUMP JUMPDEST PUSH0 DUP2 CALLDATALOAD SWAP1 POP PUSH2 0xFBB DUP2 PUSH2 0xF97 JUMP JUMPDEST SWAP3 SWAP2 POP POP JUMP JUMPDEST PUSH0 DUP1 PUSH1 0x40 DUP4 DUP6 SUB SLT ISZERO PUSH2 0xFD7 JUMPI PUSH2 0xFD6 PUSH2 0xE81 JUMP JUMPDEST JUMPDEST PUSH0 PUSH2 0xFE4 DUP6 DUP3 DUP7 ADD PUSH2 0xEA4 JUMP JUMPDEST SWAP3 POP POP PUSH1 0x20 PUSH2 0xFF5 DUP6 DUP3 DUP7 ADD PUSH2 0xFAD JUMP JUMPDEST SWAP2 POP POP SWAP3 POP SWAP3 SWAP1 POP JUMP JUMPDEST PUSH0 PUSH8 0xFFFFFFFFFFFFFFFF DUP3 AND SWAP1 POP SWAP2 SWAP1 POP JUMP JUMPDEST PUSH2 0x101B DUP2 PUSH2 0xFFF JUMP JUMPDEST DUP3 MSTORE POP POP JUMP JUMPDEST PUSH0 PUSH4 0xFFFFFFFF DUP3 AND SWAP1 POP SWAP2 SWAP1 POP JUMP JUMPDEST PUSH2 0x1039 DUP2 PUSH2 0x1021 JUMP JUMPDEST DUP3 MSTORE POP POP JUMP JUMPDEST PUSH0 PUSH1 0x40 DUP3 ADD SWAP1 POP PUSH2 0x1052 PUSH0 DUP4 ADD DUP6 PUSH2 0x1012 JUMP JUMPDEST PUSH2 0x105F PUSH1 0x20 DUP4 ADD DUP5 PUSH2 0x1030 JUMP JUMPDEST SWAP4 SWAP3 POP POP POP JUMP JUMPDEST PUSH2 0x106F DUP2 PUSH2 0xEE3 JUMP JUMPDEST DUP2 EQ PUSH2 0x1079 JUMPI PUSH0 DUP1 REVERT JUMPDEST POP JUMP JUMPDEST PUSH0 DUP2 CALLDATALOAD SWAP1 POP PUSH2 0x108A DUP2 PUSH2 0x1066 JUMP JUMPDEST SWAP3 SWAP2 POP POP JUMP JUMPDEST PUSH0 DUP1 PUSH1 0x40 DUP4 DUP6 SUB SLT ISZERO PUSH2 0x10A6 JUMPI PUSH2 0x10A5 PUSH2 0xE81 JUMP JUMPDEST JUMPDEST PUSH0 PUSH2 0x10B3 DUP6 DUP3 DUP7 ADD PUSH2 0xEA4 JUMP JUMPDEST SWAP3 POP POP PUSH1 0x20 PUSH2 0x10C4 DUP6 DUP3 DUP7 ADD PUSH2 0x107C JUMP JUMPDEST SWAP2 POP POP SWAP3 POP SWAP3 SWAP1 POP JUMP JUMPDEST PUSH2 0x10D7 DUP2 PUSH2 0x1021 JUMP JUMPDEST DUP2 EQ PUSH2 0x10E1 JUMPI PUSH0 DUP1 REVERT JUMPDEST POP JUMP JUMPDEST PUSH0 DUP2 CALLDATALOAD SWAP1 POP PUSH2 0x10F2 DUP2 PUSH2 0x10CE JUMP JUMPDEST SWAP3 SWAP2 POP POP JUMP JUMPDEST PUSH0 DUP1 PUSH1 0x40 DUP4 DUP6 SUB SLT ISZERO PUSH2 0x110E JUMPI PUSH2 0x110D PUSH2 0xE81 JUMP JUMPDEST JUMPDEST PUSH0 PUSH2 0x111B DUP6 DUP3 DUP7 ADD PUSH2 0xEA4 JUMP JUMPDEST SWAP3 POP POP PUSH1 0x20 PUSH2 0x112C DUP6 DUP3 DUP7 ADD PUSH2 0x10E4 JUMP JUMPDEST SWAP2 POP POP SWAP3 POP SWAP3 SWAP1 POP JUMP JUMPDEST PUSH0 PUSH1 0x20 DUP3 ADD SWAP1 POP PUSH2 0x1149 PUSH0 DUP4 ADD DUP5 PUSH2 0xF53 JUMP JUMPDEST SWAP3 SWAP2 POP POP JUMP JUMPDEST PUSH2 0x1158 DUP2 PUSH2 0xE85 JUMP JUMPDEST DUP3 MSTORE POP POP JUMP JUMPDEST PUSH0 PUSH1 0x40 DUP3 ADD SWAP1 POP PUSH2 0x1171 PUSH0 DUP4 ADD DUP6 PUSH2 0xF53 JUMP JUMPDEST PUSH2 0x117E PUSH1 0x20 DUP4 ADD DUP5 PUSH2 0x114F JUMP JUMPDEST SWAP4 SWAP3 POP POP POP JUMP JUMPDEST PUSH0 PUSH1 0x20 DUP3 DUP5 SUB SLT ISZERO PUSH2 0x119A JUMPI PUSH2 0x1199 PUSH2 0xE81 JUMP JUMPDEST JUMPDEST PUSH0 PUSH2 0x11A7 DUP5 DUP3 DUP6 ADD PUSH2 0xFAD JUMP JUMPDEST SWAP2 POP POP SWAP3 SWAP2 POP POP JUMP JUMPDEST PUSH0 PUSH1 0x20 DUP3 ADD SWAP1 POP PUSH2 0x11C3 PUSH0 DUP4 ADD DUP5 PUSH2 0x114F JUMP JUMPDEST SWAP3 SWAP2 POP POP JUMP JUMPDEST PUSH0 DUP3 DUP3 MSTORE PUSH1 0x20 DUP3 ADD SWAP1 POP SWAP3 SWAP2 POP POP JUMP JUMPDEST PUSH32 0x4E6F7468696E6720746F20776974686472617700000000000000000000000000 PUSH0 DUP3 ADD MSTORE POP JUMP JUMPDEST PUSH0 PUSH2 0x120D PUSH1 0x13 DUP4 PUSH2 0x11C9 JUMP JUMPDEST SWAP2 POP PUSH2 0x1218 DUP3 PUSH2 0x11D9 JUMP JUMPDEST PUSH1 0x20 DUP3 ADD SWAP1 POP SWAP2 SWAP1 POP JUMP JUMPDEST PUSH0 PUSH1 0x20 DUP3 ADD SWAP1 POP DUP2 DUP2 SUB PUSH0 DUP4 ADD MSTORE PUSH2 0x123A DUP2 PUSH2 0x1201 JUMP JUMPDEST SWAP1 POP SWAP2 SWAP1 POP JUMP JUMPDEST PUSH0 DUP2 SWAP1 POP SWAP3 SWAP2 POP POP JUMP JUMPDEST POP JUMP JUMPDEST PUSH0 PUSH2 0x1259 PUSH0 DUP4 PUSH2 0x1241 JUMP JUMPDEST SWAP2 POP PUSH2 0x1264 DUP3 PUSH2 0x124B JUMP JUMPDEST PUSH0 DUP3 ADD SWAP1 POP SWAP2 SWAP1 POP JUMP JUMPDEST PUSH0 PUSH2 0x1278 DUP3 PUSH2 0x124E JUMP JUMPDEST SWAP2 POP DUP2 SWAP1 POP SWAP2 SWAP1 POP JUMP JUMPDEST PUSH32 0x5472616E73666572206661696C65640000000000000000000000000000000000 PUSH0 DUP3 ADD MSTORE POP JUMP JUMPDEST PUSH0 PUSH2 0x12B6 PUSH1 0xF DUP4 PUSH2 0x11C9 JUMP JUMPDEST SWAP2 POP PUSH2 0x12C1 DUP3 PUSH2 0x1282 JUMP JUMPDEST PUSH1 0x20 DUP3 ADD SWAP1 POP SWAP2 SWAP1 POP JUMP JUMPDEST PUSH0 PUSH1 0x20 DUP3 ADD SWAP1 POP DUP2 DUP2 SUB PUSH0 DUP4 ADD MSTORE PUSH2 0x12E3 DUP2 PUSH2 0x12AA JUMP JUMPDEST SWAP1 POP SWAP2 SWAP1 POP JUMP JUMPDEST PUSH32 0x4E6F74206F776E65720000000000000000000000000000000000000000000000 PUSH0 DUP3 ADD MSTORE POP JUMP JUMPDEST PUSH0 PUSH2 0x131E PUSH1 0x9 DUP4 PUSH2 0x11C9 JUMP JUMPDEST SWAP2 POP PUSH2 0x1329 DUP3 PUSH2 0x12EA JUMP JUMPDEST PUSH1 0x20 DUP3 ADD SWAP1 POP SWAP2 SWAP1 POP JUMP JUMPDEST PUSH0 PUSH1 0x20 DUP3 ADD SWAP1 POP DUP2 DUP2 SUB PUSH0 DUP4 ADD MSTORE PUSH2 0x134B DUP2 PUSH2 0x1312 JUMP JUMPDEST SWAP1 POP SWAP2 SWAP1 POP JUMP JUMPDEST PUSH32 0x526174653D300000000000000000000000000000000000000000000000000000 PUSH0 DUP3 ADD MSTORE POP JUMP JUMPDEST PUSH0 PUSH2 0x1386 PUSH1 0x6 DUP4 PUSH2 0x11C9 JUMP JUMPDEST SWAP2 POP PUSH2 0x1391 DUP3 PUSH2 0x1352 JUMP JUMPDEST PUSH1 0x20 DUP3 ADD SWAP1 POP SWAP2 SWAP1 POP JUMP JUMPDEST PUSH0 PUSH1 0x20 DUP3 ADD SWAP1 POP DUP2 DUP2 SUB PUSH0 DUP4 ADD MSTORE PUSH2 0x13B3 DUP2 PUSH2 0x137A JUMP JUMPDEST SWAP1 POP SWAP2 SWAP1 POP JUMP JUMPDEST PUSH32 0x4E6F206E6F646500000000000000000000000000000000000000000000000000 PUSH0 DUP3 ADD MSTORE POP JUMP JUMPDEST PUSH0 PUSH2 0x13EE PUSH1 0x7 DUP4 PUSH2 0x11C9 JUMP JUMPDEST SWAP2 POP PUSH2 0x13F9 DUP3 PUSH2 0x13BA JUMP JUMPDEST PUSH1 0x20 DUP3 ADD SWAP1 POP SWAP2 SWAP1 POP JUMP JUMPDEST PUSH0 PUSH1 0x20 DUP3 ADD SWAP1 POP DUP2 DUP2 SUB PUSH0 DUP4 ADD MSTORE PUSH2 0x141B DUP2 PUSH2 0x13E2 JUMP JUMPDEST SWAP1 POP SWAP2 SWAP1 POP JUMP JUMPDEST PUSH32 0x486F7572733D3000000000000000000000000000000000000000000000000000 PUSH0 DUP3 ADD MSTORE POP JUMP JUMPDEST PUSH0 PUSH2 0x1456 PUSH1 0x7 DUP4 PUSH2 0x11C9 JUMP JUMPDEST SWAP2 POP PUSH2 0x1461 DUP3 PUSH2 0x1422 JUMP JUMPDEST PUSH1 0x20 DUP3 ADD SWAP1 POP SWAP2 SWAP1 POP JUMP JUMPDEST PUSH0 PUSH1 0x20 DUP3 ADD SWAP1 POP DUP2 DUP2 SUB PUSH0 DUP4 ADD MSTORE PUSH2 0x1483 DUP2 PUSH2 0x144A JUMP JUMPDEST SWAP1 POP SWAP2 SWAP1 POP JUMP JUMPDEST PUSH32 0x4E487B7100000000000000000000000000000000000000000000000000000000 PUSH0 MSTORE PUSH1 0x11 PUSH1 0x4 MSTORE PUSH1 0x24 PUSH0 REVERT JUMPDEST PUSH0 PUSH2 0x14C1 DUP3 PUSH2 0xE85 JUMP JUMPDEST SWAP2 POP PUSH2 0x14CC DUP4 PUSH2 0xE85 JUMP JUMPDEST SWAP3 POP DUP3 DUP3 MUL PUSH2 0x14DA DUP2 PUSH2 0xE85 JUMP JUMPDEST SWAP2 POP DUP3 DUP3 DIV DUP5 EQ DUP4 ISZERO OR PUSH2 0x14F1 JUMPI PUSH2 0x14F0 PUSH2 0x148A JUMP JUMPDEST JUMPDEST POP SWAP3 SWAP2 POP POP JUMP JUMPDEST PUSH0 PUSH2 0x1502 DUP3 PUSH2 0xE85 JUMP JUMPDEST SWAP2 POP PUSH2 0x150D DUP4 PUSH2 0xE85 JUMP JUMPDEST SWAP3 POP DUP3 DUP3 ADD SWAP1 POP DUP1 DUP3 GT ISZERO PUSH2 0x1525 JUMPI PUSH2 0x1524 PUSH2 0x148A JUMP JUMPDEST JUMPDEST SWAP3 SWAP2 POP POP JUMP JUMPDEST PUSH32 0x416374697665206C656173650000000000000000000000000000000000000000 PUSH0 DUP3 ADD MSTORE POP JUMP JUMPDEST PUSH0 PUSH2 0x155F PUSH1 0xC DUP4 PUSH2 0x11C9 JUMP JUMPDEST SWAP2 POP PUSH2 0x156A DUP3 PUSH2 0x152B JUMP JUMPDEST PUSH1 0x20 DUP3 ADD SWAP1 POP SWAP2 SWAP1 POP JUMP JUMPDEST PUSH0 PUSH1 0x20 DUP3 ADD SWAP1 POP DUP2 DUP2 SUB PUSH0 DUP4 ADD MSTORE PUSH2 0x158C DUP2 PUSH2 0x1553 JUMP JUMPDEST SWAP1 POP SWAP2 SWAP1 POP JUMP JUMPDEST PUSH32 0x4C6F77207061796D656E74000000000000000000000000000000000000000000 PUSH0 DUP3 ADD MSTORE POP JUMP JUMPDEST PUSH0 PUSH2 0x15C7 PUSH1 0xB DUP4 PUSH2 0x11C9 JUMP JUMPDEST SWAP2 POP PUSH2 0x15D2 DUP3 PUSH2 0x1593 JUMP JUMPDEST PUSH1 0x20 DUP3 ADD SWAP1 POP SWAP2 SWAP1 POP JUMP JUMPDEST PUSH0 PUSH1 0x20 DUP3 ADD SWAP1 POP DUP2 DUP2 SUB PUSH0 DUP4 ADD MSTORE PUSH2 0x15F4 DUP2 PUSH2 0x15BB JUMP JUMPDEST SWAP1 POP SWAP2 SWAP1 POP JUMP JUMPDEST PUSH0 PUSH2 0x1605 DUP3 PUSH2 0xE85 JUMP JUMPDEST SWAP2 POP PUSH2 0x1610 DUP4 PUSH2 0xE85 JUMP JUMPDEST SWAP3 POP DUP3 DUP3 SUB SWAP1 POP DUP2 DUP2 GT ISZERO PUSH2 0x1628 JUMPI PUSH2 0x1627 PUSH2 0x148A JUMP JUMPDEST JUMPDEST SWAP3 SWAP2 POP POP JUMP JUMPDEST PUSH32 0x4578697374730000000000000000000000000000000000000000000000000000 PUSH0 DUP3 ADD MSTORE POP JUMP JUMPDEST PUSH0 PUSH2 0x1662 PUSH1 0x6 DUP4 PUSH2 0x11C9 JUMP JUMPDEST SWAP2 POP PUSH2 0x166D DUP3 PUSH2 0x162E JUMP JUMPDEST PUSH1 0x20 DUP3 ADD SWAP1 POP SWAP2 SWAP1 POP JUMP JUMPDEST PUSH0 PUSH1 0x20 DUP3 ADD SWAP1 POP DUP2 DUP2 SUB PUSH0 DUP4 ADD MSTORE PUSH2 0x168F DUP2 PUSH2 0x1656 JUMP JUMPDEST SWAP1 POP SWAP2 SWAP1 POP JUMP INVALID LOG2 PUSH5 0x6970667358 0x22 SLT KECCAK256 PUSH31 0x4FAF14EED199999788AB4D365B86DFFDB6765E0E92F89C3E545A6A033B3B2C PUSH5 0x736F6C6343 STOP ADDMOD BYTE STOP CALLER "
		},
		"gasEstimates": {
			"creation": {
				"codeDepositCost": "1167200",
				"executionCost": "1212",
				"totalCost": "1168412"
			},
			"external": {
				"checkMyLease(uint256)": "infinite",
				"isLeaseValid(uint256,address)": "infinite",
				"leaseNode(uint256,uint32)": "infinite",
				"leases(uint256,address)": "5435",
				"nodes(uint256)": "7404",
				"pendingWithdrawals(address)": "2890",
				"registerNode(uint256,uint96)": "77091",
				"updateNodeRate(uint256,uint96)": "27321",
				"withdraw()": "infinite"
			}
		},
		"methodIdentifiers": {
			"checkMyLease(uint256)": "de9af3a0",
			"isLeaseValid(uint256,address)": "92239955",
			"leaseNode(uint256,uint32)": "7e11bb7e",
			"leases(uint256,address)": "744c8138",
			"nodes(uint256)": "1c53c280",
			"pendingWithdrawals(address)": "f3f43703",
			"registerNode(uint256,uint96)": "863fbf5b",
			"updateNodeRate(uint256,uint96)": "77f43329",
			"withdraw()": "3ccfd60b"
		}
	},
	"abi": [
		{
			"anonymous": false,
			"inputs": [
				{
					"indexed": true,
					"internalType": "uint256",
					"name": "nodeId",
					"type": "uint256"
				},
				{
					"indexed": true,
					"internalType": "address",
					"name": "leaser",
					"type": "address"
				}
			],
			"name": "NodeLeased",
			"type": "event"
		},
		{
			"anonymous": false,
			"inputs": [
				{
					"indexed": true,
					"internalType": "uint256",
					"name": "nodeId",
					"type": "uint256"
				}
			],
			"name": "NodeRegistered",
			"type": "event"
		},
		{
			"inputs": [
				{
					"internalType": "uint256",
					"name": "nodeId",
					"type": "uint256"
				}
			],
			"name": "checkMyLease",
			"outputs": [
				{
					"internalType": "bool",
					"name": "isValid",
					"type": "bool"
				},
				{
					"internalType": "uint256",
					"name": "remainingTime",
					"type": "uint256"
				}
			],
			"stateMutability": "view",
			"type": "function"
		},
		{
			"inputs": [
				{
					"internalType": "uint256",
					"name": "nodeId",
					"type": "uint256"
				},
				{
					"internalType": "address",
					"name": "leaser",
					"type": "address"
				}
			],
			"name": "isLeaseValid",
			"outputs": [
				{
					"internalType": "bool",
					"name": "",
					"type": "bool"
				}
			],
			"stateMutability": "view",
			"type": "function"
		},
		{
			"inputs": [
				{
					"internalType": "uint256",
					"name": "nodeId",
					"type": "uint256"
				},
				{
					"internalType": "uint32",
					"name": "durationHours",
					"type": "uint32"
				}
			],
			"name": "leaseNode",
			"outputs": [],
			"stateMutability": "payable",
			"type": "function"
		},
		{
			"inputs": [
				{
					"internalType": "uint256",
					"name": "",
					"type": "uint256"
				},
				{
					"internalType": "address",
					"name": "",
					"type": "address"
				}
			],
			"name": "leases",
			"outputs": [
				{
					"internalType": "uint64",
					"name": "startTime",
					"type": "uint64"
				},
				{
					"internalType": "uint32",
					"name": "durationHours",
					"type": "uint32"
				}
			],
			"stateMutability": "view",
			"type": "function"
		},
		{
			"inputs": [
				{
					"internalType": "uint256",
					"name": "",
					"type": "uint256"
				}
			],
			"name": "nodes",
			"outputs": [
				{
					"internalType": "uint96",
					"name": "hourlyRate",
					"type": "uint96"
				},
				{
					"internalType": "address",
					"name": "owner",
					"type": "address"
				},
				{
					"internalType": "bool",
					"name": "exists",
					"type": "bool"
				}
			],
			"stateMutability": "view",
			"type": "function"
		},
		{
			"inputs": [
				{
					"internalType": "address",
					"name": "",
					"type": "address"
				}
			],
			"name": "pendingWithdrawals",
			"outputs": [
				{
					"internalType": "uint256",
					"name": "",
					"type": "uint256"
				}
			],
			"stateMutability": "view",
			"type": "function"
		},
		{
			"inputs": [
				{
					"internalType": "uint256",
					"name": "nodeId",
					"type": "uint256"
				},
				{
					"internalType": "uint96",
					"name": "hourlyRate",
					"type": "uint96"
				}
			],
			"name": "registerNode",
			"outputs": [],
			"stateMutability": "nonpayable",
			"type": "function"
		},
		{
			"inputs": [
				{
					"internalType": "uint256",
					"name": "nodeId",
					"type": "uint256"
				},
				{
					"internalType": "uint96",
					"name": "newRate",
					"type": "uint96"
				}
			],
			"name": "updateNodeRate",
			"outputs": [],
			"stateMutability": "nonpayable",
			"type": "function"
		},
		{
			"inputs": [],
			"name": "withdraw",
			"outputs": [],
			"stateMutability": "nonpayable",
			"type": "function"
		}
	]
}